{
  "address": "0xAB0B767f254D5CBAE8794AC7b2EA3D5843e7A581",
  "abi": [
    {
      "inputs": [
        {
          "internalType": "address",
          "name": "_owner",
          "type": "address"
        }
      ],
      "stateMutability": "nonpayable",
      "type": "constructor"
    },
    {
      "anonymous": false,
      "inputs": [
        {
          "indexed": true,
          "internalType": "address",
          "name": "account",
          "type": "address"
        },
        {
          "indexed": true,
          "internalType": "address",
          "name": "operator",
          "type": "address"
        },
        {
          "indexed": false,
          "internalType": "bool",
          "name": "approved",
          "type": "bool"
        }
      ],
      "name": "ApprovalForAll",
      "type": "event"
    },
    {
      "anonymous": false,
      "inputs": [
        {
          "indexed": false,
          "internalType": "string",
          "name": "newName",
          "type": "string"
        },
        {
          "indexed": false,
          "internalType": "string",
          "name": "newSymbol",
          "type": "string"
        },
        {
          "indexed": false,
          "internalType": "uint256",
          "name": "newDecimals",
          "type": "uint256"
        }
      ],
      "name": "ChangeMetadata",
      "type": "event"
    },
    {
      "anonymous": false,
      "inputs": [
        {
          "indexed": true,
          "internalType": "uint256",
          "name": "vaultId",
          "type": "uint256"
        },
        {
          "indexed": true,
          "internalType": "address",
          "name": "user",
          "type": "address"
        },
        {
          "indexed": false,
          "internalType": "uint256",
          "name": "sharesAmount",
          "type": "uint256"
        },
        {
          "indexed": false,
          "internalType": "uint256",
          "name": "underlyingAmountReceived",
          "type": "uint256"
        }
      ],
      "name": "Deposit",
      "type": "event"
    },
    {
      "anonymous": false,
      "inputs": [
        {
          "indexed": true,
          "internalType": "contract IERC20",
          "name": "token",
          "type": "address"
        },
        {
          "indexed": true,
          "internalType": "address",
          "name": "to",
          "type": "address"
        },
        {
          "indexed": false,
          "internalType": "uint256",
          "name": "amount",
          "type": "uint256"
        }
      ],
      "name": "InCaseTokenStuck",
      "type": "event"
    },
    {
      "anonymous": false,
      "inputs": [
        {
          "indexed": true,
          "internalType": "address",
          "name": "previousOwner",
          "type": "address"
        },
        {
          "indexed": true,
          "internalType": "address",
          "name": "newOwner",
          "type": "address"
        }
      ],
      "name": "OwnershipTransferred",
      "type": "event"
    },
    {
      "anonymous": false,
      "inputs": [
        {
          "indexed": true,
          "internalType": "address",
          "name": "previousPendingOwner",
          "type": "address"
        },
        {
          "indexed": true,
          "internalType": "address",
          "name": "newPendingOwner",
          "type": "address"
        }
      ],
      "name": "PendingOwnershipTransferred",
      "type": "event"
    },
    {
      "anonymous": false,
      "inputs": [
        {
          "indexed": true,
          "internalType": "address",
          "name": "depositor",
          "type": "address"
        },
        {
          "indexed": true,
          "internalType": "bool",
          "name": "allowPulls",
          "type": "bool"
        }
      ],
      "name": "PullDepositorSet",
      "type": "event"
    },
    {
      "anonymous": false,
      "inputs": [
        {
          "indexed": true,
          "internalType": "address",
          "name": "operator",
          "type": "address"
        },
        {
          "indexed": true,
          "internalType": "address",
          "name": "from",
          "type": "address"
        },
        {
          "indexed": true,
          "internalType": "address",
          "name": "to",
          "type": "address"
        },
        {
          "indexed": false,
          "internalType": "uint256[]",
          "name": "ids",
          "type": "uint256[]"
        },
        {
          "indexed": false,
          "internalType": "uint256[]",
          "name": "values",
          "type": "uint256[]"
        }
      ],
      "name": "TransferBatch",
      "type": "event"
    },
    {
      "anonymous": false,
      "inputs": [
        {
          "indexed": true,
          "internalType": "address",
          "name": "operator",
          "type": "address"
        },
        {
          "indexed": true,
          "internalType": "address",
          "name": "from",
          "type": "address"
        },
        {
          "indexed": true,
          "internalType": "address",
          "name": "to",
          "type": "address"
        },
        {
          "indexed": false,
          "internalType": "uint256",
          "name": "id",
          "type": "uint256"
        },
        {
          "indexed": false,
          "internalType": "uint256",
          "name": "value",
          "type": "uint256"
        }
      ],
      "name": "TransferSingle",
      "type": "event"
    },
    {
      "anonymous": false,
      "inputs": [
        {
          "indexed": false,
          "internalType": "string",
          "name": "value",
          "type": "string"
        },
        {
          "indexed": true,
          "internalType": "uint256",
          "name": "id",
          "type": "uint256"
        }
      ],
      "name": "URI",
      "type": "event"
    },
    {
      "anonymous": false,
      "inputs": [
        {
          "indexed": false,
          "internalType": "string",
          "name": "oldURI",
          "type": "string"
        },
        {
          "indexed": false,
          "internalType": "string",
          "name": "newURI",
          "type": "string"
        }
      ],
      "name": "URIUpdated",
      "type": "event"
    },
    {
      "anonymous": false,
      "inputs": [
        {
          "indexed": true,
          "internalType": "uint256",
          "name": "vaultId",
          "type": "uint256"
        },
        {
          "indexed": true,
          "internalType": "contract IStrategy",
          "name": "strategy",
          "type": "address"
        },
        {
          "indexed": false,
          "internalType": "uint256",
          "name": "performanceFeeBP",
          "type": "uint256"
        }
      ],
      "name": "VaultAdded",
      "type": "event"
    },
    {
      "anonymous": false,
      "inputs": [
        {
          "indexed": true,
          "internalType": "uint256",
          "name": "vaultId",
          "type": "uint256"
        },
        {
          "indexed": false,
          "internalType": "uint256",
          "name": "underlyingIncrease",
          "type": "uint256"
        }
      ],
      "name": "VaultHarvest",
      "type": "event"
    },
    {
      "anonymous": false,
      "inputs": [
        {
          "indexed": true,
          "internalType": "uint256",
          "name": "vaultId",
          "type": "uint256"
        },
        {
          "indexed": true,
          "internalType": "contract IERC20",
          "name": "token",
          "type": "address"
        },
        {
          "indexed": true,
          "internalType": "address",
          "name": "to",
          "type": "address"
        },
        {
          "indexed": false,
          "internalType": "uint256",
          "name": "amount",
          "type": "uint256"
        }
      ],
      "name": "VaultInCaseTokenStuck",
      "type": "event"
    },
    {
      "anonymous": false,
      "inputs": [
        {
          "indexed": true,
          "internalType": "uint256",
          "name": "vaultId",
          "type": "uint256"
        }
      ],
      "name": "VaultPanicked",
      "type": "event"
    },
    {
      "anonymous": false,
      "inputs": [
        {
          "indexed": true,
          "internalType": "uint256",
          "name": "vaultId",
          "type": "uint256"
        },
        {
          "indexed": false,
          "internalType": "bool",
          "name": "paused",
          "type": "bool"
        }
      ],
      "name": "VaultPaused",
      "type": "event"
    },
    {
      "anonymous": false,
      "inputs": [
        {
          "indexed": true,
          "internalType": "uint256",
          "name": "vaultId",
          "type": "uint256"
        },
        {
          "indexed": false,
          "internalType": "uint256",
          "name": "performanceFeeBP",
          "type": "uint256"
        }
      ],
      "name": "VaultPerformanceFeeSet",
      "type": "event"
    },
    {
      "anonymous": false,
      "inputs": [
        {
          "indexed": true,
          "internalType": "uint256",
          "name": "vaultId",
          "type": "uint256"
        },
        {
          "indexed": true,
          "internalType": "address",
          "name": "user",
          "type": "address"
        },
        {
          "indexed": true,
          "internalType": "address",
          "name": "receiver",
          "type": "address"
        },
        {
          "indexed": false,
          "internalType": "uint256",
          "name": "sharesAmount",
          "type": "uint256"
        },
        {
          "indexed": false,
          "internalType": "uint256",
          "name": "underlyingAmountReceived",
          "type": "uint256"
        }
      ],
      "name": "Withdraw",
      "type": "event"
    },
    {
      "inputs": [
        {
          "internalType": "contract IStrategy",
          "name": "strategy",
          "type": "address"
        },
        {
          "internalType": "uint16",
          "name": "performanceFeeBP",
          "type": "uint16"
        }
      ],
      "name": "addVault",
      "outputs": [],
      "stateMutability": "nonpayable",
      "type": "function"
    },
    {
      "inputs": [
        {
          "internalType": "address",
          "name": "account",
          "type": "address"
        },
        {
          "internalType": "uint256",
          "name": "id",
          "type": "uint256"
        }
      ],
      "name": "balanceOf",
      "outputs": [
        {
          "internalType": "uint256",
          "name": "",
          "type": "uint256"
        }
      ],
      "stateMutability": "view",
      "type": "function"
    },
    {
      "inputs": [
        {
          "internalType": "address[]",
          "name": "accounts",
          "type": "address[]"
        },
        {
          "internalType": "uint256[]",
          "name": "ids",
          "type": "uint256[]"
        }
      ],
      "name": "balanceOfBatch",
      "outputs": [
        {
          "internalType": "uint256[]",
          "name": "",
          "type": "uint256[]"
        }
      ],
      "stateMutability": "view",
      "type": "function"
    },
    {
      "inputs": [
        {
          "internalType": "address",
          "name": "",
          "type": "address"
        }
      ],
      "name": "canDoPullDeposits",
      "outputs": [
        {
          "internalType": "bool",
          "name": "",
          "type": "bool"
        }
      ],
      "stateMutability": "view",
      "type": "function"
    },
    {
      "inputs": [
        {
          "internalType": "string",
          "name": "newName",
          "type": "string"
        },
        {
          "internalType": "string",
          "name": "newSymbol",
          "type": "string"
        },
        {
          "internalType": "uint8",
          "name": "newDecimals",
          "type": "uint8"
        }
      ],
      "name": "changeMetadata",
      "outputs": [],
      "stateMutability": "nonpayable",
      "type": "function"
    },
    {
      "inputs": [],
      "name": "decimals",
      "outputs": [
        {
          "internalType": "uint8",
          "name": "",
          "type": "uint8"
        }
      ],
      "stateMutability": "view",
      "type": "function"
    },
    {
      "inputs": [
        {
          "internalType": "uint256",
          "name": "vaultId",
          "type": "uint256"
        },
        {
          "internalType": "uint256",
          "name": "underlyingAmount",
          "type": "uint256"
        }
      ],
      "name": "deposit",
      "outputs": [],
      "stateMutability": "nonpayable",
      "type": "function"
    },
    {
      "inputs": [
        {
          "internalType": "uint256",
          "name": "vaultId",
          "type": "uint256"
        },
        {
          "internalType": "uint256",
          "name": "underlyingAmount",
          "type": "uint256"
        },
        {
          "internalType": "bool",
          "name": "pulled",
          "type": "bool"
        },
        {
          "internalType": "uint256",
          "name": "minSharesReceived",
          "type": "uint256"
        }
      ],
      "name": "depositUnderlying",
      "outputs": [
        {
          "internalType": "uint256",
          "name": "sharesReceived",
          "type": "uint256"
        }
      ],
      "stateMutability": "nonpayable",
      "type": "function"
    },
    {
      "inputs": [
        {
          "internalType": "uint256",
          "name": "vaultId",
          "type": "uint256"
        }
      ],
      "name": "emergencyWithdraw",
      "outputs": [],
      "stateMutability": "nonpayable",
      "type": "function"
    },
    {
      "inputs": [
        {
          "internalType": "uint256",
          "name": "id",
          "type": "uint256"
        }
      ],
      "name": "exists",
      "outputs": [
        {
          "internalType": "bool",
          "name": "",
          "type": "bool"
        }
      ],
      "stateMutability": "view",
      "type": "function"
    },
    {
      "inputs": [
        {
          "internalType": "uint256",
          "name": "vaultId",
          "type": "uint256"
        }
      ],
      "name": "harvest",
      "outputs": [
        {
          "internalType": "uint256",
          "name": "underlyingIncrease",
          "type": "uint256"
        }
      ],
      "stateMutability": "nonpayable",
      "type": "function"
    },
    {
      "inputs": [
        {
          "internalType": "contract IERC20",
          "name": "token",
          "type": "address"
        },
        {
          "internalType": "address",
          "name": "to",
          "type": "address"
        }
      ],
      "name": "inCaseTokensGetStuck",
      "outputs": [],
      "stateMutability": "nonpayable",
      "type": "function"
    },
    {
      "inputs": [
        {
          "internalType": "uint256",
          "name": "vaultId",
          "type": "uint256"
        },
        {
          "internalType": "contract IERC20",
          "name": "token",
          "type": "address"
        },
        {
          "internalType": "address",
          "name": "to",
          "type": "address"
        },
        {
          "internalType": "uint256",
          "name": "amount",
          "type": "uint256"
        }
      ],
      "name": "inCaseVaultTokensGetStuck",
      "outputs": [],
      "stateMutability": "nonpayable",
      "type": "function"
    },
    {
      "inputs": [
        {
          "internalType": "address",
          "name": "account",
          "type": "address"
        },
        {
          "internalType": "address",
          "name": "operator",
          "type": "address"
        }
      ],
      "name": "isApprovedForAll",
      "outputs": [
        {
          "internalType": "bool",
          "name": "",
          "type": "bool"
        }
      ],
      "stateMutability": "view",
      "type": "function"
    },
    {
      "inputs": [
        {
          "internalType": "uint256",
          "name": "vaultId",
          "type": "uint256"
        }
      ],
      "name": "isValidVault",
      "outputs": [
        {
          "internalType": "bool",
          "name": "",
          "type": "bool"
        }
      ],
      "stateMutability": "view",
      "type": "function"
    },
    {
      "inputs": [],
      "name": "name",
      "outputs": [
        {
          "internalType": "string",
          "name": "",
          "type": "string"
        }
      ],
      "stateMutability": "view",
      "type": "function"
    },
    {
      "inputs": [],
      "name": "owner",
      "outputs": [
        {
          "internalType": "address",
          "name": "",
          "type": "address"
        }
      ],
      "stateMutability": "view",
      "type": "function"
    },
    {
      "inputs": [
        {
          "internalType": "uint256",
          "name": "vaultId",
          "type": "uint256"
        }
      ],
      "name": "panicVault",
      "outputs": [],
      "stateMutability": "nonpayable",
      "type": "function"
    },
    {
      "inputs": [
        {
          "internalType": "uint256",
          "name": "vaultId",
          "type": "uint256"
        },
        {
          "internalType": "bool",
          "name": "paused",
          "type": "bool"
        }
      ],
      "name": "pauseVault",
      "outputs": [],
      "stateMutability": "nonpayable",
      "type": "function"
    },
    {
      "inputs": [],
      "name": "pendingOwner",
      "outputs": [
        {
          "internalType": "address",
          "name": "",
          "type": "address"
        }
      ],
      "stateMutability": "view",
      "type": "function"
    },
    {
      "inputs": [
        {
          "internalType": "uint256",
          "name": "vaultId",
          "type": "uint256"
        }
      ],
      "name": "poolInfo",
      "outputs": [
        {
          "internalType": "contract IERC20",
          "name": "_lpToken",
          "type": "address"
        },
        {
          "internalType": "uint256",
          "name": "_allocPoint",
          "type": "uint256"
        },
        {
          "internalType": "uint256",
          "name": "_lastRewardBlock",
          "type": "uint256"
        },
        {
          "internalType": "uint256",
          "name": "_accTokenPerShare",
          "type": "uint256"
        }
      ],
      "stateMutability": "view",
      "type": "function"
    },
    {
      "inputs": [],
      "name": "poolLength",
      "outputs": [
        {
          "internalType": "uint256",
          "name": "",
          "type": "uint256"
        }
      ],
      "stateMutability": "view",
      "type": "function"
    },
    {
      "inputs": [],
      "name": "renounceOwnership",
      "outputs": [],
      "stateMutability": "nonpayable",
      "type": "function"
    },
    {
      "inputs": [
        {
          "internalType": "address",
          "name": "from",
          "type": "address"
        },
        {
          "internalType": "address",
          "name": "to",
          "type": "address"
        },
        {
          "internalType": "uint256[]",
          "name": "ids",
          "type": "uint256[]"
        },
        {
          "internalType": "uint256[]",
          "name": "amounts",
          "type": "uint256[]"
        },
        {
          "internalType": "bytes",
          "name": "data",
          "type": "bytes"
        }
      ],
      "name": "safeBatchTransferFrom",
      "outputs": [],
      "stateMutability": "nonpayable",
      "type": "function"
    },
    {
      "inputs": [
        {
          "internalType": "address",
          "name": "from",
          "type": "address"
        },
        {
          "internalType": "address",
          "name": "to",
          "type": "address"
        },
        {
          "internalType": "uint256",
          "name": "id",
          "type": "uint256"
        },
        {
          "internalType": "uint256",
          "name": "amount",
          "type": "uint256"
        },
        {
          "internalType": "bytes",
          "name": "data",
          "type": "bytes"
        }
      ],
      "name": "safeTransferFrom",
      "outputs": [],
      "stateMutability": "nonpayable",
      "type": "function"
    },
    {
      "inputs": [
        {
          "internalType": "address",
          "name": "operator",
          "type": "address"
        },
        {
          "internalType": "bool",
          "name": "approved",
          "type": "bool"
        }
      ],
      "name": "setApprovalForAll",
      "outputs": [],
      "stateMutability": "nonpayable",
      "type": "function"
    },
    {
      "inputs": [
        {
          "internalType": "address",
          "name": "newPendingOwner",
          "type": "address"
        }
      ],
      "name": "setPendingOwner",
      "outputs": [],
      "stateMutability": "nonpayable",
      "type": "function"
    },
    {
      "inputs": [
        {
          "internalType": "address",
          "name": "pullDepositor",
          "type": "address"
        },
        {
          "internalType": "bool",
          "name": "isAllowed",
          "type": "bool"
        }
      ],
      "name": "setPullDepositor",
      "outputs": [],
      "stateMutability": "nonpayable",
      "type": "function"
    },
    {
      "inputs": [
        {
          "internalType": "string",
          "name": "newURI",
          "type": "string"
        }
      ],
      "name": "setURI",
      "outputs": [],
      "stateMutability": "nonpayable",
      "type": "function"
    },
    {
      "inputs": [
        {
          "internalType": "uint256",
          "name": "vaultId",
          "type": "uint256"
        },
        {
          "internalType": "uint16",
          "name": "performanceFeeBP",
          "type": "uint16"
        }
      ],
      "name": "setVault",
      "outputs": [],
      "stateMutability": "nonpayable",
      "type": "function"
    },
    {
      "inputs": [],
      "name": "startBlock",
      "outputs": [
        {
          "internalType": "uint256",
          "name": "",
          "type": "uint256"
        }
      ],
      "stateMutability": "view",
      "type": "function"
    },
    {
      "inputs": [
        {
          "internalType": "contract IStrategy",
          "name": "",
          "type": "address"
        }
      ],
      "name": "strategyExists",
      "outputs": [
        {
          "internalType": "bool",
          "name": "",
          "type": "bool"
        }
      ],
      "stateMutability": "view",
      "type": "function"
    },
    {
      "inputs": [
        {
          "internalType": "contract IStrategy",
          "name": "",
          "type": "address"
        }
      ],
      "name": "strategyVaultId",
      "outputs": [
        {
          "internalType": "uint256",
          "name": "",
          "type": "uint256"
        }
      ],
      "stateMutability": "view",
      "type": "function"
    },
    {
      "inputs": [
        {
          "internalType": "bytes4",
          "name": "interfaceId",
          "type": "bytes4"
        }
      ],
      "name": "supportsInterface",
      "outputs": [
        {
          "internalType": "bool",
          "name": "",
          "type": "bool"
        }
      ],
      "stateMutability": "view",
      "type": "function"
    },
    {
      "inputs": [],
      "name": "symbol",
      "outputs": [
        {
          "internalType": "string",
          "name": "",
          "type": "string"
        }
      ],
      "stateMutability": "view",
      "type": "function"
    },
    {
      "inputs": [],
      "name": "totalAllocPoint",
      "outputs": [
        {
          "internalType": "uint256",
          "name": "",
          "type": "uint256"
        }
      ],
      "stateMutability": "view",
      "type": "function"
    },
    {
      "inputs": [
        {
          "internalType": "uint256",
          "name": "id",
          "type": "uint256"
        }
      ],
      "name": "totalSupply",
      "outputs": [
        {
          "internalType": "uint256",
          "name": "",
          "type": "uint256"
        }
      ],
      "stateMutability": "view",
      "type": "function"
    },
    {
      "inputs": [
        {
          "internalType": "uint256",
          "name": "vaultId",
          "type": "uint256"
        }
      ],
      "name": "totalUnderlying",
      "outputs": [
        {
          "internalType": "uint256",
          "name": "",
          "type": "uint256"
        }
      ],
      "stateMutability": "view",
      "type": "function"
    },
    {
      "inputs": [],
      "name": "transferOwnership",
      "outputs": [],
      "stateMutability": "nonpayable",
      "type": "function"
    },
    {
      "inputs": [
        {
          "internalType": "uint256",
          "name": "",
          "type": "uint256"
        }
      ],
      "name": "uri",
      "outputs": [
        {
          "internalType": "string",
          "name": "",
          "type": "string"
        }
      ],
      "stateMutability": "view",
      "type": "function"
    },
    {
      "inputs": [
        {
          "internalType": "uint256",
          "name": "vaultId",
          "type": "uint256"
        },
        {
          "internalType": "address",
          "name": "user",
          "type": "address"
        }
      ],
      "name": "userInfo",
      "outputs": [
        {
          "internalType": "uint256",
          "name": "_amount",
          "type": "uint256"
        },
        {
          "internalType": "uint256",
          "name": "_rewardDebt",
          "type": "uint256"
        }
      ],
      "stateMutability": "view",
      "type": "function"
    },
    {
      "inputs": [
        {
          "internalType": "uint256",
          "name": "vaultId",
          "type": "uint256"
        }
      ],
      "name": "vaultInfo",
      "outputs": [
        {
          "components": [
            {
              "internalType": "contract IERC20",
              "name": "underlyingToken",
              "type": "address"
            },
            {
              "internalType": "uint96",
              "name": "lastHarvestTimestamp",
              "type": "uint96"
            },
            {
              "internalType": "contract IStrategy",
              "name": "strategy",
              "type": "address"
            },
            {
              "internalType": "uint16",
              "name": "performanceFeeBP",
              "type": "uint16"
            },
            {
              "internalType": "bool",
              "name": "paused",
              "type": "bool"
            },
            {
              "internalType": "bool",
              "name": "panicked",
              "type": "bool"
            }
          ],
          "internalType": "struct IVaultChefCore.Vault",
          "name": "",
          "type": "tuple"
        }
      ],
      "stateMutability": "view",
      "type": "function"
    },
    {
      "inputs": [
        {
          "internalType": "uint256",
          "name": "vaultId",
          "type": "uint256"
        },
        {
          "internalType": "uint256",
          "name": "underlyingAmount",
          "type": "uint256"
        }
      ],
      "name": "withdraw",
      "outputs": [],
      "stateMutability": "nonpayable",
      "type": "function"
    },
    {
      "inputs": [
        {
          "internalType": "uint256",
          "name": "vaultId",
          "type": "uint256"
        },
        {
          "internalType": "uint256",
          "name": "shares",
          "type": "uint256"
        },
        {
          "internalType": "uint256",
          "name": "minReceived",
          "type": "uint256"
        }
      ],
      "name": "withdrawShares",
      "outputs": [
        {
          "internalType": "uint256",
          "name": "underlyingReceived",
          "type": "uint256"
        }
      ],
      "stateMutability": "nonpayable",
      "type": "function"
    },
    {
      "inputs": [
        {
          "internalType": "uint256",
          "name": "vaultId",
          "type": "uint256"
        },
        {
          "internalType": "uint256",
          "name": "shares",
          "type": "uint256"
        },
        {
          "internalType": "uint256",
          "name": "minReceived",
          "type": "uint256"
        },
        {
          "internalType": "address",
          "name": "to",
          "type": "address"
        }
      ],
      "name": "withdrawSharesTo",
      "outputs": [
        {
          "internalType": "uint256",
          "name": "underlyingReceived",
          "type": "uint256"
        }
      ],
      "stateMutability": "nonpayable",
      "type": "function"
    }
  ],
  "transactionHash": "0x45c0c19037c4f1dbbe9836af13c81a2f60c45e4094b56cac8e1e7882a123f5fe",
  "args": [
    "0xa66745F0092F7460F107E4c66C224553bF4Cd727"
  ],
  "solcInputHash": "ee3ee5dc52e582f7d8af3418646e3649",
  "bytecode": "0x60e0604052601460a08190527f56696f6c696e205661756c74205265636569707400000000000000000000000060c090815262000040916009919062000170565b50604080518082019091526006808252651d95985d5b1d60d21b60209092019182526200007091600a9162000170565b50600b805460ff191660121790553480156200008b57600080fd5b50604051620061e3380380620061e3833981016040819052620000ae9162000216565b6040518060600160405280602b8152602001620061b8602b9139620000d381620000fa565b50620000df3362000113565b600160065543608052620000f38162000113565b5062000285565b80516200010f90600290602084019062000170565b5050565b600480546001600160a01b038381166001600160a01b03198084168217909455600580549094169093556040519116919082907f8be0079c531659141344cd1fd0a4f28419497f9722a3daafe3b4186f6b6457e090600090a35050565b8280546200017e9062000248565b90600052602060002090601f016020900481019282620001a25760008555620001ed565b82601f10620001bd57805160ff1916838001178555620001ed565b82800160010185558215620001ed579182015b82811115620001ed578251825591602001919060010190620001d0565b50620001fb929150620001ff565b5090565b5b80821115620001fb576000815560010162000200565b6000602082840312156200022957600080fd5b81516001600160a01b03811681146200024157600080fd5b9392505050565b600181811c908216806200025d57607f821691505b602082108114156200027f57634e487b7160e01b600052602260045260246000fd5b50919050565b608051615f17620002a160003960006104950152615f176000f3fe608060405234801561001057600080fd5b50600436106102fe5760003560e01c806364ee87de1161019c578063b5da3a38116100ee578063ddc6326211610097578063e3f62d5d11610071578063e3f62d5d14610721578063e985e9c514610744578063f242432a1461078057600080fd5b8063ddc63262146106e8578063e2bbb158146106fb578063e30c39781461070e57600080fd5b8063cde3d5f1116100c8578063cde3d5f1146106af578063ce192fc9146106c2578063d23c437f146106d557600080fd5b8063b5da3a3814610674578063bd85b03914610689578063c42069ec1461069c57600080fd5b80638da5cb5b1161015057806395d89b411161012a57806395d89b4114610646578063a04965701461064e578063a22cb4651461066157600080fd5b80638da5cb5b14610577578063929060d81461059c57806393f1a40b1461061e57600080fd5b8063715018a611610181578063715018a6146105475780637ae3780d1461054f578063880ad0af1461056f57600080fd5b806364ee87de14610521578063661ac7b11461053457600080fd5b80632eb2c2d611610255578063441a3e70116102095780634e1273f4116101e35780634e1273f4146104cc5780634f558e79146104ec5780635312ea8e1461050e57600080fd5b8063441a3e701461048057806348cd4cb1146104935780634b30b422146104b957600080fd5b8063324625861161023a578063324625861461043757806332bccfb21461044a57806341f3b9961461046d57600080fd5b80632eb2c2d61461040f578063313ce5671461042257600080fd5b80630e89341c116102b7578063181eeb2c11610291578063181eeb2c146103d65780631939bbc1146103e9578063215f5c66146103fc57600080fd5b80630e89341c1461037e5780631526fe271461039157806317caf6f1146103ce57600080fd5b806302fe5305116102e857806302fe53051461034c57806306fdde0314610361578063081e3eda1461037657600080fd5b8062fdd58e1461030357806301ffc9a714610329575b600080fd5b610316610311366004615573565b610793565b6040519081526020015b60405180910390f35b61033c61033736600461568f565b61083c565b6040519015158152602001610320565b61035f61035a36600461571b565b610921565b005b6103696109cf565b6040516103209190615af1565b600754610316565b61036961038c3660046157ce565b610a61565b6103a461039f3660046157ce565b610af5565b604080516001600160a01b0390951685526020850193909352918301526060820152608001610320565b600c54610316565b6103166103e43660046158fb565b610bbf565b61035f6103f73660046153f5565b6110f6565b61035f61040a366004615750565b6112fe565b61035f61041d36600461542e565b6113d0565b600b5460405160ff9091168152602001610320565b61031661044536600461592a565b611441565b61033c6104583660046153d8565b60086020526000908152604090205460ff1681565b61035f61047b366004615545565b6116ad565b61035f61048e3660046158b5565b611829565b7f0000000000000000000000000000000000000000000000000000000000000000610316565b61035f6104c73660046157ce565b6119a5565b6104df6104da36600461559f565b611c3d565b6040516103209190615ab0565b61033c6104fa3660046157ce565b600090815260036020526040902054151590565b61035f61051c3660046157ce565b611d7b565b61035f61052f366004615825565b611dda565b610316610542366004615956565b611edf565b61035f61219a565b61031661055d3660046153d8565b600e6020526000908152604090205481565b61035f612200565b6004546001600160a01b03165b6040516001600160a01b039091168152602001610320565b6105af6105aa3660046157ce565b61231c565b6040516103209190600060c0820190506001600160a01b038084511683526bffffffffffffffffffffffff60208501511660208401528060408501511660408401525061ffff606084015116606083015260808301511515608083015260a0830151151560a083015292915050565b61063161062c366004615800565b61246b565b60408051928352602083019190915201610320565b6103696125ae565b61031661065c3660046157ce565b6125bd565b61035f61066f366004615545565b6126bb565b61033c6106823660046157ce565b6007541190565b6103166106973660046157ce565b6127a6565b61035f6106aa3660046153d8565b6127ba565b61035f6106bd366004615892565b61287e565b61035f6106d03660046156e6565b612a7a565b61035f6106e336600461584a565b612b42565b6103166106f63660046157ce565b61301f565b61035f6107093660046158b5565b61314e565b600554610584906001600160a01b031681565b61033c61072f3660046153d8565b600d6020526000908152604090205460ff1681565b61033c6107523660046153f5565b6001600160a01b03918216600090815260016020908152604080832093909416825291909152205460ff1690565b61035f61078e3660046154dc565b613160565b60006001600160a01b0383166108165760405162461bcd60e51b815260206004820152602b60248201527f455243313135353a2062616c616e636520717565727920666f7220746865207a60448201527f65726f206164647265737300000000000000000000000000000000000000000060648201526084015b60405180910390fd5b506000908152602081815260408083206001600160a01b03949094168352929052205490565b60007fffffffff0000000000000000000000000000000000000000000000000000000082167fd9b67a260000000000000000000000000000000000000000000000000000000014806108cf57507fffffffff0000000000000000000000000000000000000000000000000000000082167f0e89341c00000000000000000000000000000000000000000000000000000000145b8061091b57507f01ffc9a7000000000000000000000000000000000000000000000000000000007fffffffff000000000000000000000000000000000000000000000000000000008316145b92915050565b6004546001600160a01b0316331461097b5760405162461bcd60e51b815260206004820181905260248201527f4f776e61626c653a2063616c6c6572206973206e6f7420746865206f776e6572604482015260640161080d565b60006109876000610a61565b9050610992826131c5565b7f927a41e440ce6a96781dbee2e5693388ce49325e4729d62114f699d43dea385e81836040516109c3929190615b04565b60405180910390a15050565b6060600980546109de90615c59565b80601f0160208091040260200160405190810160405280929190818152602001828054610a0a90615c59565b8015610a575780601f10610a2c57610100808354040283529160200191610a57565b820191906000526020600020905b815481529060010190602001808311610a3a57829003601f168201915b5050505050905090565b606060028054610a7090615c59565b80601f0160208091040260200160405190810160405280929190818152602001828054610a9c90615c59565b8015610ae95780601f10610abe57610100808354040283529160200191610ae9565b820191906000526020600020905b815481529060010190602001808311610acc57829003601f168201915b50505050509050919050565b600080600080846007805490508110610b3c5760405162461bcd60e51b8152602060048201526009602482015268085b9bc81d985d5b1d60ba1b604482015260640161080d565b600060078781548110610b5157610b51615d6b565b906000526020600020906002020160010160169054906101000a900460ff16610b7b576001610b7e565b60005b60ff16905060078781548110610b9657610b96615d6b565b60009182526020822060029190910201546001600160a01b031698919750955085945092505050565b60075460009085908110610c015760405162461bcd60e51b8152602060048201526009602482015268085b9bc81d985d5b1d60ba1b604482015260640161080d565b60026006541415610c545760405162461bcd60e51b815260206004820152601f60248201527f5265656e7472616e637947756172643a207265656e7472616e742063616c6c00604482015260640161080d565b6002600655610c62866131d8565b50600060078781548110610c7857610c78615d6b565b60009182526020918290206040805160c081018252600290930290910180546001600160a01b0380821685526bffffffffffffffffffffffff740100000000000000000000000000000000000000009283900416958501959095526001909101549384169183019190915261ffff90830416606082015260ff7601000000000000000000000000000000000000000000008304811615801560808401527701000000000000000000000000000000000000000000000090930416151560a08201529150610d875760405162461bcd60e51b815260206004820152600760248201527f2170617573656400000000000000000000000000000000000000000000000000604482015260640161080d565b6000610d92886127a6565b905060008083604001516001600160a01b031663432b05cc6040518163ffffffff1660e01b8152600401604080518083038186803b158015610dd357600080fd5b505afa158015610de7573d6000803e3d6000fd5b505050506040513d601f19601f82011682018060405250810190610e0b91906158d7565b91509150610e23846000015185604001518b8b613495565b60408086015190517fb6b55f2500000000000000000000000000000000000000000000000000000000815260048101839052919a506001600160a01b03169063b6b55f2590602401600060405180830381600087803b158015610e8557600080fd5b505af1158015610e99573d6000803e3d6000fd5b5050505060008085604001516001600160a01b031663432b05cc6040518163ffffffff1660e01b8152600401604080518083038186803b158015610edc57600080fd5b505afa158015610ef0573d6000803e3d6000fd5b505050506040513d601f19601f82011682018060405250810190610f1491906158d7565b9092509050610f238382615c16565b9a5060008515801590610f3557508415155b610f3f578b610f54565b84610f4a878e615bd9565b610f549190615b9e565b9050610f71338e83604051806020016040528060008152506136d7565b610f7a8d6127a6565b610f849086615bd9565b610f8e8785615bd9565b101580610f99575085155b610fa557610fa5615d0d565b6e01ed09bead87c0378d8e64000000008311156110045760405162461bcd60e51b815260206004820152600760248201527f21756e7361666500000000000000000000000000000000000000000000000000604482015260640161080d565b898110156110545760405162461bcd60e51b815260206004820152601160248201527f216d696e206e6f74207265636569766564000000000000000000000000000000604482015260640161080d565b600081116110a45760405162461bcd60e51b815260206004820152600c60248201527f217a65726f207368617265730000000000000000000000000000000000000000604482015260640161080d565b60408051828152602081018e905233918f917fd36a2f67d06d285786f61a32b052b9ace6b0b7abef5177b54358abdc83a0b69b910160405180910390a360016006559c9b505050505050505050505050565b6004546001600160a01b031633146111505760405162461bcd60e51b815260206004820181905260248201527f4f776e61626c653a2063616c6c6572206973206e6f7420746865206f776e6572604482015260640161080d565b600260065414156111a35760405162461bcd60e51b815260206004820152601f60248201527f5265656e7472616e637947756172643a207265656e7472616e742063616c6c00604482015260640161080d565b60026006556001600160a01b0381166111fe5760405162461bcd60e51b815260206004820152600560248201527f217a65726f000000000000000000000000000000000000000000000000000000604482015260640161080d565b6040517f70a082310000000000000000000000000000000000000000000000000000000081523060048201526000906001600160a01b038416906370a082319060240160206040518083038186803b15801561125957600080fd5b505afa15801561126d573d6000803e3d6000fd5b505050506040513d601f19601f8201168201806040525081019061129191906157e7565b90506112a76001600160a01b038416838361370c565b816001600160a01b0316836001600160a01b03167f3efa79200d9ba2e6620549e323094ea02cd2ce4643d5a9848300fdfc73cc6bf0836040516112ec91815260200190565b60405180910390a35050600160065550565b6004546001600160a01b031633146113585760405162461bcd60e51b815260206004820181905260248201527f4f776e61626c653a2063616c6c6572206973206e6f7420746865206f776e6572604482015260640161080d565b825161136b90600990602086019061523d565b50815161137f90600a90602085019061523d565b50600b805460ff191660ff83161790556040517ffd39229047c7bff3f4fe35a03235de35468c3a40c81742e06df54b7d8c0b69e2906113c390859085908590615b29565b60405180910390a1505050565b600260065414156114235760405162461bcd60e51b815260206004820152601f60248201527f5265656e7472616e637947756172643a207265656e7472616e742063616c6c00604482015260640161080d565b600260065561143585858585856137b5565b50506001600655505050565b600754600090849081106114835760405162461bcd60e51b8152602060048201526009602482015268085b9bc81d985d5b1d60ba1b604482015260640161080d565b84600061148f826127a6565b90506000600783815481106114a6576114a6615d6b565b906000526020600020906002020160010160009054906101000a90046001600160a01b031690506000816001600160a01b031663c70920bc6040518163ffffffff1660e01b815260040160206040518083038186803b15801561150857600080fd5b505afa15801561151c573d6000803e3d6000fd5b505050506040513d601f19601f8201168201806040525081019061154091906157e7565b9050600260065414156115955760405162461bcd60e51b815260206004820152601f60248201527f5265656e7472616e637947756172643a207265656e7472616e742063616c6c00604482015260640161080d565b60026006556115a689898933613857565b95506001600655826115ba575050506116a4565b6000826001600160a01b031663c70920bc6040518163ffffffff1660e01b815260040160206040518083038186803b1580156115f557600080fd5b505afa158015611609573d6000803e3d6000fd5b505050506040513d601f19601f8201168201806040525081019061162d91906157e7565b9050600061163a866127a6565b90506116468184615bd9565b6116508684615bd9565b101561169e5760405162461bcd60e51b815260206004820152600760248201527f21756e7361666500000000000000000000000000000000000000000000000000604482015260640161080d565b50505050505b50509392505050565b6004546001600160a01b031633146117075760405162461bcd60e51b815260206004820181905260248201527f4f776e61626c653a2063616c6c6572206973206e6f7420746865206f776e6572604482015260640161080d565b6002600654141561175a5760405162461bcd60e51b815260206004820152601f60248201527f5265656e7472616e637947756172643a207265656e7472616e742063616c6c00604482015260640161080d565b60026006556001600160a01b03821660009081526008602052604090205460ff16151581151514156117d05760405162461bcd60e51b815260040161080d9060208082526004908201527f2173657400000000000000000000000000000000000000000000000000000000604082015260600190565b6001600160a01b038216600081815260086020526040808220805460ff191685151590811790915590519092917f7b37e6ccec64f609193fb5822b7e7327dacd6df08d00fc79d2170614aedc5e4891a350506001600655565b600754829081106118685760405162461bcd60e51b8152602060048201526009602482015268085b9bc81d985d5b1d60ba1b604482015260640161080d565b60006007848154811061187d5761187d615d6b565b600091825260209182902060016002909202010154604080517fc70920bc00000000000000000000000000000000000000000000000000000000815290516001600160a01b039092169263c70920bc92600480840193829003018186803b1580156118e757600080fd5b505afa1580156118fb573d6000803e3d6000fd5b505050506040513d601f19601f8201168201806040525081019061191f91906157e7565b90508061196e5760405162461bcd60e51b815260206004820152600660248201527f21656d7074790000000000000000000000000000000000000000000000000000604482015260640161080d565b6000818461197b876127a6565b6119859190615bd9565b61198f9190615b9e565b905061199d85826000611441565b505050505050565b6004546001600160a01b031633146119ff5760405162461bcd60e51b815260206004820181905260248201527f4f776e61626c653a2063616c6c6572206973206e6f7420746865206f776e6572604482015260640161080d565b60075481908110611a3e5760405162461bcd60e51b8152602060048201526009602482015268085b9bc81d985d5b1d60ba1b604482015260640161080d565b60026006541415611a915760405162461bcd60e51b815260206004820152601f60248201527f5265656e7472616e637947756172643a207265656e7472616e742063616c6c00604482015260640161080d565b6002600681905550600060078381548110611aae57611aae615d6b565b906000526020600020906002020190508060010160179054906101000a900460ff1615611b1d5760405162461bcd60e51b815260206004820152600960248201527f2170616e69636b65640000000000000000000000000000000000000000000000604482015260640161080d565b6001810154760100000000000000000000000000000000000000000000900460ff16611b4e57611b4e836001613cd6565b6001810180547fffffffffffffffff00ffffffffffffffffffffffffffffffffffffffffffffff81167701000000000000000000000000000000000000000000000017909155604080517f4700d30500000000000000000000000000000000000000000000000000000000815290516001600160a01b0390921691634700d3059160048082019260009290919082900301818387803b158015611bf057600080fd5b505af1158015611c04573d6000803e3d6000fd5b50506040518592507f7d92b43e7c53a09f584f40d37dd9c01e5efa719c4765332eb18a7b636c9784099150600090a25050600160065550565b60608151835114611cb65760405162461bcd60e51b815260206004820152602960248201527f455243313135353a206163636f756e747320616e6420696473206c656e67746860448201527f206d69736d617463680000000000000000000000000000000000000000000000606482015260840161080d565b6000835167ffffffffffffffff811115611cd257611cd2615d9a565b604051908082528060200260200182016040528015611cfb578160200160208202803683370190505b50905060005b8451811015611d7357611d46858281518110611d1f57611d1f615d6b565b6020026020010151858381518110611d3957611d39615d6b565b6020026020010151610793565b828281518110611d5857611d58615d6b565b6020908102919091010152611d6c81615cd4565b9050611d01565b509392505050565b60075481908110611dba5760405162461bcd60e51b8152602060048201526009602482015268085b9bc81d985d5b1d60ba1b604482015260640161080d565b6000611dc63384610793565b9050611dd483826000611441565b50505050565b6004546001600160a01b03163314611e345760405162461bcd60e51b815260206004820181905260248201527f4f776e61626c653a2063616c6c6572206973206e6f7420746865206f776e6572604482015260640161080d565b60075482908110611e735760405162461bcd60e51b8152602060048201526009602482015268085b9bc81d985d5b1d60ba1b604482015260640161080d565b60026006541415611ec65760405162461bcd60e51b815260206004820152601f60248201527f5265656e7472616e637947756172643a207265656e7472616e742063616c6c00604482015260640161080d565b6002600655611ed58383613cd6565b5050600160065550565b60075460009085908110611f215760405162461bcd60e51b8152602060048201526009602482015268085b9bc81d985d5b1d60ba1b604482015260640161080d565b856000611f2d826127a6565b9050600060078381548110611f4457611f44615d6b565b906000526020600020906002020160010160009054906101000a90046001600160a01b031690506000816001600160a01b031663c70920bc6040518163ffffffff1660e01b815260040160206040518083038186803b158015611fa657600080fd5b505afa158015611fba573d6000803e3d6000fd5b505050506040513d601f19601f82011682018060405250810190611fde91906157e7565b9050600260065414156120335760405162461bcd60e51b815260206004820152601f60248201527f5265656e7472616e637947756172643a207265656e7472616e742063616c6c00604482015260640161080d565b6002600655333b6120865760405162461bcd60e51b815260206004820152600c60248201527f21746f207068697368696e670000000000000000000000000000000000000000604482015260640161080d565b6120928a8a8a8a613857565b95506001600655826120a657505050612190565b6000826001600160a01b031663c70920bc6040518163ffffffff1660e01b815260040160206040518083038186803b1580156120e157600080fd5b505afa1580156120f5573d6000803e3d6000fd5b505050506040513d601f19601f8201168201806040525081019061211991906157e7565b90506000612126866127a6565b90506121328184615bd9565b61213c8684615bd9565b101561218a5760405162461bcd60e51b815260206004820152600760248201527f21756e7361666500000000000000000000000000000000000000000000000000604482015260640161080d565b50505050505b5050949350505050565b6004546001600160a01b031633146121f45760405162461bcd60e51b815260206004820181905260248201527f4f776e61626c653a2063616c6c6572206973206e6f7420746865206f776e6572604482015260640161080d565b6121fe6000613da4565b565b6005546001600160a01b0316336001600160a01b0316146122895760405162461bcd60e51b815260206004820152602760248201527f4f776e61626c653a2063616c6c6572206973206e6f74207468652070656e646960448201527f6e674f776e657200000000000000000000000000000000000000000000000000606482015260840161080d565b6005546001600160a01b03166123075760405162461bcd60e51b815260206004820152602660248201527f4f776e61626c653a206e6577206f776e657220697320746865207a65726f206160448201527f6464726573730000000000000000000000000000000000000000000000000000606482015260840161080d565b6005546121fe906001600160a01b0316613da4565b6040805160c081018252600080825260208201819052918101829052606081018290526080810182905260a08101919091526007548290811061238d5760405162461bcd60e51b8152602060048201526009602482015268085b9bc81d985d5b1d60ba1b604482015260640161080d565b600783815481106123a0576123a0615d6b565b60009182526020918290206040805160c081018252600290930290910180546001600160a01b0380821685526bffffffffffffffffffffffff740100000000000000000000000000000000000000009283900416958501959095526001909101549384169183019190915261ffff90830416606082015260ff760100000000000000000000000000000000000000000000830481161515608083015277010000000000000000000000000000000000000000000000909204909116151560a082015291505b50919050565b6000808360078054905081106124af5760405162461bcd60e51b8152602060048201526009602482015268085b9bc81d985d5b1d60ba1b604482015260640161080d565b60006124ba866127a6565b90506000811561259d57816124cf8789610793565b600789815481106124e2576124e2615d6b565b600091825260209182902060016002909202010154604080517fc70920bc00000000000000000000000000000000000000000000000000000000815290516001600160a01b039092169263c70920bc92600480840193829003018186803b15801561254c57600080fd5b505afa158015612560573d6000803e3d6000fd5b505050506040513d601f19601f8201168201806040525081019061258491906157e7565b61258e9190615bd9565b6125989190615b9e565b6125a0565b60005b976000975095505050505050565b6060600a80546109de90615c59565b600754600090829081106125ff5760405162461bcd60e51b8152602060048201526009602482015268085b9bc81d985d5b1d60ba1b604482015260640161080d565b6007838154811061261257612612615d6b565b600091825260209182902060016002909202010154604080517fc70920bc00000000000000000000000000000000000000000000000000000000815290516001600160a01b039092169263c70920bc92600480840193829003018186803b15801561267c57600080fd5b505afa158015612690573d6000803e3d6000fd5b505050506040513d601f19601f820116820180604052508101906126b491906157e7565b9392505050565b336001600160a01b038316141561273a5760405162461bcd60e51b815260206004820152602960248201527f455243313135353a2073657474696e6720617070726f76616c2073746174757360448201527f20666f722073656c660000000000000000000000000000000000000000000000606482015260840161080d565b3360008181526001602090815260408083206001600160a01b03871680855290835292819020805460ff191686151590811790915590519081529192917f17307eab39ab6107e8899845ad3d59bd9653f200f220920489ca2b5937696c31910160405180910390a35050565b60008181526003602052604081205461091b565b6004546001600160a01b031633146128145760405162461bcd60e51b815260206004820181905260248201527f4f776e61626c653a2063616c6c6572206973206e6f7420746865206f776e6572604482015260640161080d565b600580546001600160a01b038381167fffffffffffffffffffffffff0000000000000000000000000000000000000000831681179093556040519116919082907f1e1c2f9f5b763f63f56cae5a9a406c263521f324917ae0fe29e5cf9955e81ec890600090a35050565b6004546001600160a01b031633146128d85760405162461bcd60e51b815260206004820181905260248201527f4f776e61626c653a2063616c6c6572206973206e6f7420746865206f776e6572604482015260640161080d565b600754829081106129175760405162461bcd60e51b8152602060048201526009602482015268085b9bc81d985d5b1d60ba1b604482015260640161080d565b6002600654141561296a5760405162461bcd60e51b815260206004820152601f60248201527f5265656e7472616e637947756172643a207265656e7472616e742063616c6c00604482015260640161080d565b60026006556103e861ffff831611156129c55760405162461bcd60e51b815260206004820152600660248201527f2176616c69640000000000000000000000000000000000000000000000000000604482015260640161080d565b6000600784815481106129da576129da615d6b565b6000918252602091829020600291909102016001810180547fffffffffffffffffffff0000ffffffffffffffffffffffffffffffffffffffff167401000000000000000000000000000000000000000061ffff88169081029190911790915560405190815290925085917ff02ed140436d9ffdae9753b8b5eee795873d3949a4d17379ee696f5ed324da4d910160405180910390a2505060016006555050565b6001600160a01b0382166000908152600d602052604090205460ff1615612ae35760405162461bcd60e51b815260206004820152600760248201527f2165786973747300000000000000000000000000000000000000000000000000604482015260640161080d565b6001600160a01b0382166000908152600d60209081526040808320805460ff19166001908117909155600754600e90935290832091909155600c805491929091612b2e908490615b86565b90915550612b3e90508282613e19565b5050565b6004546001600160a01b03163314612b9c5760405162461bcd60e51b815260206004820181905260248201527f4f776e61626c653a2063616c6c6572206973206e6f7420746865206f776e6572604482015260640161080d565b60075484908110612bdb5760405162461bcd60e51b8152602060048201526009602482015268085b9bc81d985d5b1d60ba1b604482015260640161080d565b60026006541415612c2e5760405162461bcd60e51b815260206004820152601f60248201527f5265656e7472616e637947756172643a207265656e7472616e742063616c6c00604482015260640161080d565b600260068190555084600060078281548110612c4c57612c4c615d6b565b600091825260208083206040805160c08101825260029490940290910180546001600160a01b03808216865274010000000000000000000000000000000000000000918290046bffffffffffffffffffffffff168686015260019092015491821685840181905290820461ffff166060860152760100000000000000000000000000000000000000000000820460ff9081161515608087015277010000000000000000000000000000000000000000000000909204909116151560a085015281517fc70920bc00000000000000000000000000000000000000000000000000000000815291519395509263c70920bc92600480840193919291829003018186803b158015612d5957600080fd5b505afa158015612d6d573d6000803e3d6000fd5b505050506040513d601f19601f82011682018060405250810190612d9191906157e7565b90506001600160a01b038616612de95760405162461bcd60e51b815260206004820152600560248201527f217a65726f000000000000000000000000000000000000000000000000000000604482015260640161080d565b600060078981548110612dfe57612dfe615d6b565b6000918252602090912060029091020180549091506001600160a01b0389811691161415612e6e5760405162461bcd60e51b815260206004820152600b60248201527f21756e6465726c79696e67000000000000000000000000000000000000000000604482015260640161080d565b60018101546040517f67206d400000000000000000000000000000000000000000000000000000000081526001600160a01b038a81166004830152602482018990528981166044830152909116906367206d4090606401600060405180830381600087803b158015612edf57600080fd5b505af1158015612ef3573d6000803e3d6000fd5b50505050866001600160a01b0316886001600160a01b03168a7f972618f3b15dd25e2724d45b15a9b96facf12fe259754132d6d57678793af90089604051612f3d91815260200190565b60405180910390a450600082604001516001600160a01b031663c70920bc6040518163ffffffff1660e01b815260040160206040518083038186803b158015612f8557600080fd5b505afa158015612f99573d6000803e3d6000fd5b505050506040513d601f19601f82011682018060405250810190612fbd91906157e7565b90508181101561300f5760405162461bcd60e51b815260206004820152600760248201527f21756e7361666500000000000000000000000000000000000000000000000000604482015260640161080d565b5050600160065550505050505050565b600754600090829081106130615760405162461bcd60e51b8152602060048201526009602482015268085b9bc81d985d5b1d60ba1b604482015260640161080d565b600260065414156130b45760405162461bcd60e51b815260206004820152601f60248201527f5265656e7472616e637947756172643a207265656e7472616e742063616c6c00604482015260640161080d565b600260065560078054849081106130cd576130cd615d6b565b906000526020600020906002020160010160169054906101000a900460ff16156131395760405162461bcd60e51b815260206004820152600760248201527f2170617573656400000000000000000000000000000000000000000000000000604482015260640161080d565b613142836131d8565b60016006559392505050565b61315b8282600080610bbf565b505050565b600260065414156131b35760405162461bcd60e51b815260206004820152601f60248201527f5265656e7472616e637947756172643a207265656e7472616e742063616c6c00604482015260640161080d565b60026006556114358585858585614151565b8051612b3e90600290602084019061523d565b600080600783815481106131ee576131ee615d6b565b60009182526020808320600160029093020191820154604080517fc70920bc00000000000000000000000000000000000000000000000000000000815290519395506001600160a01b039091169392849263c70920bc9260048082019391829003018186803b15801561326057600080fd5b505afa158015613274573d6000803e3d6000fd5b505050506040513d601f19601f8201168201806040525081019061329891906157e7565b9050816001600160a01b0316634641257d6040518163ffffffff1660e01b8152600401600060405180830381600087803b1580156132d557600080fd5b505af11580156132e9573d6000803e3d6000fd5b505050506000826001600160a01b031663c70920bc6040518163ffffffff1660e01b815260040160206040518083038186803b15801561332857600080fd5b505afa15801561333c573d6000803e3d6000fd5b505050506040513d601f19601f8201168201806040525081019061336091906157e7565b905061336c8282615c16565b84546bffffffffffffffffffffffff421674010000000000000000000000000000000000000000026001600160a01b03909116178555945060006133b86004546001600160a01b031690565b90506000861180156133d257506001600160a01b03811615155b1561345157600185015460009061271090849074010000000000000000000000000000000000000000900461ffff1661340a8b6127a6565b613414908b615bd9565b61341e9190615bd9565b6134289190615b9e565b6134329190615b9e565b905061344f828983604051806020016040528060008152506136d7565b505b867f66f92fe49933a34399778ab0220bb497297ecdfa463d7b8120928ff17de590418760405161348391815260200190565b60405180910390a25050505050919050565b6040517f70a082310000000000000000000000000000000000000000000000000000000081526001600160a01b03848116600483015260009182918716906370a082319060240160206040518083038186803b1580156134f457600080fd5b505afa158015613508573d6000803e3d6000fd5b505050506040513d601f19601f8201168201806040525081019061352c91906157e7565b90508261354d576135486001600160a01b0387163387876141ec565b61362e565b3360009081526008602052604090205460ff166135ac5760405162461bcd60e51b815260206004820152600a60248201527f2177686974656c69737400000000000000000000000000000000000000000000604482015260640161080d565b6040517fafb1fbd90000000000000000000000000000000000000000000000000000000081526001600160a01b0380881660048301526024820186905286166044820152339063afb1fbd990606401600060405180830381600087803b15801561361557600080fd5b505af1158015613629573d6000803e3d6000fd5b505050505b6040517f70a082310000000000000000000000000000000000000000000000000000000081526001600160a01b0386811660048301528291908816906370a082319060240160206040518083038186803b15801561368b57600080fd5b505afa15801561369f573d6000803e3d6000fd5b505050506040513d601f19601f820116820180604052508101906136c391906157e7565b6136cd9190615c16565b9695505050505050565b6136e38484848461423d565b60008381526003602052604081208054849290613701908490615b86565b909155505050505050565b6040516001600160a01b03831660248201526044810182905261315b9084907fa9059cbb00000000000000000000000000000000000000000000000000000000906064015b60408051601f198184030181529190526020810180517bffffffffffffffffffffffffffffffffffffffffffffffffffffffff167fffffffff000000000000000000000000000000000000000000000000000000009093169290921790915261435c565b6001600160a01b0385163314806137d157506137d18533610752565b6138435760405162461bcd60e51b815260206004820152603260248201527f455243313135353a207472616e736665722063616c6c6572206973206e6f742060448201527f6f776e6572206e6f7220617070726f7665640000000000000000000000000000606482015260840161080d565b6138508585858585614441565b5050505050565b6000836138643387610793565b10156138b25760405162461bcd60e51b815260206004820152601460248201527f21696e73756666696369656e7420736861726573000000000000000000000000604482015260640161080d565b600084116139025760405162461bcd60e51b815260206004820152600c60248201527f217a65726f207368617265730000000000000000000000000000000000000000604482015260640161080d565b60006007868154811061391757613917615d6b565b600091825260208083206040805160c081018252600290940290910180546001600160a01b0380821686526bffffffffffffffffffffffff740100000000000000000000000000000000000000009283900416948601949094526001909101549283169184019190915261ffff90820416606083015260ff76010000000000000000000000000000000000000000000082048116151560808401527701000000000000000000000000000000000000000000000090910416151560a082015291506139e1876127a6565b82604001516001600160a01b031663c70920bc6040518163ffffffff1660e01b815260040160206040518083038186803b158015613a1e57600080fd5b505afa158015613a32573d6000803e3d6000fd5b505050506040513d601f19601f82011682018060405250810190613a5691906157e7565b613a609088615bd9565b613a6a9190615b9e565b9050613a77338888614753565b81516040517f70a082310000000000000000000000000000000000000000000000000000000081526001600160a01b03868116600483015260009216906370a082319060240160206040518083038186803b158015613ad557600080fd5b505afa158015613ae9573d6000803e3d6000fd5b505050506040513d601f19601f82011682018060405250810190613b0d91906157e7565b60408085015190517ff3fef3a30000000000000000000000000000000000000000000000000000000081526001600160a01b0388811660048301526024820186905292935091169063f3fef3a390604401600060405180830381600087803b158015613b7857600080fd5b505af1158015613b8c573d6000803e3d6000fd5b505084516040517f70a082310000000000000000000000000000000000000000000000000000000081526001600160a01b03898116600483015285945090911691506370a082319060240160206040518083038186803b158015613bef57600080fd5b505afa158015613c03573d6000803e3d6000fd5b505050506040513d601f19601f82011682018060405250810190613c2791906157e7565b613c319190615c16565b915085821015613c835760405162461bcd60e51b815260206004820152601160248201527f216d696e206e6f74207265636569766564000000000000000000000000000000604482015260640161080d565b60408051888152602081018490526001600160a01b0387169133918b917ffe7813e2866053d5c3938554e517b554fce6666a6561bed9eaa7419b29fa9b68910160405180910390a4509695505050505050565b60078281548110613ce957613ce9615d6b565b906000526020600020906002020160010160169054906101000a900460ff1615158115151415613d5d5760405162461bcd60e51b815260040161080d9060208082526004908201527f2173657400000000000000000000000000000000000000000000000000000000604082015260600190565b8015613d81576001600c6000828254613d769190615c16565b90915550613d9a9050565b6001600c6000828254613d949190615b86565b90915550505b612b3e8282614786565b600480546001600160a01b038381167fffffffffffffffffffffffff00000000000000000000000000000000000000008084168217909455600580549094169093556040519116919082907f8be0079c531659141344cd1fd0a4f28419497f9722a3daafe3b4186f6b6457e090600090a35050565b6004546001600160a01b03163314613e735760405162461bcd60e51b815260206004820181905260248201527f4f776e61626c653a2063616c6c6572206973206e6f7420746865206f776e6572604482015260640161080d565b60026006541415613ec65760405162461bcd60e51b815260206004820152601f60248201527f5265656e7472616e637947756172643a207265656e7472616e742063616c6c00604482015260640161080d565b60026006556103e861ffff82161115613f215760405162461bcd60e51b815260206004820152600660248201527f2176616c69640000000000000000000000000000000000000000000000000000604482015260640161080d565b60076040518060c00160405280846001600160a01b0316632495a5996040518163ffffffff1660e01b815260040160206040518083038186803b158015613f6757600080fd5b505afa158015613f7b573d6000803e3d6000fd5b505050506040513d601f19601f82011682018060405250810190613f9f91906156c9565b6001600160a01b03908116825260006020808401829052878316604080860182905261ffff898116606080890191909152608080890187905260a09889018790528a5460018082018d559b8852968690208a51968b0151968916740100000000000000000000000000000000000000006bffffffffffffffffffffffff90981688021760029098020196875592890151958a018054918a0151938a01519990980151959096167fffffffffffffffffffff00000000000000000000000000000000000000000000909616959095179416909102929092177fffffffffffffffff0000ffffffffffffffffffffffffffffffffffffffffffff16760100000000000000000000000000000000000000000000941515949094027fffffffffffffffff00ffffffffffffffffffffffffffffffffffffffffffffff16939093177701000000000000000000000000000000000000000000000093151593909302929092179055600754909161411191615c16565b60405161ffff841681527fe5aa23fc3cd3497e4f2914b1c75cb9f6f38a95bf82277c2c6c94b625e2e399e19060200160405180910390a350506001600655565b6001600160a01b03851633148061416d575061416d8533610752565b6141df5760405162461bcd60e51b815260206004820152602960248201527f455243313135353a2063616c6c6572206973206e6f74206f776e6572206e6f7260448201527f20617070726f7665640000000000000000000000000000000000000000000000606482015260840161080d565b61385085858585856148fd565b6040516001600160a01b0380851660248301528316604482015260648101829052611dd49085907f23b872dd0000000000000000000000000000000000000000000000000000000090608401613751565b6001600160a01b0384166142b95760405162461bcd60e51b815260206004820152602160248201527f455243313135353a206d696e7420746f20746865207a65726f2061646472657360448201527f7300000000000000000000000000000000000000000000000000000000000000606482015260840161080d565b336142d3816000876142ca88614b42565b61385088614b42565b6000848152602081815260408083206001600160a01b038916845290915281208054859290614303908490615b86565b909155505060408051858152602081018590526001600160a01b0380881692600092918516917fc3d58168c5ae7397731d063d5bbf3d657854427343f4c083240f7aacaa2d0f6291015b60405180910390a45050505050565b60006143b1826040518060400160405280602081526020017f5361666545524332303a206c6f772d6c6576656c2063616c6c206661696c6564815250856001600160a01b0316614b8d9092919063ffffffff16565b80519091501561315b57808060200190518101906143cf9190615672565b61315b5760405162461bcd60e51b815260206004820152602a60248201527f5361666545524332303a204552433230206f7065726174696f6e20646964206e60448201527f6f74207375636365656400000000000000000000000000000000000000000000606482015260840161080d565b81518351146144b85760405162461bcd60e51b815260206004820152602860248201527f455243313135353a2069647320616e6420616d6f756e7473206c656e6774682060448201527f6d69736d61746368000000000000000000000000000000000000000000000000606482015260840161080d565b6001600160a01b0385166145345760405162461bcd60e51b815260206004820152602760248201527f455243313135353a207472616e736665722066726f6d20746865207a65726f2060448201527f6164647265737300000000000000000000000000000000000000000000000000606482015260840161080d565b6001600160a01b0384166145b05760405162461bcd60e51b815260206004820152602560248201527f455243313135353a207472616e7366657220746f20746865207a65726f20616460448201527f6472657373000000000000000000000000000000000000000000000000000000606482015260840161080d565b3360005b84518110156146ed5760008582815181106145d1576145d1615d6b565b6020026020010151905060008583815181106145ef576145ef615d6b565b602090810291909101810151600084815280835260408082206001600160a01b038e1683529093529190912054909150818110156146955760405162461bcd60e51b815260206004820152602a60248201527f455243313135353a20696e73756666696369656e742062616c616e636520666f60448201527f72207472616e7366657200000000000000000000000000000000000000000000606482015260840161080d565b6000838152602081815260408083206001600160a01b038e8116855292528083208585039055908b168252812080548492906146d2908490615b86565b92505081905550505050806146e690615cd4565b90506145b4565b50846001600160a01b0316866001600160a01b0316826001600160a01b03167f4a39dc06d4c0dbc64b70af90fd698a233a518aa5d07e595d983b8c0526c8f7fb878760405161473d929190615ac3565b60405180910390a461199d818787878787614ba4565b61475e838383614db8565b6000828152600360205260408120805483929061477c908490615c16565b9091555050505050565b60006007838154811061479b5761479b615d6b565b906000526020600020906002020190508060010160179054906101000a900460ff161561480a5760405162461bcd60e51b815260206004820152600960248201527f2170616e69636b65640000000000000000000000000000000000000000000000604482015260640161080d565b8060010160169054906101000a900460ff16151582151514156148715760405162461bcd60e51b815260040161080d9060208082526004908201527f2173657400000000000000000000000000000000000000000000000000000000604082015260600190565b600181018054831515760100000000000000000000000000000000000000000000027fffffffffffffffffff00ffffffffffffffffffffffffffffffffffffffffffff90911617905560405183907fda8e1d197cc6fd7c91a84b75b5773c11d9f6a3f04bce892b468227617e9f28d9906148f090851515815260200190565b60405180910390a2505050565b6001600160a01b0385166149795760405162461bcd60e51b815260206004820152602760248201527f455243313135353a207472616e736665722066726f6d20746865207a65726f2060448201527f6164647265737300000000000000000000000000000000000000000000000000606482015260840161080d565b6001600160a01b0384166149f55760405162461bcd60e51b815260206004820152602560248201527f455243313135353a207472616e7366657220746f20746865207a65726f20616460448201527f6472657373000000000000000000000000000000000000000000000000000000606482015260840161080d565b33614a058187876142ca88614b42565b6000848152602081815260408083206001600160a01b038a16845290915290205483811015614a9c5760405162461bcd60e51b815260206004820152602a60248201527f455243313135353a20696e73756666696369656e742062616c616e636520666f60448201527f72207472616e7366657200000000000000000000000000000000000000000000606482015260840161080d565b6000858152602081815260408083206001600160a01b038b8116855292528083208785039055908816825281208054869290614ad9908490615b86565b909155505060408051868152602081018690526001600160a01b03808916928a821692918616917fc3d58168c5ae7397731d063d5bbf3d657854427343f4c083240f7aacaa2d0f62910160405180910390a4614b39828888888888614f5b565b50505050505050565b60408051600180825281830190925260609160009190602080830190803683370190505090508281600081518110614b7c57614b7c615d6b565b602090810291909101015292915050565b6060614b9c84846000856150c5565b949350505050565b6001600160a01b0384163b1561199d576040517fbc197c810000000000000000000000000000000000000000000000000000000081526001600160a01b0385169063bc197c8190614c019089908990889088908890600401615a1a565b602060405180830381600087803b158015614c1b57600080fd5b505af1925050508015614c4b575060408051601f3d908101601f19168201909252614c48918101906156ac565b60015b614d0157614c57615dc9565b806308c379a01415614c915750614c6c615de5565b80614c775750614c93565b8060405162461bcd60e51b815260040161080d9190615af1565b505b60405162461bcd60e51b815260206004820152603460248201527f455243313135353a207472616e7366657220746f206e6f6e204552433131353560448201527f526563656976657220696d706c656d656e746572000000000000000000000000606482015260840161080d565b7fffffffff0000000000000000000000000000000000000000000000000000000081167fbc197c810000000000000000000000000000000000000000000000000000000014614b395760405162461bcd60e51b815260206004820152602860248201527f455243313135353a204552433131353552656365697665722072656a6563746560448201527f6420746f6b656e73000000000000000000000000000000000000000000000000606482015260840161080d565b6001600160a01b038316614e345760405162461bcd60e51b815260206004820152602360248201527f455243313135353a206275726e2066726f6d20746865207a65726f206164647260448201527f6573730000000000000000000000000000000000000000000000000000000000606482015260840161080d565b33614e6481856000614e4587614b42565b614e4e87614b42565b5050604080516020810190915260009052505050565b6000838152602081815260408083206001600160a01b038816845290915290205482811015614efa5760405162461bcd60e51b8152602060048201526024808201527f455243313135353a206275726e20616d6f756e7420657863656564732062616c60448201527f616e636500000000000000000000000000000000000000000000000000000000606482015260840161080d565b6000848152602081815260408083206001600160a01b03898116808652918452828520888703905582518981529384018890529092908616917fc3d58168c5ae7397731d063d5bbf3d657854427343f4c083240f7aacaa2d0f62910161434d565b6001600160a01b0384163b1561199d576040517ff23a6e610000000000000000000000000000000000000000000000000000000081526001600160a01b0385169063f23a6e6190614fb89089908990889088908890600401615a78565b602060405180830381600087803b158015614fd257600080fd5b505af1925050508015615002575060408051601f3d908101601f19168201909252614fff918101906156ac565b60015b61500e57614c57615dc9565b7fffffffff0000000000000000000000000000000000000000000000000000000081167ff23a6e610000000000000000000000000000000000000000000000000000000014614b395760405162461bcd60e51b815260206004820152602860248201527f455243313135353a204552433131353552656365697665722072656a6563746560448201527f6420746f6b656e73000000000000000000000000000000000000000000000000606482015260840161080d565b60608247101561513d5760405162461bcd60e51b815260206004820152602660248201527f416464726573733a20696e73756666696369656e742062616c616e636520666f60448201527f722063616c6c0000000000000000000000000000000000000000000000000000606482015260840161080d565b843b61518b5760405162461bcd60e51b815260206004820152601d60248201527f416464726573733a2063616c6c20746f206e6f6e2d636f6e7472616374000000604482015260640161080d565b600080866001600160a01b031685876040516151a791906159fe565b60006040518083038185875af1925050503d80600081146151e4576040519150601f19603f3d011682016040523d82523d6000602084013e6151e9565b606091505b50915091506151f9828286615204565b979650505050505050565b606083156152135750816126b4565b8251156152235782518084602001fd5b8160405162461bcd60e51b815260040161080d9190615af1565b82805461524990615c59565b90600052602060002090601f01602090048101928261526b57600085556152b1565b82601f1061528457805160ff19168380011785556152b1565b828001600101855582156152b1579182015b828111156152b1578251825591602001919060010190615296565b506152bd9291506152c1565b5090565b5b808211156152bd57600081556001016152c2565b600082601f8301126152e757600080fd5b813560206152f482615b62565b6040516153018282615ca7565b8381528281019150858301600585901b8701840188101561532157600080fd5b60005b8581101561534057813584529284019290840190600101615324565b5090979650505050505050565b600082601f83011261535e57600080fd5b813567ffffffffffffffff81111561537857615378615d9a565b60405161538f6020601f19601f8501160182615ca7565b8181528460208386010111156153a457600080fd5b816020850160208301376000918101602001919091529392505050565b803561ffff811681146153d357600080fd5b919050565b6000602082840312156153ea57600080fd5b81356126b481615e8d565b6000806040838503121561540857600080fd5b823561541381615e8d565b9150602083013561542381615e8d565b809150509250929050565b600080600080600060a0868803121561544657600080fd5b853561545181615e8d565b9450602086013561546181615e8d565b9350604086013567ffffffffffffffff8082111561547e57600080fd5b61548a89838a016152d6565b945060608801359150808211156154a057600080fd5b6154ac89838a016152d6565b935060808801359150808211156154c257600080fd5b506154cf8882890161534d565b9150509295509295909350565b600080600080600060a086880312156154f457600080fd5b85356154ff81615e8d565b9450602086013561550f81615e8d565b93506040860135925060608601359150608086013567ffffffffffffffff81111561553957600080fd5b6154cf8882890161534d565b6000806040838503121561555857600080fd5b823561556381615e8d565b9150602083013561542381615ea5565b6000806040838503121561558657600080fd5b823561559181615e8d565b946020939093013593505050565b600080604083850312156155b257600080fd5b823567ffffffffffffffff808211156155ca57600080fd5b818501915085601f8301126155de57600080fd5b813560206155eb82615b62565b6040516155f88282615ca7565b8381528281019150858301600585901b870184018b101561561857600080fd5b600096505b8487101561564457803561563081615e8d565b83526001969096019591830191830161561d565b509650508601359250508082111561565b57600080fd5b50615668858286016152d6565b9150509250929050565b60006020828403121561568457600080fd5b81516126b481615ea5565b6000602082840312156156a157600080fd5b81356126b481615eb3565b6000602082840312156156be57600080fd5b81516126b481615eb3565b6000602082840312156156db57600080fd5b81516126b481615e8d565b600080604083850312156156f957600080fd5b823561570481615e8d565b9150615712602084016153c1565b90509250929050565b60006020828403121561572d57600080fd5b813567ffffffffffffffff81111561574457600080fd5b614b9c8482850161534d565b60008060006060848603121561576557600080fd5b833567ffffffffffffffff8082111561577d57600080fd5b6157898783880161534d565b9450602086013591508082111561579f57600080fd5b506157ac8682870161534d565b925050604084013560ff811681146157c357600080fd5b809150509250925092565b6000602082840312156157e057600080fd5b5035919050565b6000602082840312156157f957600080fd5b5051919050565b6000806040838503121561581357600080fd5b82359150602083013561542381615e8d565b6000806040838503121561583857600080fd5b82359150602083013561542381615ea5565b6000806000806080858703121561586057600080fd5b84359350602085013561587281615e8d565b9250604085013561588281615e8d565b9396929550929360600135925050565b600080604083850312156158a557600080fd5b82359150615712602084016153c1565b600080604083850312156158c857600080fd5b50508035926020909101359150565b600080604083850312156158ea57600080fd5b505080516020909101519092909150565b6000806000806080858703121561591157600080fd5b8435935060208501359250604085013561588281615ea5565b60008060006060848603121561593f57600080fd5b505081359360208301359350604090920135919050565b6000806000806080858703121561596c57600080fd5b843593506020850135925060408501359150606085013561598c81615e8d565b939692955090935050565b600081518084526020808501945080840160005b838110156159c7578151875295820195908201906001016159ab565b509495945050505050565b600081518084526159ea816020860160208601615c2d565b601f01601f19169290920160200192915050565b60008251615a10818460208701615c2d565b9190910192915050565b60006001600160a01b03808816835280871660208401525060a06040830152615a4660a0830186615997565b8281036060840152615a588186615997565b90508281036080840152615a6c81856159d2565b98975050505050505050565b60006001600160a01b03808816835280871660208401525084604083015283606083015260a060808301526151f960a08301846159d2565b6020815260006126b46020830184615997565b604081526000615ad66040830185615997565b8281036020840152615ae88185615997565b95945050505050565b6020815260006126b460208301846159d2565b604081526000615b1760408301856159d2565b8281036020840152615ae881856159d2565b606081526000615b3c60608301866159d2565b8281036020840152615b4e81866159d2565b91505060ff83166040830152949350505050565b600067ffffffffffffffff821115615b7c57615b7c615d9a565b5060051b60200190565b60008219821115615b9957615b99615d3c565b500190565b600082615bd4577f4e487b7100000000000000000000000000000000000000000000000000000000600052601260045260246000fd5b500490565b6000817fffffffffffffffffffffffffffffffffffffffffffffffffffffffffffffffff0483118215151615615c1157615c11615d3c565b500290565b600082821015615c2857615c28615d3c565b500390565b60005b83811015615c48578181015183820152602001615c30565b83811115611dd45750506000910152565b600181811c90821680615c6d57607f821691505b60208210811415612465577f4e487b7100000000000000000000000000000000000000000000000000000000600052602260045260246000fd5b601f19601f830116810181811067ffffffffffffffff82111715615ccd57615ccd615d9a565b6040525050565b60007fffffffffffffffffffffffffffffffffffffffffffffffffffffffffffffffff821415615d0657615d06615d3c565b5060010190565b7f4e487b7100000000000000000000000000000000000000000000000000000000600052600160045260246000fd5b7f4e487b7100000000000000000000000000000000000000000000000000000000600052601160045260246000fd5b7f4e487b7100000000000000000000000000000000000000000000000000000000600052603260045260246000fd5b7f4e487b7100000000000000000000000000000000000000000000000000000000600052604160045260246000fd5b600060033d1115615de25760046000803e5060005160e01c5b90565b600060443d1015615df35790565b6040517ffffffffffffffffffffffffffffffffffffffffffffffffffffffffffffffffc803d016004833e81513d67ffffffffffffffff8160248401118184111715615e4157505050505090565b8285019150815181811115615e595750505050505090565b843d8701016020828501011115615e735750505050505090565b615e8260208286010187615ca7565b509095945050505050565b6001600160a01b0381168114615ea257600080fd5b50565b8015158114615ea257600080fd5b7fffffffff0000000000000000000000000000000000000000000000000000000081168114615ea257600080fdfea2646970667358221220c563782a541675023e8b1fa098d5b8b4a2b5be2374e821c2cb617e14c3e36ad064736f6c6343000806003368747470733a2f2f76696f6c696e2e66696e616e63652f6170692f7661756c74732f7b69647d2e6a736f6e",
  "devdoc": {
    "details": "One of the main extensions is the added compatibility of the SushiSwap MasterChef interface, this is done to be compatible with third-party tools:Allocpoints have been made binary to indicate whether a vault is paused or not (1 alloc point means active, 0 means paused).Reward related variables are set to zero (lastRewardBlock, accTokenPerShare).Events are emitted on the lower level for more compatibility with third-party tools.EmergencyWithdraw event has been omitted intentionally since it is functionally identical to a normal withdrawal.There is no concept of receipt tokens on the compatibility layer, all amounts represent underlying tokens.ERC-1155 transfers have been wrapped with nonReentrant to reduce the exploit freedom. Furthermore receipt tokens cannot be sent to the VaultChef as it does not implement the receipt interface. Furthermore the VaultChef implements IERC20Metadata for etherscan compatibility as it currently uses this metadata to identify ERC-1155 collection metadata.Finally safeguards are added to the addVault function to only allow a strategy to be listed once.For third-party reviewers: The security of this extension can be validated since no internal state is modified on the parent contract.",
    "kind": "dev",
    "methods": {
      "addVault(address,uint16)": {
        "details": "Add accounting for the allocPoints and also locking if the strategy already exists."
      },
      "balanceOf(address,uint256)": {
        "details": "See {IERC1155-balanceOf}. Requirements: - `account` cannot be the zero address."
      },
      "balanceOfBatch(address[],uint256[])": {
        "details": "See {IERC1155-balanceOfBatch}. Requirements: - `accounts` and `ids` must have the same length."
      },
      "deposit(uint256,uint256)": {
        "details": "This function is identical to depositUnderlying, duplication has been permitted to match the masterchef interface.Event emitted on lower level."
      },
      "depositUnderlying(uint256,uint256,bool,uint256)": {
        "details": "This pull-based methodology is extremely valuable for zapping transfer-tax tokens more economically.`msg.sender` must be a smart contract implementing the `IPullDepositor` interface.",
        "params": {
          "minSharesReceived": "The minimum amount of shares that must be received, or the transaction reverts.",
          "pulled": "Uses a pull-based deposit hook if set to true, otherwise traditional safeTransferFrom. The pull-based mechanism allows the depositor to send tokens using a hook.",
          "underlyingAmount": "The intended amount of tokens to deposit (this might not equal the actual deposited amount due to tx/stake fees or the pull mechanism).",
          "vaultId": "The id of the vault."
        },
        "returns": {
          "sharesReceived": "The number of shares minted to the msg.sender."
        }
      },
      "exists(uint256)": {
        "details": "Indicates wether any token exist with a given id, or not."
      },
      "harvest(uint256)": {
        "details": "nonDecreasingUnderlyingValue(vaultId) omitted since it is implicitly defined."
      },
      "isApprovedForAll(address,address)": {
        "details": "See {IERC1155-isApprovedForAll}."
      },
      "owner()": {
        "details": "Returns the address of the current owner."
      },
      "panicVault(uint256)": {
        "details": "Can only be called by owner.",
        "params": {
          "vaultId": "The id of the vault."
        }
      },
      "pauseVault(uint256,bool)": {
        "details": "Can only be called by owner.",
        "params": {
          "paused": "True to pause, false to unpause.",
          "vaultId": "The id of the vault."
        }
      },
      "poolInfo(uint256)": {
        "details": "allocPoint is either 0 or 1. Zero means paused while one means active._lastRewardBlock and _accTokenPerShare are zero since there is no concept of rewards in the VaultChef."
      },
      "renounceOwnership()": {
        "details": "Leaves the contract without owner. It will not be possible to call `onlyOwner` functions anymore. Can only be called by the current owner. NOTE: Renouncing ownership will leave the contract without an owner, thereby removing any functionality that is only available to the owner."
      },
      "setApprovalForAll(address,bool)": {
        "details": "See {IERC1155-setApprovalForAll}."
      },
      "setPendingOwner(address)": {
        "details": "Sets the pendingOwner, ownership is only transferred when they call transferOwnership. Can only be called by the current owner."
      },
      "setPullDepositor(address,bool)": {
        "details": "Can only be called by owner."
      },
      "setVault(uint256,uint16)": {
        "details": "Can only be called by owner.",
        "params": {
          "performanceFeeBP": "The percentage of the harvest rewards that are given to the governance, denominated by 10,000 and maximum 5%.",
          "vaultId": "The id of the vault."
        }
      },
      "startBlock()": {
        "details": "This function is kept for compatibility with third-party tools."
      },
      "supportsInterface(bytes4)": {
        "details": "See {IERC165-supportsInterface}."
      },
      "totalSupply(uint256)": {
        "details": "Due to multiple inheritance, we require to overwrite the totalSupply method."
      },
      "transferOwnership()": {
        "details": "Transfers ownership of the contract to the pendingOwner. Can only be called by the pendingOwner."
      },
      "uri(uint256)": {
        "details": "See {IERC1155MetadataURI-uri}. This implementation returns the same URI for *all* token types. It relies on the token type ID substitution mechanism https://eips.ethereum.org/EIPS/eip-1155#metadata[defined in the EIP]. Clients calling this function must replace the `\\{id\\}` substring with the actual token type ID."
      },
      "userInfo(uint256,address)": {
        "details": "amount represents the amount of underlying tokens._rewardDebt are zero since there is no concept of rewards in the VaultChef."
      },
      "withdraw(uint256,uint256)": {
        "details": "Event emitted on lower level."
      }
    },
    "version": 1
  },
  "userdoc": {
    "kind": "user",
    "methods": {
      "canDoPullDeposits(address)": {
        "notice": "The set of contracts that allow for pull-based deposits. Unnecessary but trims down privileges further."
      },
      "changeMetadata(string,string,uint8)": {
        "notice": "ERC-20 metadata can be updated for potential rebrands, it is included for etherscan compatibility."
      },
      "decimals()": {
        "notice": "The amount of decimals of individual tokens."
      },
      "deposit(uint256,uint256)": {
        "notice": "Deposits `underlyingAmount` of underlying tokens in the vault at `vaultId`."
      },
      "depositUnderlying(uint256,uint256,bool,uint256)": {
        "notice": "Deposit `underlyingAmount` amount of underlying tokens into the vault and receive `sharesReceived` proportional to the actually staked amount.Deposits mint `sharesReceived` receipt tokens as ERC-1155 tokens to msg.sender with the tokenId equal to the vaultId.The tokens are transferred from `msg.sender` which requires approval if pulled is set to false, otherwise `msg.sender` needs to implement IPullDepositor."
      },
      "emergencyWithdraw(uint256)": {
        "notice": "withdraws the complete position of `msg.sender` to `msg.sender`."
      },
      "inCaseTokensGetStuck(address,address)": {
        "notice": "No staked tokens are ever sent to the VaultChef, only to the strategies."
      },
      "inCaseVaultTokensGetStuck(uint256,address,address,uint256)": {
        "notice": "Although the strategy could contain underlying tokens, this function reverts if governance tries to withdraw these."
      },
      "isValidVault(uint256)": {
        "notice": "Returns whether a vault exists at the provided vault id `vaultId`."
      },
      "name()": {
        "notice": "The name of the token collection."
      },
      "panicVault(uint256)": {
        "notice": "Withdraws funds from the underlying staking contract to the strategy and irreversibly pauses the vault."
      },
      "pauseVault(uint256,bool)": {
        "notice": "Pauses the vault which means deposits and harvests are no longer permitted, reverts if already set to the desired value."
      },
      "poolInfo(uint256)": {
        "notice": "poolInfo returns the vault information in a format compatible with the masterchef poolInfo."
      },
      "poolLength()": {
        "notice": "Returns the number of vaults."
      },
      "safeBatchTransferFrom(address,address,uint256[],uint256[],bytes)": {
        "notice": "override safeBatchTransferFrom with nonReentrant modifier to safeguard system properties."
      },
      "safeTransferFrom(address,address,uint256,uint256,bytes)": {
        "notice": "override safeTransferFrom with nonReentrant modifier to safeguard system properties."
      },
      "setPullDepositor(address,bool)": {
        "notice": "Allows the `pullDepositor` to create pull-based deposits (useful for zapping contract).Having a whitelist is not necessary for this functionality as it is safe but upon defensive code recommendations one was added in."
      },
      "setURI(string)": {
        "notice": "Override the ERC-1155 token api metadata URI, this is needed since we want to change it to include the chain slug."
      },
      "setVault(uint256,uint16)": {
        "notice": "Updates the performanceFee of the vault."
      },
      "startBlock()": {
        "notice": "the startBlock function indicates when rewards start in a masterchef, since there is no notion of rewards, it returns zero."
      },
      "strategyExists(address)": {
        "notice": "mapping that returns true if the strategy is set as a vault."
      },
      "strategyVaultId(address)": {
        "notice": "Utility mapping for UI to figure out the vault id of a strategy."
      },
      "symbol()": {
        "notice": "The shorthand symbol of the token collection."
      },
      "totalAllocPoint()": {
        "notice": "Since there is no concept of allocPoints we return the number of active vaults as allocPoints (each active vault has allocPoint 1) for MasterChef compatibility."
      },
      "totalUnderlying(uint256)": {
        "notice": "Returns the total amount of underlying tokens a vault has under management."
      },
      "userInfo(uint256,address)": {
        "notice": "userInfo returns the user their stake information about a specific vault in a format compatible with the masterchef userInfo."
      },
      "vaultInfo(uint256)": {
        "notice": "Returns information about the vault for the frontend to use."
      },
      "withdraw(uint256,uint256)": {
        "notice": "withdraws `amount` of underlying tokens from the vault at `vaultId` to `msg.sender`."
      }
    },
    "notice": "The VaultChef is the wrapper of the core `VaultChefCore` logic that contains all non-essential functionality.It is isolated from the core functionality because all this functionality has no impact on the core functionality.This separation should enable third party reviewers to more easily assess the core component of the vaultchef.",
    "version": 1
  },
  "storageLayout": {
    "storage": [
      {
        "astId": 2908,
        "contract": "contracts/vaultchef/VaultChef.sol:VaultChef",
        "label": "_balances",
        "offset": 0,
        "slot": "0",
        "type": "t_mapping(t_uint256,t_mapping(t_address,t_uint256))"
      },
      {
        "astId": 2914,
        "contract": "contracts/vaultchef/VaultChef.sol:VaultChef",
        "label": "_operatorApprovals",
        "offset": 0,
        "slot": "1",
        "type": "t_mapping(t_address,t_mapping(t_address,t_bool))"
      },
      {
        "astId": 2916,
        "contract": "contracts/vaultchef/VaultChef.sol:VaultChef",
        "label": "_uri",
        "offset": 0,
        "slot": "2",
        "type": "t_string_storage"
      },
      {
        "astId": 3969,
        "contract": "contracts/vaultchef/VaultChef.sol:VaultChef",
        "label": "_totalSupply",
        "offset": 0,
        "slot": "3",
        "type": "t_mapping(t_uint256,t_uint256)"
      },
      {
        "astId": 4155,
        "contract": "contracts/vaultchef/VaultChef.sol:VaultChef",
        "label": "_owner",
        "offset": 0,
        "slot": "4",
        "type": "t_address"
      },
      {
        "astId": 4157,
        "contract": "contracts/vaultchef/VaultChef.sol:VaultChef",
        "label": "pendingOwner",
        "offset": 0,
        "slot": "5",
        "type": "t_address"
      },
      {
        "astId": 594,
        "contract": "contracts/vaultchef/VaultChef.sol:VaultChef",
        "label": "_status",
        "offset": 0,
        "slot": "6",
        "type": "t_uint256"
      },
      {
        "astId": 6966,
        "contract": "contracts/vaultchef/VaultChef.sol:VaultChef",
        "label": "vaults",
        "offset": 0,
        "slot": "7",
        "type": "t_array(t_struct(Vault)5029_storage)dyn_storage"
      },
      {
        "astId": 6975,
        "contract": "contracts/vaultchef/VaultChef.sol:VaultChef",
        "label": "canDoPullDeposits",
        "offset": 0,
        "slot": "8",
        "type": "t_mapping(t_address,t_bool)"
      },
      {
        "astId": 6432,
        "contract": "contracts/vaultchef/VaultChef.sol:VaultChef",
        "label": "_name",
        "offset": 0,
        "slot": "9",
        "type": "t_string_storage"
      },
      {
        "astId": 6435,
        "contract": "contracts/vaultchef/VaultChef.sol:VaultChef",
        "label": "_symbol",
        "offset": 0,
        "slot": "10",
        "type": "t_string_storage"
      },
      {
        "astId": 6438,
        "contract": "contracts/vaultchef/VaultChef.sol:VaultChef",
        "label": "_decimals",
        "offset": 0,
        "slot": "11",
        "type": "t_uint8"
      },
      {
        "astId": 6441,
        "contract": "contracts/vaultchef/VaultChef.sol:VaultChef",
        "label": "activeVaults",
        "offset": 0,
        "slot": "12",
        "type": "t_uint256"
      },
      {
        "astId": 6449,
        "contract": "contracts/vaultchef/VaultChef.sol:VaultChef",
        "label": "strategyExists",
        "offset": 0,
        "slot": "13",
        "type": "t_mapping(t_contract(IStrategy)4990,t_bool)"
      },
      {
        "astId": 6455,
        "contract": "contracts/vaultchef/VaultChef.sol:VaultChef",
        "label": "strategyVaultId",
        "offset": 0,
        "slot": "14",
        "type": "t_mapping(t_contract(IStrategy)4990,t_uint256)"
      }
    ],
    "types": {
      "t_address": {
        "encoding": "inplace",
        "label": "address",
        "numberOfBytes": "20"
      },
      "t_array(t_struct(Vault)5029_storage)dyn_storage": {
        "base": "t_struct(Vault)5029_storage",
        "encoding": "dynamic_array",
        "label": "struct IVaultChefCore.Vault[]",
        "numberOfBytes": "32"
      },
      "t_bool": {
        "encoding": "inplace",
        "label": "bool",
        "numberOfBytes": "1"
      },
      "t_contract(IERC20)1425": {
        "encoding": "inplace",
        "label": "contract IERC20",
        "numberOfBytes": "20"
      },
      "t_contract(IStrategy)4990": {
        "encoding": "inplace",
        "label": "contract IStrategy",
        "numberOfBytes": "20"
      },
      "t_mapping(t_address,t_bool)": {
        "encoding": "mapping",
        "key": "t_address",
        "label": "mapping(address => bool)",
        "numberOfBytes": "32",
        "value": "t_bool"
      },
      "t_mapping(t_address,t_mapping(t_address,t_bool))": {
        "encoding": "mapping",
        "key": "t_address",
        "label": "mapping(address => mapping(address => bool))",
        "numberOfBytes": "32",
        "value": "t_mapping(t_address,t_bool)"
      },
      "t_mapping(t_address,t_uint256)": {
        "encoding": "mapping",
        "key": "t_address",
        "label": "mapping(address => uint256)",
        "numberOfBytes": "32",
        "value": "t_uint256"
      },
      "t_mapping(t_contract(IStrategy)4990,t_bool)": {
        "encoding": "mapping",
        "key": "t_contract(IStrategy)4990",
        "label": "mapping(contract IStrategy => bool)",
        "numberOfBytes": "32",
        "value": "t_bool"
      },
      "t_mapping(t_contract(IStrategy)4990,t_uint256)": {
        "encoding": "mapping",
        "key": "t_contract(IStrategy)4990",
        "label": "mapping(contract IStrategy => uint256)",
        "numberOfBytes": "32",
        "value": "t_uint256"
      },
      "t_mapping(t_uint256,t_mapping(t_address,t_uint256))": {
        "encoding": "mapping",
        "key": "t_uint256",
        "label": "mapping(uint256 => mapping(address => uint256))",
        "numberOfBytes": "32",
        "value": "t_mapping(t_address,t_uint256)"
      },
      "t_mapping(t_uint256,t_uint256)": {
        "encoding": "mapping",
        "key": "t_uint256",
        "label": "mapping(uint256 => uint256)",
        "numberOfBytes": "32",
        "value": "t_uint256"
      },
      "t_string_storage": {
        "encoding": "bytes",
        "label": "string",
        "numberOfBytes": "32"
      },
      "t_struct(Vault)5029_storage": {
        "encoding": "inplace",
        "label": "struct IVaultChefCore.Vault",
        "members": [
          {
            "astId": 5012,
            "contract": "contracts/vaultchef/VaultChef.sol:VaultChef",
            "label": "underlyingToken",
            "offset": 0,
            "slot": "0",
            "type": "t_contract(IERC20)1425"
          },
          {
            "astId": 5015,
            "contract": "contracts/vaultchef/VaultChef.sol:VaultChef",
            "label": "lastHarvestTimestamp",
            "offset": 20,
            "slot": "0",
            "type": "t_uint96"
          },
          {
            "astId": 5019,
            "contract": "contracts/vaultchef/VaultChef.sol:VaultChef",
            "label": "strategy",
            "offset": 0,
            "slot": "1",
            "type": "t_contract(IStrategy)4990"
          },
          {
            "astId": 5022,
            "contract": "contracts/vaultchef/VaultChef.sol:VaultChef",
            "label": "performanceFeeBP",
            "offset": 20,
            "slot": "1",
            "type": "t_uint16"
          },
          {
            "astId": 5025,
            "contract": "contracts/vaultchef/VaultChef.sol:VaultChef",
            "label": "paused",
            "offset": 22,
            "slot": "1",
            "type": "t_bool"
          },
          {
            "astId": 5028,
            "contract": "contracts/vaultchef/VaultChef.sol:VaultChef",
            "label": "panicked",
            "offset": 23,
            "slot": "1",
            "type": "t_bool"
          }
        ],
        "numberOfBytes": "64"
      },
      "t_uint16": {
        "encoding": "inplace",
        "label": "uint16",
        "numberOfBytes": "2"
      },
      "t_uint256": {
        "encoding": "inplace",
        "label": "uint256",
        "numberOfBytes": "32"
      },
      "t_uint8": {
        "encoding": "inplace",
        "label": "uint8",
        "numberOfBytes": "1"
      },
      "t_uint96": {
        "encoding": "inplace",
        "label": "uint96",
        "numberOfBytes": "12"
      }
    }
  }
}