{
  "address": "0xA5BCB9FdDE71e393978278999425ac42DA393d3D",
  "abi": [
    {
      "inputs": [
        {
          "internalType": "address",
          "name": "_owner",
          "type": "address"
        }
      ],
      "stateMutability": "nonpayable",
      "type": "constructor"
    },
    {
      "anonymous": false,
      "inputs": [
        {
          "indexed": true,
          "internalType": "address",
          "name": "account",
          "type": "address"
        },
        {
          "indexed": true,
          "internalType": "address",
          "name": "operator",
          "type": "address"
        },
        {
          "indexed": false,
          "internalType": "bool",
          "name": "approved",
          "type": "bool"
        }
      ],
      "name": "ApprovalForAll",
      "type": "event"
    },
    {
      "anonymous": false,
      "inputs": [
        {
          "indexed": false,
          "internalType": "string",
          "name": "newName",
          "type": "string"
        },
        {
          "indexed": false,
          "internalType": "string",
          "name": "newSymbol",
          "type": "string"
        },
        {
          "indexed": false,
          "internalType": "uint256",
          "name": "newDecimals",
          "type": "uint256"
        }
      ],
      "name": "ChangeMetadata",
      "type": "event"
    },
    {
      "anonymous": false,
      "inputs": [
        {
          "indexed": true,
          "internalType": "uint256",
          "name": "vaultId",
          "type": "uint256"
        },
        {
          "indexed": true,
          "internalType": "address",
          "name": "user",
          "type": "address"
        },
        {
          "indexed": false,
          "internalType": "uint256",
          "name": "sharesAmount",
          "type": "uint256"
        },
        {
          "indexed": false,
          "internalType": "uint256",
          "name": "underlyingAmountReceived",
          "type": "uint256"
        }
      ],
      "name": "Deposit",
      "type": "event"
    },
    {
      "anonymous": false,
      "inputs": [
        {
          "indexed": true,
          "internalType": "contract IERC20",
          "name": "token",
          "type": "address"
        },
        {
          "indexed": true,
          "internalType": "address",
          "name": "to",
          "type": "address"
        },
        {
          "indexed": false,
          "internalType": "uint256",
          "name": "amount",
          "type": "uint256"
        }
      ],
      "name": "InCaseTokenStuck",
      "type": "event"
    },
    {
      "anonymous": false,
      "inputs": [
        {
          "indexed": true,
          "internalType": "address",
          "name": "previousOwner",
          "type": "address"
        },
        {
          "indexed": true,
          "internalType": "address",
          "name": "newOwner",
          "type": "address"
        }
      ],
      "name": "OwnershipTransferred",
      "type": "event"
    },
    {
      "anonymous": false,
      "inputs": [
        {
          "indexed": true,
          "internalType": "address",
          "name": "previousPendingOwner",
          "type": "address"
        },
        {
          "indexed": true,
          "internalType": "address",
          "name": "newPendingOwner",
          "type": "address"
        }
      ],
      "name": "PendingOwnershipTransferred",
      "type": "event"
    },
    {
      "anonymous": false,
      "inputs": [
        {
          "indexed": true,
          "internalType": "address",
          "name": "depositor",
          "type": "address"
        },
        {
          "indexed": true,
          "internalType": "bool",
          "name": "allowPulls",
          "type": "bool"
        }
      ],
      "name": "PullDepositorSet",
      "type": "event"
    },
    {
      "anonymous": false,
      "inputs": [
        {
          "indexed": true,
          "internalType": "address",
          "name": "operator",
          "type": "address"
        },
        {
          "indexed": true,
          "internalType": "address",
          "name": "from",
          "type": "address"
        },
        {
          "indexed": true,
          "internalType": "address",
          "name": "to",
          "type": "address"
        },
        {
          "indexed": false,
          "internalType": "uint256[]",
          "name": "ids",
          "type": "uint256[]"
        },
        {
          "indexed": false,
          "internalType": "uint256[]",
          "name": "values",
          "type": "uint256[]"
        }
      ],
      "name": "TransferBatch",
      "type": "event"
    },
    {
      "anonymous": false,
      "inputs": [
        {
          "indexed": true,
          "internalType": "address",
          "name": "operator",
          "type": "address"
        },
        {
          "indexed": true,
          "internalType": "address",
          "name": "from",
          "type": "address"
        },
        {
          "indexed": true,
          "internalType": "address",
          "name": "to",
          "type": "address"
        },
        {
          "indexed": false,
          "internalType": "uint256",
          "name": "id",
          "type": "uint256"
        },
        {
          "indexed": false,
          "internalType": "uint256",
          "name": "value",
          "type": "uint256"
        }
      ],
      "name": "TransferSingle",
      "type": "event"
    },
    {
      "anonymous": false,
      "inputs": [
        {
          "indexed": false,
          "internalType": "string",
          "name": "value",
          "type": "string"
        },
        {
          "indexed": true,
          "internalType": "uint256",
          "name": "id",
          "type": "uint256"
        }
      ],
      "name": "URI",
      "type": "event"
    },
    {
      "anonymous": false,
      "inputs": [
        {
          "indexed": false,
          "internalType": "string",
          "name": "oldURI",
          "type": "string"
        },
        {
          "indexed": false,
          "internalType": "string",
          "name": "newURI",
          "type": "string"
        }
      ],
      "name": "URIUpdated",
      "type": "event"
    },
    {
      "anonymous": false,
      "inputs": [
        {
          "indexed": true,
          "internalType": "address",
          "name": "user",
          "type": "address"
        }
      ],
      "name": "UserWhitelisted",
      "type": "event"
    },
    {
      "anonymous": false,
      "inputs": [
        {
          "indexed": true,
          "internalType": "uint256",
          "name": "vaultId",
          "type": "uint256"
        },
        {
          "indexed": true,
          "internalType": "contract IStrategy",
          "name": "strategy",
          "type": "address"
        },
        {
          "indexed": false,
          "internalType": "uint256",
          "name": "performanceFeeBP",
          "type": "uint256"
        }
      ],
      "name": "VaultAdded",
      "type": "event"
    },
    {
      "anonymous": false,
      "inputs": [
        {
          "indexed": true,
          "internalType": "uint256",
          "name": "vaultId",
          "type": "uint256"
        },
        {
          "indexed": false,
          "internalType": "uint256",
          "name": "underlyingIncrease",
          "type": "uint256"
        }
      ],
      "name": "VaultHarvest",
      "type": "event"
    },
    {
      "anonymous": false,
      "inputs": [
        {
          "indexed": true,
          "internalType": "uint256",
          "name": "vaultId",
          "type": "uint256"
        },
        {
          "indexed": true,
          "internalType": "contract IERC20",
          "name": "token",
          "type": "address"
        },
        {
          "indexed": true,
          "internalType": "address",
          "name": "to",
          "type": "address"
        },
        {
          "indexed": false,
          "internalType": "uint256",
          "name": "amount",
          "type": "uint256"
        }
      ],
      "name": "VaultInCaseTokenStuck",
      "type": "event"
    },
    {
      "anonymous": false,
      "inputs": [
        {
          "indexed": true,
          "internalType": "uint256",
          "name": "vaultId",
          "type": "uint256"
        }
      ],
      "name": "VaultPanicked",
      "type": "event"
    },
    {
      "anonymous": false,
      "inputs": [
        {
          "indexed": true,
          "internalType": "uint256",
          "name": "vaultId",
          "type": "uint256"
        },
        {
          "indexed": false,
          "internalType": "bool",
          "name": "paused",
          "type": "bool"
        }
      ],
      "name": "VaultPaused",
      "type": "event"
    },
    {
      "anonymous": false,
      "inputs": [
        {
          "indexed": true,
          "internalType": "uint256",
          "name": "vaultId",
          "type": "uint256"
        },
        {
          "indexed": false,
          "internalType": "uint256",
          "name": "performanceFeeBP",
          "type": "uint256"
        }
      ],
      "name": "VaultPerformanceFeeSet",
      "type": "event"
    },
    {
      "anonymous": false,
      "inputs": [
        {
          "indexed": true,
          "internalType": "uint256",
          "name": "vaultId",
          "type": "uint256"
        },
        {
          "indexed": true,
          "internalType": "address",
          "name": "user",
          "type": "address"
        },
        {
          "indexed": true,
          "internalType": "address",
          "name": "receiver",
          "type": "address"
        },
        {
          "indexed": false,
          "internalType": "uint256",
          "name": "sharesAmount",
          "type": "uint256"
        },
        {
          "indexed": false,
          "internalType": "uint256",
          "name": "underlyingAmountReceived",
          "type": "uint256"
        }
      ],
      "name": "Withdraw",
      "type": "event"
    },
    {
      "inputs": [
        {
          "internalType": "address[]",
          "name": "users",
          "type": "address[]"
        }
      ],
      "name": "addMultipleToWhitelist",
      "outputs": [],
      "stateMutability": "nonpayable",
      "type": "function"
    },
    {
      "inputs": [
        {
          "internalType": "address",
          "name": "user",
          "type": "address"
        }
      ],
      "name": "addToWhitelist",
      "outputs": [],
      "stateMutability": "nonpayable",
      "type": "function"
    },
    {
      "inputs": [
        {
          "internalType": "contract IStrategy",
          "name": "strategy",
          "type": "address"
        },
        {
          "internalType": "uint16",
          "name": "performanceFeeBP",
          "type": "uint16"
        }
      ],
      "name": "addVault",
      "outputs": [],
      "stateMutability": "nonpayable",
      "type": "function"
    },
    {
      "inputs": [
        {
          "internalType": "address",
          "name": "account",
          "type": "address"
        },
        {
          "internalType": "uint256",
          "name": "id",
          "type": "uint256"
        }
      ],
      "name": "balanceOf",
      "outputs": [
        {
          "internalType": "uint256",
          "name": "",
          "type": "uint256"
        }
      ],
      "stateMutability": "view",
      "type": "function"
    },
    {
      "inputs": [
        {
          "internalType": "address[]",
          "name": "accounts",
          "type": "address[]"
        },
        {
          "internalType": "uint256[]",
          "name": "ids",
          "type": "uint256[]"
        }
      ],
      "name": "balanceOfBatch",
      "outputs": [
        {
          "internalType": "uint256[]",
          "name": "",
          "type": "uint256[]"
        }
      ],
      "stateMutability": "view",
      "type": "function"
    },
    {
      "inputs": [
        {
          "internalType": "address",
          "name": "",
          "type": "address"
        }
      ],
      "name": "canDoPullDeposits",
      "outputs": [
        {
          "internalType": "bool",
          "name": "",
          "type": "bool"
        }
      ],
      "stateMutability": "view",
      "type": "function"
    },
    {
      "inputs": [
        {
          "internalType": "string",
          "name": "newName",
          "type": "string"
        },
        {
          "internalType": "string",
          "name": "newSymbol",
          "type": "string"
        },
        {
          "internalType": "uint8",
          "name": "newDecimals",
          "type": "uint8"
        }
      ],
      "name": "changeMetadata",
      "outputs": [],
      "stateMutability": "nonpayable",
      "type": "function"
    },
    {
      "inputs": [],
      "name": "decimals",
      "outputs": [
        {
          "internalType": "uint8",
          "name": "",
          "type": "uint8"
        }
      ],
      "stateMutability": "view",
      "type": "function"
    },
    {
      "inputs": [
        {
          "internalType": "uint256",
          "name": "_pid",
          "type": "uint256"
        },
        {
          "internalType": "uint256",
          "name": "_amount",
          "type": "uint256"
        }
      ],
      "name": "deposit",
      "outputs": [],
      "stateMutability": "nonpayable",
      "type": "function"
    },
    {
      "inputs": [
        {
          "internalType": "uint256",
          "name": "vaultId",
          "type": "uint256"
        },
        {
          "internalType": "uint256",
          "name": "underlyingAmount",
          "type": "uint256"
        },
        {
          "internalType": "bool",
          "name": "pulled",
          "type": "bool"
        },
        {
          "internalType": "uint256",
          "name": "minSharesReceived",
          "type": "uint256"
        }
      ],
      "name": "depositUnderlying",
      "outputs": [
        {
          "internalType": "uint256",
          "name": "sharesReceived",
          "type": "uint256"
        }
      ],
      "stateMutability": "nonpayable",
      "type": "function"
    },
    {
      "inputs": [
        {
          "internalType": "uint256",
          "name": "_pid",
          "type": "uint256"
        }
      ],
      "name": "emergencyWithdraw",
      "outputs": [],
      "stateMutability": "nonpayable",
      "type": "function"
    },
    {
      "inputs": [
        {
          "internalType": "uint256",
          "name": "id",
          "type": "uint256"
        }
      ],
      "name": "exists",
      "outputs": [
        {
          "internalType": "bool",
          "name": "",
          "type": "bool"
        }
      ],
      "stateMutability": "view",
      "type": "function"
    },
    {
      "inputs": [
        {
          "internalType": "uint256",
          "name": "vaultId",
          "type": "uint256"
        }
      ],
      "name": "harvest",
      "outputs": [
        {
          "internalType": "uint256",
          "name": "underlyingIncrease",
          "type": "uint256"
        }
      ],
      "stateMutability": "nonpayable",
      "type": "function"
    },
    {
      "inputs": [
        {
          "internalType": "contract IERC20",
          "name": "token",
          "type": "address"
        },
        {
          "internalType": "address",
          "name": "to",
          "type": "address"
        }
      ],
      "name": "inCaseTokensGetStuck",
      "outputs": [],
      "stateMutability": "nonpayable",
      "type": "function"
    },
    {
      "inputs": [
        {
          "internalType": "uint256",
          "name": "vaultId",
          "type": "uint256"
        },
        {
          "internalType": "contract IERC20",
          "name": "token",
          "type": "address"
        },
        {
          "internalType": "address",
          "name": "to",
          "type": "address"
        },
        {
          "internalType": "uint256",
          "name": "amount",
          "type": "uint256"
        }
      ],
      "name": "inCaseVaultTokensGetStuck",
      "outputs": [],
      "stateMutability": "nonpayable",
      "type": "function"
    },
    {
      "inputs": [
        {
          "internalType": "address",
          "name": "account",
          "type": "address"
        },
        {
          "internalType": "address",
          "name": "operator",
          "type": "address"
        }
      ],
      "name": "isApprovedForAll",
      "outputs": [
        {
          "internalType": "bool",
          "name": "",
          "type": "bool"
        }
      ],
      "stateMutability": "view",
      "type": "function"
    },
    {
      "inputs": [
        {
          "internalType": "uint256",
          "name": "vaultId",
          "type": "uint256"
        }
      ],
      "name": "isValidVault",
      "outputs": [
        {
          "internalType": "bool",
          "name": "",
          "type": "bool"
        }
      ],
      "stateMutability": "view",
      "type": "function"
    },
    {
      "inputs": [],
      "name": "name",
      "outputs": [
        {
          "internalType": "string",
          "name": "",
          "type": "string"
        }
      ],
      "stateMutability": "view",
      "type": "function"
    },
    {
      "inputs": [],
      "name": "owner",
      "outputs": [
        {
          "internalType": "address",
          "name": "",
          "type": "address"
        }
      ],
      "stateMutability": "view",
      "type": "function"
    },
    {
      "inputs": [
        {
          "internalType": "uint256",
          "name": "vaultId",
          "type": "uint256"
        }
      ],
      "name": "panicVault",
      "outputs": [],
      "stateMutability": "nonpayable",
      "type": "function"
    },
    {
      "inputs": [
        {
          "internalType": "uint256",
          "name": "vaultId",
          "type": "uint256"
        },
        {
          "internalType": "bool",
          "name": "paused",
          "type": "bool"
        }
      ],
      "name": "pauseVault",
      "outputs": [],
      "stateMutability": "nonpayable",
      "type": "function"
    },
    {
      "inputs": [],
      "name": "pendingOwner",
      "outputs": [
        {
          "internalType": "address",
          "name": "",
          "type": "address"
        }
      ],
      "stateMutability": "view",
      "type": "function"
    },
    {
      "inputs": [
        {
          "internalType": "uint256",
          "name": "vaultId",
          "type": "uint256"
        }
      ],
      "name": "poolInfo",
      "outputs": [
        {
          "internalType": "contract IERC20",
          "name": "_lpToken",
          "type": "address"
        },
        {
          "internalType": "uint256",
          "name": "_allocPoint",
          "type": "uint256"
        },
        {
          "internalType": "uint256",
          "name": "_lastRewardBlock",
          "type": "uint256"
        },
        {
          "internalType": "uint256",
          "name": "_accTokenPerShare",
          "type": "uint256"
        }
      ],
      "stateMutability": "view",
      "type": "function"
    },
    {
      "inputs": [],
      "name": "poolLength",
      "outputs": [
        {
          "internalType": "uint256",
          "name": "",
          "type": "uint256"
        }
      ],
      "stateMutability": "view",
      "type": "function"
    },
    {
      "inputs": [],
      "name": "renounceOwnership",
      "outputs": [],
      "stateMutability": "nonpayable",
      "type": "function"
    },
    {
      "inputs": [
        {
          "internalType": "address",
          "name": "from",
          "type": "address"
        },
        {
          "internalType": "address",
          "name": "to",
          "type": "address"
        },
        {
          "internalType": "uint256[]",
          "name": "ids",
          "type": "uint256[]"
        },
        {
          "internalType": "uint256[]",
          "name": "amounts",
          "type": "uint256[]"
        },
        {
          "internalType": "bytes",
          "name": "data",
          "type": "bytes"
        }
      ],
      "name": "safeBatchTransferFrom",
      "outputs": [],
      "stateMutability": "nonpayable",
      "type": "function"
    },
    {
      "inputs": [
        {
          "internalType": "address",
          "name": "from",
          "type": "address"
        },
        {
          "internalType": "address",
          "name": "to",
          "type": "address"
        },
        {
          "internalType": "uint256",
          "name": "id",
          "type": "uint256"
        },
        {
          "internalType": "uint256",
          "name": "amount",
          "type": "uint256"
        },
        {
          "internalType": "bytes",
          "name": "data",
          "type": "bytes"
        }
      ],
      "name": "safeTransferFrom",
      "outputs": [],
      "stateMutability": "nonpayable",
      "type": "function"
    },
    {
      "inputs": [
        {
          "internalType": "address",
          "name": "operator",
          "type": "address"
        },
        {
          "internalType": "bool",
          "name": "approved",
          "type": "bool"
        }
      ],
      "name": "setApprovalForAll",
      "outputs": [],
      "stateMutability": "nonpayable",
      "type": "function"
    },
    {
      "inputs": [
        {
          "internalType": "address",
          "name": "newPendingOwner",
          "type": "address"
        }
      ],
      "name": "setPendingOwner",
      "outputs": [],
      "stateMutability": "nonpayable",
      "type": "function"
    },
    {
      "inputs": [
        {
          "internalType": "address",
          "name": "pullDepositor",
          "type": "address"
        },
        {
          "internalType": "bool",
          "name": "isAllowed",
          "type": "bool"
        }
      ],
      "name": "setPullDepositor",
      "outputs": [],
      "stateMutability": "nonpayable",
      "type": "function"
    },
    {
      "inputs": [
        {
          "internalType": "string",
          "name": "newURI",
          "type": "string"
        }
      ],
      "name": "setURI",
      "outputs": [],
      "stateMutability": "nonpayable",
      "type": "function"
    },
    {
      "inputs": [
        {
          "internalType": "uint256",
          "name": "vaultId",
          "type": "uint256"
        },
        {
          "internalType": "uint16",
          "name": "performanceFeeBP",
          "type": "uint16"
        }
      ],
      "name": "setVault",
      "outputs": [],
      "stateMutability": "nonpayable",
      "type": "function"
    },
    {
      "inputs": [],
      "name": "startBlock",
      "outputs": [
        {
          "internalType": "uint256",
          "name": "",
          "type": "uint256"
        }
      ],
      "stateMutability": "view",
      "type": "function"
    },
    {
      "inputs": [
        {
          "internalType": "contract IStrategy",
          "name": "",
          "type": "address"
        }
      ],
      "name": "strategyExists",
      "outputs": [
        {
          "internalType": "bool",
          "name": "",
          "type": "bool"
        }
      ],
      "stateMutability": "view",
      "type": "function"
    },
    {
      "inputs": [
        {
          "internalType": "contract IStrategy",
          "name": "",
          "type": "address"
        }
      ],
      "name": "strategyVaultId",
      "outputs": [
        {
          "internalType": "uint256",
          "name": "",
          "type": "uint256"
        }
      ],
      "stateMutability": "view",
      "type": "function"
    },
    {
      "inputs": [
        {
          "internalType": "bytes4",
          "name": "interfaceId",
          "type": "bytes4"
        }
      ],
      "name": "supportsInterface",
      "outputs": [
        {
          "internalType": "bool",
          "name": "",
          "type": "bool"
        }
      ],
      "stateMutability": "view",
      "type": "function"
    },
    {
      "inputs": [],
      "name": "symbol",
      "outputs": [
        {
          "internalType": "string",
          "name": "",
          "type": "string"
        }
      ],
      "stateMutability": "view",
      "type": "function"
    },
    {
      "inputs": [],
      "name": "totalAllocPoint",
      "outputs": [
        {
          "internalType": "uint256",
          "name": "",
          "type": "uint256"
        }
      ],
      "stateMutability": "view",
      "type": "function"
    },
    {
      "inputs": [
        {
          "internalType": "uint256",
          "name": "id",
          "type": "uint256"
        }
      ],
      "name": "totalSupply",
      "outputs": [
        {
          "internalType": "uint256",
          "name": "",
          "type": "uint256"
        }
      ],
      "stateMutability": "view",
      "type": "function"
    },
    {
      "inputs": [
        {
          "internalType": "uint256",
          "name": "vaultId",
          "type": "uint256"
        }
      ],
      "name": "totalUnderlying",
      "outputs": [
        {
          "internalType": "uint256",
          "name": "",
          "type": "uint256"
        }
      ],
      "stateMutability": "view",
      "type": "function"
    },
    {
      "inputs": [],
      "name": "transferOwnership",
      "outputs": [],
      "stateMutability": "nonpayable",
      "type": "function"
    },
    {
      "inputs": [
        {
          "internalType": "uint256",
          "name": "",
          "type": "uint256"
        }
      ],
      "name": "uri",
      "outputs": [
        {
          "internalType": "string",
          "name": "",
          "type": "string"
        }
      ],
      "stateMutability": "view",
      "type": "function"
    },
    {
      "inputs": [
        {
          "internalType": "uint256",
          "name": "vaultId",
          "type": "uint256"
        },
        {
          "internalType": "address",
          "name": "user",
          "type": "address"
        }
      ],
      "name": "userInfo",
      "outputs": [
        {
          "internalType": "uint256",
          "name": "_amount",
          "type": "uint256"
        },
        {
          "internalType": "uint256",
          "name": "_rewardDebt",
          "type": "uint256"
        }
      ],
      "stateMutability": "view",
      "type": "function"
    },
    {
      "inputs": [
        {
          "internalType": "uint256",
          "name": "vaultId",
          "type": "uint256"
        }
      ],
      "name": "vaultInfo",
      "outputs": [
        {
          "components": [
            {
              "internalType": "contract IERC20",
              "name": "underlyingToken",
              "type": "address"
            },
            {
              "internalType": "uint96",
              "name": "lastHarvestTimestamp",
              "type": "uint96"
            },
            {
              "internalType": "contract IStrategy",
              "name": "strategy",
              "type": "address"
            },
            {
              "internalType": "uint16",
              "name": "performanceFeeBP",
              "type": "uint16"
            },
            {
              "internalType": "bool",
              "name": "paused",
              "type": "bool"
            },
            {
              "internalType": "bool",
              "name": "panicked",
              "type": "bool"
            }
          ],
          "internalType": "struct IVaultChefCore.Vault",
          "name": "",
          "type": "tuple"
        }
      ],
      "stateMutability": "view",
      "type": "function"
    },
    {
      "inputs": [
        {
          "internalType": "uint256",
          "name": "",
          "type": "uint256"
        }
      ],
      "name": "whitelist",
      "outputs": [
        {
          "internalType": "address",
          "name": "",
          "type": "address"
        }
      ],
      "stateMutability": "view",
      "type": "function"
    },
    {
      "inputs": [],
      "name": "whitelistLength",
      "outputs": [
        {
          "internalType": "uint256",
          "name": "",
          "type": "uint256"
        }
      ],
      "stateMutability": "view",
      "type": "function"
    },
    {
      "inputs": [
        {
          "internalType": "address",
          "name": "",
          "type": "address"
        }
      ],
      "name": "whitelisted",
      "outputs": [
        {
          "internalType": "bool",
          "name": "",
          "type": "bool"
        }
      ],
      "stateMutability": "view",
      "type": "function"
    },
    {
      "inputs": [
        {
          "internalType": "uint256",
          "name": "_pid",
          "type": "uint256"
        },
        {
          "internalType": "uint256",
          "name": "_amount",
          "type": "uint256"
        }
      ],
      "name": "withdraw",
      "outputs": [],
      "stateMutability": "nonpayable",
      "type": "function"
    },
    {
      "inputs": [
        {
          "internalType": "uint256",
          "name": "vaultId",
          "type": "uint256"
        },
        {
          "internalType": "uint256",
          "name": "shares",
          "type": "uint256"
        },
        {
          "internalType": "uint256",
          "name": "minUnderlyingReceived",
          "type": "uint256"
        }
      ],
      "name": "withdrawShares",
      "outputs": [
        {
          "internalType": "uint256",
          "name": "underlyingReceived",
          "type": "uint256"
        }
      ],
      "stateMutability": "nonpayable",
      "type": "function"
    },
    {
      "inputs": [
        {
          "internalType": "uint256",
          "name": "vaultId",
          "type": "uint256"
        },
        {
          "internalType": "uint256",
          "name": "shares",
          "type": "uint256"
        },
        {
          "internalType": "uint256",
          "name": "minUnderlyingReceived",
          "type": "uint256"
        },
        {
          "internalType": "address",
          "name": "to",
          "type": "address"
        }
      ],
      "name": "withdrawSharesTo",
      "outputs": [
        {
          "internalType": "uint256",
          "name": "underlyingReceived",
          "type": "uint256"
        }
      ],
      "stateMutability": "nonpayable",
      "type": "function"
    }
  ],
  "transactionHash": "0x9904f75a7e4940ba233cde1be547a46cd9be66394775866f39e390aacf3c1e24",
  "args": [
    "0xa66745F0092F7460F107E4c66C224553bF4Cd727"
  ],
  "solcInputHash": "2f5620570b3b65fa68435f7d2a101c49",
  "bytecode": "0x60e0604052601460a08190527f56696f6c696e205661756c74205265636569707400000000000000000000000060c090815262000040916009919062000283565b50604080518082019091526006808252651d95985d5b1d60d21b60209092019182526200007091600a9162000283565b50600b805460ff191660121790553480156200008b57600080fd5b50604051620061e3380380620061e3833981016040819052620000ae9162000329565b806040518060600160405280602b8152602001620061b8602b9139620000d48162000113565b50620000e0336200012c565b600160065543608052620000f4816200012c565b50620001003062000189565b6200010c600062000189565b5062000398565b80516200012890600290602084019062000283565b5050565b600480546001600160a01b038381166001600160a01b03198084168217909455600580549094169093556040519116919082907f8be0079c531659141344cd1fd0a4f28419497f9722a3daafe3b4186f6b6457e090600090a35050565b6001600160a01b0381166000908152600f602052604090205460ff1615620001f75760405162461bcd60e51b815260206004820152601460248201527f21616c72656164792077686974656c6973746564000000000000000000000000604482015260640160405180910390fd5b6001600160a01b0381166000818152600f6020526040808220805460ff1916600190811790915560108054918201815583527f1b6847dc741a1b0cd08d278845f9d819d87b734759afb55fe2de5cb82a9ae6720180546001600160a01b03191684179055517f7409cb8e690bcd1487fd4fd27dad3fa92388d201ba6f953631d6d6b26299f8499190a250565b82805462000291906200035b565b90600052602060002090601f016020900481019282620002b5576000855562000300565b82601f10620002d057805160ff191683800117855562000300565b8280016001018555821562000300579182015b8281111562000300578251825591602001919060010190620002e3565b506200030e92915062000312565b5090565b5b808211156200030e576000815560010162000313565b6000602082840312156200033c57600080fd5b81516001600160a01b03811681146200035457600080fd5b9392505050565b600181811c908216806200037057607f821691505b602082108114156200039257634e487b7160e01b600052602260045260246000fd5b50919050565b608051615e04620003b460003960006104cc0152615e046000f3fe608060405234801561001057600080fd5b50600436106103355760003560e01c806378bb5164116101b2578063bd85b039116100f9578063ddc63262116100a2578063e3f62d5d1161007c578063e3f62d5d146107ad578063e43252d7146107d0578063e985e9c5146107e3578063f242432a1461081f57600080fd5b8063ddc6326214610774578063e2bbb15814610787578063e30c39781461079a57600080fd5b8063ce192fc9116100d3578063ce192fc91461072b578063d23c437f1461073e578063d936547e1461075157600080fd5b8063bd85b039146106f2578063c42069ec14610705578063cde3d5f11461071857600080fd5b8063929060d81161015b578063a049657011610135578063a0496570146106b7578063a22cb465146106ca578063b5da3a38146106dd57600080fd5b8063929060d81461060557806393f1a40b1461068757806395d89b41146106af57600080fd5b80638401f8d11161018c5780638401f8d1146105d9578063880ad0af146105ec5780638da5cb5b146105f457600080fd5b806378bb5164146105865780637ae3780d1461058e5780637ebd1b30146105ae57600080fd5b8063313ce567116102815780634b30b4221161022a5780635312ea8e116102045780635312ea8e1461054557806364ee87de14610558578063661ac7b11461056b578063715018a61461057e57600080fd5b80634b30b422146104f05780634e1273f4146105035780634f558e791461052357600080fd5b806341f3b9961161025b57806341f3b996146104a4578063441a3e70146104b757806348cd4cb1146104ca57600080fd5b8063313ce56714610459578063324625861461046e57806332bccfb21461048157600080fd5b80631526fe27116102e35780631939bbc1116102bd5780631939bbc114610420578063215f5c66146104335780632eb2c2d61461044657600080fd5b80631526fe27146103c857806317caf6f114610405578063181eeb2c1461040d57600080fd5b806306fdde031161031457806306fdde0314610398578063081e3eda146103ad5780630e89341c146103b557600080fd5b8062fdd58e1461033a57806301ffc9a71461036057806302fe530514610383575b600080fd5b61034d6103483660046154b7565b610832565b6040519081526020015b60405180910390f35b61037361036e366004615648565b6108db565b6040519015158152602001610357565b6103966103913660046156d4565b610978565b005b6103a0610a14565b6040516103579190615aa9565b60075461034d565b6103a06103c336600461578f565b610aa6565b6103db6103d636600461578f565b610b3a565b604080516001600160a01b0390951685526020850193909352918301526060820152608001610357565b600c5461034d565b61034d61041b3660046158bc565b610c04565b61039661042e366004615339565b610c6b565b610396610441366004615711565b610e1e565b610396610454366004615372565b610ede565b600b5460405160ff9091168152602001610357565b61034d61047c3660046158eb565b610f3d565b61037361048f36600461531c565b60086020526000908152604090205460ff1681565b6103966104b2366004615489565b610fa4565b6103966104c5366004615876565b6110e3565b7f000000000000000000000000000000000000000000000000000000000000000061034d565b6103966104fe36600461578f565b611143565b610516610511366004615558565b611361565b6040516103579190615a71565b61037361053136600461578f565b600090815260036020526040902054151590565b61039661055336600461578f565b61149f565b6103966105663660046157e6565b6114fd565b61034d610579366004615917565b6115de565b6103966116a4565b60105461034d565b61034d61059c36600461531c565b600e6020526000908152604090205481565b6105c16105bc36600461578f565b6116f8565b6040516001600160a01b039091168152602001610357565b6103966105e73660046154e3565b611722565b6103966117bb565b6004546001600160a01b03166105c1565b61061861061336600461578f565b6118d7565b6040516103579190600060c0820190506001600160a01b038084511683526bffffffffffffffffffffffff60208501511660208401528060408501511660408401525061ffff606084015116606083015260808301511515608083015260a0830151151560a083015292915050565b61069a6106953660046157c1565b6119ee565b60408051928352602083019190915201610357565b6103a0611b18565b61034d6106c536600461578f565b611b27565b6103966106d8366004615489565b611c05565b6103736106eb36600461578f565b6007541190565b61034d61070036600461578f565b611c10565b61039661071336600461531c565b611c24565b610396610726366004615853565b611ccb565b61039661073936600461569f565b611e7b565b61039661074c36600461580b565b611f3f565b61037361075f36600461531c565b600f6020526000908152604090205460ff1681565b61034d61078236600461578f565b612379565b610396610795366004615876565b6123d9565b6005546105c1906001600160a01b031681565b6103736107bb36600461531c565b600d6020526000908152604090205460ff1681565b6103966107de36600461531c565b612435565b6103736107f1366004615339565b6001600160a01b03918216600090815260016020908152604080832093909416825291909152205460ff1690565b61039661082d366004615420565b612486565b60006001600160a01b0383166108b55760405162461bcd60e51b815260206004820152602b60248201527f455243313135353a2062616c616e636520717565727920666f7220746865207a60448201527f65726f206164647265737300000000000000000000000000000000000000000060648201526084015b60405180910390fd5b506000908152602081815260408083206001600160a01b03949094168352929052205490565b60006001600160e01b031982167fd9b67a2600000000000000000000000000000000000000000000000000000000148061093e57506001600160e01b031982167f0e89341c00000000000000000000000000000000000000000000000000000000145b8061097257507f01ffc9a7000000000000000000000000000000000000000000000000000000006001600160e01b03198316145b92915050565b6004546001600160a01b031633146109c05760405162461bcd60e51b81526020600482018190526024820152600080516020615daf83398151915260448201526064016108ac565b60006109cc6000610aa6565b90506109d7826124d9565b7f927a41e440ce6a96781dbee2e5693388ce49325e4729d62114f699d43dea385e8183604051610a08929190615abc565b60405180910390a15050565b606060098054610a2390615bda565b80601f0160208091040260200160405190810160405280929190818152602001828054610a4f90615bda565b8015610a9c5780601f10610a7157610100808354040283529160200191610a9c565b820191906000526020600020905b815481529060010190602001808311610a7f57829003601f168201915b5050505050905090565b606060028054610ab590615bda565b80601f0160208091040260200160405190810160405280929190818152602001828054610ae190615bda565b8015610b2e5780601f10610b0357610100808354040283529160200191610b2e565b820191906000526020600020905b815481529060010190602001808311610b1157829003601f168201915b50505050509050919050565b600080600080846007805490508110610b815760405162461bcd60e51b8152602060048201526009602482015268085b9bc81d985d5b1d60ba1b60448201526064016108ac565b600060078781548110610b9657610b96615c83565b906000526020600020906002020160010160169054906101000a900460ff16610bc0576001610bc3565b60005b60ff16905060078781548110610bdb57610bdb615c83565b60009182526020822060029190910201546001600160a01b031698919750955085945092505050565b336000908152600f602052604081205460ff16610c565760405162461bcd60e51b815260206004820152601060248201526f085b9bdd081dda1a5d195b1a5cdd195960821b60448201526064016108ac565b610c62858585856124ec565b95945050505050565b6004546001600160a01b03163314610cb35760405162461bcd60e51b81526020600482018190526024820152600080516020615daf83398151915260448201526064016108ac565b60026006541415610cf45760405162461bcd60e51b815260206004820152601f6024820152600080516020615d8f83398151915260448201526064016108ac565b60026006556001600160a01b038116610d375760405162461bcd60e51b8152602060048201526005602482015264217a65726f60d81b60448201526064016108ac565b6040516370a0823160e01b81523060048201526000906001600160a01b038416906370a082319060240160206040518083038186803b158015610d7957600080fd5b505afa158015610d8d573d6000803e3d6000fd5b505050506040513d601f19601f82011682018060405250810190610db191906157a8565b9050610dc76001600160a01b038416838361299c565b816001600160a01b0316836001600160a01b03167f3efa79200d9ba2e6620549e323094ea02cd2ce4643d5a9848300fdfc73cc6bf083604051610e0c91815260200190565b60405180910390a35050600160065550565b6004546001600160a01b03163314610e665760405162461bcd60e51b81526020600482018190526024820152600080516020615daf83398151915260448201526064016108ac565b8251610e79906009906020860190615186565b508151610e8d90600a906020850190615186565b50600b805460ff191660ff83161790556040517ffd39229047c7bff3f4fe35a03235de35468c3a40c81742e06df54b7d8c0b69e290610ed190859085908590615ae1565b60405180910390a1505050565b60026006541415610f1f5760405162461bcd60e51b815260206004820152601f6024820152600080516020615d8f83398151915260448201526064016108ac565b6002600655610f318585858585612a2d565b50506001600655505050565b336000908152600f602052604081205460ff16610f8f5760405162461bcd60e51b815260206004820152601060248201526f085b9bdd081dda1a5d195b1a5cdd195960821b60448201526064016108ac565b610f9a848484612acf565b90505b9392505050565b6004546001600160a01b03163314610fec5760405162461bcd60e51b81526020600482018190526024820152600080516020615daf83398151915260448201526064016108ac565b6002600654141561102d5760405162461bcd60e51b815260206004820152601f6024820152600080516020615d8f83398151915260448201526064016108ac565b60026006556001600160a01b03821660009081526008602052604090205460ff161515811515141561108a5760405162461bcd60e51b81526004016108ac90602080825260049082015263085cd95d60e21b604082015260600190565b6001600160a01b038216600081815260086020526040808220805460ff191685151590811790915590519092917f7b37e6ccec64f609193fb5822b7e7327dacd6df08d00fc79d2170614aedc5e4891a350506001600655565b336000908152600f602052604090205460ff166111355760405162461bcd60e51b815260206004820152601060248201526f085b9bdd081dda1a5d195b1a5cdd195960821b60448201526064016108ac565b61113f8282612d13565b5050565b6004546001600160a01b0316331461118b5760405162461bcd60e51b81526020600482018190526024820152600080516020615daf83398151915260448201526064016108ac565b600754819081106111ca5760405162461bcd60e51b8152602060048201526009602482015268085b9bc81d985d5b1d60ba1b60448201526064016108ac565b6002600654141561120b5760405162461bcd60e51b815260206004820152601f6024820152600080516020615d8f83398151915260448201526064016108ac565b600260068190555060006007838154811061122857611228615c83565b906000526020600020906002020190508060010160179054906101000a900460ff16156112835760405162461bcd60e51b8152602060048201526009602482015268085c185b9a58dad95960ba1b60448201526064016108ac565b6001810154600160b01b900460ff166112a1576112a1836001612e76565b60018101805460ff60b81b198116600160b81b17909155604080517f4700d30500000000000000000000000000000000000000000000000000000000815290516001600160a01b0390921691634700d3059160048082019260009290919082900301818387803b15801561131457600080fd5b505af1158015611328573d6000803e3d6000fd5b50506040518592507f7d92b43e7c53a09f584f40d37dd9c01e5efa719c4765332eb18a7b636c9784099150600090a25050600160065550565b606081518351146113da5760405162461bcd60e51b815260206004820152602960248201527f455243313135353a206163636f756e747320616e6420696473206c656e67746860448201527f206d69736d61746368000000000000000000000000000000000000000000000060648201526084016108ac565b6000835167ffffffffffffffff8111156113f6576113f6615c99565b60405190808252806020026020018201604052801561141f578160200160208202803683370190505b50905060005b84518110156114975761146a85828151811061144357611443615c83565b602002602001015185838151811061145d5761145d615c83565b6020026020010151610832565b82828151811061147c5761147c615c83565b602090810291909101015261149081615c3c565b9050611425565b509392505050565b336000908152600f602052604090205460ff166114f15760405162461bcd60e51b815260206004820152601060248201526f085b9bdd081dda1a5d195b1a5cdd195960821b60448201526064016108ac565b6114fa81612f2b565b50565b6004546001600160a01b031633146115455760405162461bcd60e51b81526020600482018190526024820152600080516020615daf83398151915260448201526064016108ac565b600754829081106115845760405162461bcd60e51b8152602060048201526009602482015268085b9bc81d985d5b1d60ba1b60448201526064016108ac565b600260065414156115c55760405162461bcd60e51b815260206004820152601f6024820152600080516020615d8f83398151915260448201526064016108ac565b60026006556115d48383612e76565b5050600160065550565b336000908152600f602052604081205460ff166116305760405162461bcd60e51b815260206004820152601060248201526f085b9bdd081dda1a5d195b1a5cdd195960821b60448201526064016108ac565b6001600160a01b0382166000908152600f602052604090205460ff166116985760405162461bcd60e51b815260206004820152601360248201527f21746f206e6f742077686974656c69737465640000000000000000000000000060448201526064016108ac565b610c6285858585612f8a565b6004546001600160a01b031633146116ec5760405162461bcd60e51b81526020600482018190526024820152600080516020615daf83398151915260448201526064016108ac565b6116f6600061321d565b565b6010818154811061170857600080fd5b6000918252602090912001546001600160a01b0316905081565b6004546001600160a01b0316331461176a5760405162461bcd60e51b81526020600482018190526024820152600080516020615daf83398151915260448201526064016108ac565b60005b818110156117b6576117a483838381811061178a5761178a615c83565b905060200201602081019061179f919061531c565b613287565b806117ae81615c3c565b91505061176d565b505050565b6005546001600160a01b0316336001600160a01b0316146118445760405162461bcd60e51b815260206004820152602760248201527f4f776e61626c653a2063616c6c6572206973206e6f74207468652070656e646960448201527f6e674f776e65720000000000000000000000000000000000000000000000000060648201526084016108ac565b6005546001600160a01b03166118c25760405162461bcd60e51b815260206004820152602660248201527f4f776e61626c653a206e6577206f776e657220697320746865207a65726f206160448201527f646472657373000000000000000000000000000000000000000000000000000060648201526084016108ac565b6005546116f6906001600160a01b031661321d565b6040805160c081018252600080825260208201819052918101829052606081018290526080810182905260a0810191909152600754829081106119485760405162461bcd60e51b8152602060048201526009602482015268085b9bc81d985d5b1d60ba1b60448201526064016108ac565b6007838154811061195b5761195b615c83565b60009182526020918290206040805160c081018252600290930290910180546001600160a01b0380821685526bffffffffffffffffffffffff600160a01b9283900416958501959095526001909101549384169183019190915261ffff90830416606082015260ff600160b01b8304811615156080830152600160b81b909204909116151560a082015291505b50919050565b600080836007805490508110611a325760405162461bcd60e51b8152602060048201526009602482015268085b9bc81d985d5b1d60ba1b60448201526064016108ac565b6000611a3d86611c10565b905060008115611b075781611a528789610832565b60078981548110611a6557611a65615c83565b600091825260209182902060016002909202010154604080516331c2482f60e21b815290516001600160a01b039092169263c70920bc92600480840193829003018186803b158015611ab657600080fd5b505afa158015611aca573d6000803e3d6000fd5b505050506040513d601f19601f82011682018060405250810190611aee91906157a8565b611af89190615b78565b611b029190615b56565b611b0a565b60005b976000975095505050505050565b6060600a8054610a2390615bda565b60075460009082908110611b695760405162461bcd60e51b8152602060048201526009602482015268085b9bc81d985d5b1d60ba1b60448201526064016108ac565b60078381548110611b7c57611b7c615c83565b600091825260209182902060016002909202010154604080516331c2482f60e21b815290516001600160a01b039092169263c70920bc92600480840193829003018186803b158015611bcd57600080fd5b505afa158015611be1573d6000803e3d6000fd5b505050506040513d601f19601f82011682018060405250810190610f9d91906157a8565b61113f338383613389565b600081815260036020526040812054610972565b6004546001600160a01b03163314611c6c5760405162461bcd60e51b81526020600482018190526024820152600080516020615daf83398151915260448201526064016108ac565b600580546001600160a01b0383811673ffffffffffffffffffffffffffffffffffffffff19831681179093556040519116919082907f1e1c2f9f5b763f63f56cae5a9a406c263521f324917ae0fe29e5cf9955e81ec890600090a35050565b6004546001600160a01b03163314611d135760405162461bcd60e51b81526020600482018190526024820152600080516020615daf83398151915260448201526064016108ac565b60075482908110611d525760405162461bcd60e51b8152602060048201526009602482015268085b9bc81d985d5b1d60ba1b60448201526064016108ac565b60026006541415611d935760405162461bcd60e51b815260206004820152601f6024820152600080516020615d8f83398151915260448201526064016108ac565b60026006556103e861ffff83161115611dd75760405162461bcd60e51b8152602060048201526006602482015265085d985b1a5960d21b60448201526064016108ac565b600060078481548110611dec57611dec615c83565b6000918252602091829020600291909102016001810180547fffffffffffffffffffff0000ffffffffffffffffffffffffffffffffffffffff16600160a01b61ffff88169081029190911790915560405190815290925085917ff02ed140436d9ffdae9753b8b5eee795873d3949a4d17379ee696f5ed324da4d910160405180910390a2505060016006555050565b6001600160a01b0382166000908152600d602052604090205460ff1615611ee45760405162461bcd60e51b815260206004820152600760248201527f216578697374730000000000000000000000000000000000000000000000000060448201526064016108ac565b6001600160a01b0382166000908152600d60209081526040808320805460ff19166001908117909155600754600e90935290832091909155600c805491929091611f2f908490615b3e565b9091555061113f9050828261347e565b6004546001600160a01b03163314611f875760405162461bcd60e51b81526020600482018190526024820152600080516020615daf83398151915260448201526064016108ac565b60075484908110611fc65760405162461bcd60e51b8152602060048201526009602482015268085b9bc81d985d5b1d60ba1b60448201526064016108ac565b600260065414156120075760405162461bcd60e51b815260206004820152601f6024820152600080516020615d8f83398151915260448201526064016108ac565b60026006819055508460006007828154811061202557612025615c83565b600091825260208083206040805160c08101825260029490940290910180546001600160a01b038082168652600160a01b918290046bffffffffffffffffffffffff168686015260019092015491821685840181905290820461ffff166060860152600160b01b820460ff90811615156080870152600160b81b909204909116151560a085015281516331c2482f60e21b815291519395509263c70920bc92600480840193919291829003018186803b1580156120e157600080fd5b505afa1580156120f5573d6000803e3d6000fd5b505050506040513d601f19601f8201168201806040525081019061211991906157a8565b90506001600160a01b0386166121595760405162461bcd60e51b8152602060048201526005602482015264217a65726f60d81b60448201526064016108ac565b60006007898154811061216e5761216e615c83565b6000918252602090912060029091020180549091506001600160a01b03898116911614156121de5760405162461bcd60e51b815260206004820152600b60248201527f21756e6465726c79696e6700000000000000000000000000000000000000000060448201526064016108ac565b60018101546040517f67206d400000000000000000000000000000000000000000000000000000000081526001600160a01b038a81166004830152602482018990528981166044830152909116906367206d4090606401600060405180830381600087803b15801561224f57600080fd5b505af1158015612263573d6000803e3d6000fd5b50505050866001600160a01b0316886001600160a01b03168a7f972618f3b15dd25e2724d45b15a9b96facf12fe259754132d6d57678793af900896040516122ad91815260200190565b60405180910390a450600082604001516001600160a01b031663c70920bc6040518163ffffffff1660e01b815260040160206040518083038186803b1580156122f557600080fd5b505afa158015612309573d6000803e3d6000fd5b505050506040513d601f19601f8201168201806040525081019061232d91906157a8565b9050818110156123695760405162461bcd60e51b815260206004820152600760248201526621756e7361666560c81b60448201526064016108ac565b5050600160065550505050505050565b336000908152600f602052604081205460ff166123cb5760405162461bcd60e51b815260206004820152601060248201526f085b9bdd081dda1a5d195b1a5cdd195960821b60448201526064016108ac565b61097282613728565b919050565b336000908152600f602052604090205460ff1661242b5760405162461bcd60e51b815260206004820152601060248201526f085b9bdd081dda1a5d195b1a5cdd195960821b60448201526064016108ac565b61113f828261382f565b6004546001600160a01b0316331461247d5760405162461bcd60e51b81526020600482018190526024820152600080516020615daf83398151915260448201526064016108ac565b6114fa81613287565b600260065414156124c75760405162461bcd60e51b815260206004820152601f6024820152600080516020615d8f83398151915260448201526064016108ac565b6002600655610f31858585858561383c565b805161113f906002906020840190615186565b6007546000908590811061252e5760405162461bcd60e51b8152602060048201526009602482015268085b9bc81d985d5b1d60ba1b60448201526064016108ac565b6002600654141561256f5760405162461bcd60e51b815260206004820152601f6024820152600080516020615d8f83398151915260448201526064016108ac565b600260065561257d866138d7565b5060006007878154811061259357612593615c83565b60009182526020918290206040805160c081018252600290930290910180546001600160a01b0380821685526bffffffffffffffffffffffff600160a01b9283900416958501959095526001909101549384169183019190915261ffff90830416606082015260ff600160b01b830481161580156080840152600160b81b90930416151560a082015291506126545760405162461bcd60e51b8152602060048201526007602482015266085c185d5cd95960ca1b60448201526064016108ac565b600061265f88611c10565b905060008083604001516001600160a01b031663432b05cc6040518163ffffffff1660e01b8152600401604080518083038186803b1580156126a057600080fd5b505afa1580156126b4573d6000803e3d6000fd5b505050506040513d601f19601f820116820180604052508101906126d89190615898565b915091506126f0846000015185604001518b8b613b59565b60408086015190517fb6b55f2500000000000000000000000000000000000000000000000000000000815260048101839052919a506001600160a01b03169063b6b55f2590602401600060405180830381600087803b15801561275257600080fd5b505af1158015612766573d6000803e3d6000fd5b5050505060008085604001516001600160a01b031663432b05cc6040518163ffffffff1660e01b8152600401604080518083038186803b1580156127a957600080fd5b505afa1580156127bd573d6000803e3d6000fd5b505050506040513d601f19601f820116820180604052508101906127e19190615898565b90925090506127f08382615b97565b9a506000851580159061280257508415155b61280c578b612821565b84612817878e615b78565b6128219190615b56565b905061283e338e8360405180602001604052806000815250613d69565b6128478d611c10565b6128519086615b78565b61285b8785615b78565b101580612866575085155b61287257612872615c57565b6e01ed09bead87c0378d8e64000000008311156128bb5760405162461bcd60e51b815260206004820152600760248201526621756e7361666560c81b60448201526064016108ac565b8981101561290b5760405162461bcd60e51b815260206004820152601160248201527f216d696e206e6f7420726563656976656400000000000000000000000000000060448201526064016108ac565b6000811161294a5760405162461bcd60e51b815260206004820152600c60248201526b217a65726f2073686172657360a01b60448201526064016108ac565b60408051828152602081018e905233918f917fd36a2f67d06d285786f61a32b052b9ace6b0b7abef5177b54358abdc83a0b69b910160405180910390a360016006559c9b505050505050505050505050565b6040516001600160a01b0383166024820152604481018290526117b69084907fa9059cbb00000000000000000000000000000000000000000000000000000000906064015b60408051601f198184030181529190526020810180517bffffffffffffffffffffffffffffffffffffffffffffffffffffffff166001600160e01b031990931692909217909152613e8e565b6001600160a01b038516331480612a495750612a4985336107f1565b612abb5760405162461bcd60e51b815260206004820152603260248201527f455243313135353a207472616e736665722063616c6c6572206973206e6f742060448201527f6f776e6572206e6f7220617070726f766564000000000000000000000000000060648201526084016108ac565b612ac88585858585613f73565b5050505050565b60075460009084908110612b115760405162461bcd60e51b8152602060048201526009602482015268085b9bc81d985d5b1d60ba1b60448201526064016108ac565b846000612b1d82611c10565b9050600060078381548110612b3457612b34615c83565b906000526020600020906002020160010160009054906101000a90046001600160a01b031690506000816001600160a01b031663c70920bc6040518163ffffffff1660e01b815260040160206040518083038186803b158015612b9657600080fd5b505afa158015612baa573d6000803e3d6000fd5b505050506040513d601f19601f82011682018060405250810190612bce91906157a8565b905060026006541415612c115760405162461bcd60e51b815260206004820152601f6024820152600080516020615d8f83398151915260448201526064016108ac565b6002600655612c22898989336141ec565b9550600160065582612c3657505050612d0a565b6000826001600160a01b031663c70920bc6040518163ffffffff1660e01b815260040160206040518083038186803b158015612c7157600080fd5b505afa158015612c85573d6000803e3d6000fd5b505050506040513d601f19601f82011682018060405250810190612ca991906157a8565b90506000612cb686611c10565b9050612cc28184615b78565b612ccc8684615b78565b1015612d045760405162461bcd60e51b815260206004820152600760248201526621756e7361666560c81b60448201526064016108ac565b50505050505b50509392505050565b60075482908110612d525760405162461bcd60e51b8152602060048201526009602482015268085b9bc81d985d5b1d60ba1b60448201526064016108ac565b600060078481548110612d6757612d67615c83565b600091825260209182902060016002909202010154604080516331c2482f60e21b815290516001600160a01b039092169263c70920bc92600480840193829003018186803b158015612db857600080fd5b505afa158015612dcc573d6000803e3d6000fd5b505050506040513d601f19601f82011682018060405250810190612df091906157a8565b905080612e3f5760405162461bcd60e51b815260206004820152600660248201527f21656d707479000000000000000000000000000000000000000000000000000060448201526064016108ac565b60008184612e4c87611c10565b612e569190615b78565b612e609190615b56565b9050612e6e85826000610f3d565b505050505050565b60078281548110612e8957612e89615c83565b906000526020600020906002020160010160169054906101000a900460ff1615158115151415612ee45760405162461bcd60e51b81526004016108ac90602080825260049082015263085cd95d60e21b604082015260600190565b8015612f08576001600c6000828254612efd9190615b97565b90915550612f219050565b6001600c6000828254612f1b9190615b3e565b90915550505b61113f82826145f0565b60075481908110612f6a5760405162461bcd60e51b8152602060048201526009602482015268085b9bc81d985d5b1d60ba1b60448201526064016108ac565b6000612f763384610832565b9050612f8483826000610f3d565b50505050565b60075460009085908110612fcc5760405162461bcd60e51b8152602060048201526009602482015268085b9bc81d985d5b1d60ba1b60448201526064016108ac565b856000612fd882611c10565b9050600060078381548110612fef57612fef615c83565b906000526020600020906002020160010160009054906101000a90046001600160a01b031690506000816001600160a01b031663c70920bc6040518163ffffffff1660e01b815260040160206040518083038186803b15801561305157600080fd5b505afa158015613065573d6000803e3d6000fd5b505050506040513d601f19601f8201168201806040525081019061308991906157a8565b9050600260065414156130cc5760405162461bcd60e51b815260206004820152601f6024820152600080516020615d8f83398151915260448201526064016108ac565b6002600655333b61311f5760405162461bcd60e51b815260206004820152600c60248201527f21746f207068697368696e67000000000000000000000000000000000000000060448201526064016108ac565b61312b8a8a8a8a6141ec565b955060016006558261313f57505050613213565b6000826001600160a01b031663c70920bc6040518163ffffffff1660e01b815260040160206040518083038186803b15801561317a57600080fd5b505afa15801561318e573d6000803e3d6000fd5b505050506040513d601f19601f820116820180604052508101906131b291906157a8565b905060006131bf86611c10565b90506131cb8184615b78565b6131d58684615b78565b101561320d5760405162461bcd60e51b815260206004820152600760248201526621756e7361666560c81b60448201526064016108ac565b50505050505b5050949350505050565b600480546001600160a01b0383811673ffffffffffffffffffffffffffffffffffffffff198084168217909455600580549094169093556040519116919082907f8be0079c531659141344cd1fd0a4f28419497f9722a3daafe3b4186f6b6457e090600090a35050565b6001600160a01b0381166000908152600f602052604090205460ff16156132f05760405162461bcd60e51b815260206004820152601460248201527f21616c72656164792077686974656c697374656400000000000000000000000060448201526064016108ac565b6001600160a01b0381166000818152600f6020526040808220805460ff1916600190811790915560108054918201815583527f1b6847dc741a1b0cd08d278845f9d819d87b734759afb55fe2de5cb82a9ae67201805473ffffffffffffffffffffffffffffffffffffffff191684179055517f7409cb8e690bcd1487fd4fd27dad3fa92388d201ba6f953631d6d6b26299f8499190a250565b816001600160a01b0316836001600160a01b031614156134115760405162461bcd60e51b815260206004820152602960248201527f455243313135353a2073657474696e6720617070726f76616c2073746174757360448201527f20666f722073656c66000000000000000000000000000000000000000000000060648201526084016108ac565b6001600160a01b03838116600081815260016020908152604080832094871680845294825291829020805460ff191686151590811790915591519182527f17307eab39ab6107e8899845ad3d59bd9653f200f220920489ca2b5937696c31910160405180910390a3505050565b6004546001600160a01b031633146134c65760405162461bcd60e51b81526020600482018190526024820152600080516020615daf83398151915260448201526064016108ac565b600260065414156135075760405162461bcd60e51b815260206004820152601f6024820152600080516020615d8f83398151915260448201526064016108ac565b60026006556103e861ffff8216111561354b5760405162461bcd60e51b8152602060048201526006602482015265085d985b1a5960d21b60448201526064016108ac565b60076040518060c00160405280846001600160a01b0316632495a5996040518163ffffffff1660e01b815260040160206040518083038186803b15801561359157600080fd5b505afa1580156135a5573d6000803e3d6000fd5b505050506040513d601f19601f820116820180604052508101906135c99190615682565b6001600160a01b03908116825260006020808401829052878316604080860182905261ffff898116606080890191909152608080890187905260a09889018790528a5460018082018d559b8852968690208a51968b0151968916600160a01b6bffffffffffffffffffffffff90981688021760029098020196875592890151958a018054918a0151938a01519990980151959096167fffffffffffffffffffff00000000000000000000000000000000000000000000909616959095179416909102929092177fffffffffffffffff0000ffffffffffffffffffffffffffffffffffffffffffff16600160b01b9415159490940260ff60b81b191693909317600160b81b9315159390930292909217905560075490916136e891615b97565b60405161ffff841681527fe5aa23fc3cd3497e4f2914b1c75cb9f6f38a95bf82277c2c6c94b625e2e399e19060200160405180910390a350506001600655565b6007546000908290811061376a5760405162461bcd60e51b8152602060048201526009602482015268085b9bc81d985d5b1d60ba1b60448201526064016108ac565b600260065414156137ab5760405162461bcd60e51b815260206004820152601f6024820152600080516020615d8f83398151915260448201526064016108ac565b600260065560078054849081106137c4576137c4615c83565b906000526020600020906002020160010160169054906101000a900460ff161561381a5760405162461bcd60e51b8152602060048201526007602482015266085c185d5cd95960ca1b60448201526064016108ac565b613823836138d7565b60016006559392505050565b6117b68282600080610c04565b6001600160a01b038516331480613858575061385885336107f1565b6138ca5760405162461bcd60e51b815260206004820152602960248201527f455243313135353a2063616c6c6572206973206e6f74206f776e6572206e6f7260448201527f20617070726f766564000000000000000000000000000000000000000000000060648201526084016108ac565b612ac88585858585614727565b600080600783815481106138ed576138ed615c83565b60009182526020808320600160029093020191820154604080516331c2482f60e21b815290519395506001600160a01b039091169392849263c70920bc9260048082019391829003018186803b15801561394657600080fd5b505afa15801561395a573d6000803e3d6000fd5b505050506040513d601f19601f8201168201806040525081019061397e91906157a8565b9050816001600160a01b0316634641257d6040518163ffffffff1660e01b8152600401600060405180830381600087803b1580156139bb57600080fd5b505af11580156139cf573d6000803e3d6000fd5b505050506000826001600160a01b031663c70920bc6040518163ffffffff1660e01b815260040160206040518083038186803b158015613a0e57600080fd5b505afa158015613a22573d6000803e3d6000fd5b505050506040513d601f19601f82011682018060405250810190613a4691906157a8565b9050613a528282615b97565b84546bffffffffffffffffffffffff4216600160a01b026001600160a01b0390911617855594506000613a8d6004546001600160a01b031690565b9050600086118015613aa757506001600160a01b03811615155b15613b15576001850154600090612710908490600160a01b900461ffff16613ace8b611c10565b613ad8908b615b78565b613ae29190615b78565b613aec9190615b56565b613af69190615b56565b9050613b1382898360405180602001604052806000815250613d69565b505b867f66f92fe49933a34399778ab0220bb497297ecdfa463d7b8120928ff17de5904187604051613b4791815260200190565b60405180910390a25050505050919050565b6040516370a0823160e01b81526001600160a01b03848116600483015260009182918716906370a082319060240160206040518083038186803b158015613b9f57600080fd5b505afa158015613bb3573d6000803e3d6000fd5b505050506040513d601f19601f82011682018060405250810190613bd791906157a8565b905082613bf857613bf36001600160a01b0387163387876148c5565b613cd9565b3360009081526008602052604090205460ff16613c575760405162461bcd60e51b815260206004820152600a60248201527f2177686974656c6973740000000000000000000000000000000000000000000060448201526064016108ac565b6040517fafb1fbd90000000000000000000000000000000000000000000000000000000081526001600160a01b0380881660048301526024820186905286166044820152339063afb1fbd990606401600060405180830381600087803b158015613cc057600080fd5b505af1158015613cd4573d6000803e3d6000fd5b505050505b6040516370a0823160e01b81526001600160a01b0386811660048301528291908816906370a082319060240160206040518083038186803b158015613d1d57600080fd5b505afa158015613d31573d6000803e3d6000fd5b505050506040513d601f19601f82011682018060405250810190613d5591906157a8565b613d5f9190615b97565b9695505050505050565b6001600160a01b038416613de55760405162461bcd60e51b815260206004820152602160248201527f455243313135353a206d696e7420746f20746865207a65726f2061646472657360448201527f730000000000000000000000000000000000000000000000000000000000000060648201526084016108ac565b33613e0581600087613df688614916565b613dff88614916565b87614961565b6000848152602081815260408083206001600160a01b038916845290915281208054859290613e35908490615b3e565b909155505060408051858152602081018590526001600160a01b0380881692600092918516917fc3d58168c5ae7397731d063d5bbf3d657854427343f4c083240f7aacaa2d0f6291015b60405180910390a45050505050565b6000613ee3826040518060400160405280602081526020017f5361666545524332303a206c6f772d6c6576656c2063616c6c206661696c6564815250856001600160a01b0316614a919092919063ffffffff16565b8051909150156117b65780806020019051810190613f01919061562b565b6117b65760405162461bcd60e51b815260206004820152602a60248201527f5361666545524332303a204552433230206f7065726174696f6e20646964206e60448201527f6f7420737563636565640000000000000000000000000000000000000000000060648201526084016108ac565b8151835114613fea5760405162461bcd60e51b815260206004820152602860248201527f455243313135353a2069647320616e6420616d6f756e7473206c656e6774682060448201527f6d69736d6174636800000000000000000000000000000000000000000000000060648201526084016108ac565b6001600160a01b03841661404e5760405162461bcd60e51b815260206004820152602560248201527f455243313135353a207472616e7366657220746f20746865207a65726f206164604482015264647265737360d81b60648201526084016108ac565b3361405d818787878787614961565b60005b845181101561418657600085828151811061407d5761407d615c83565b60200260200101519050600085838151811061409b5761409b615c83565b602090810291909101810151600084815280835260408082206001600160a01b038e16835290935291909120549091508181101561412e5760405162461bcd60e51b815260206004820152602a60248201527f455243313135353a20696e73756666696369656e742062616c616e636520666f60448201526939103a3930b739b332b960b11b60648201526084016108ac565b6000838152602081815260408083206001600160a01b038e8116855292528083208585039055908b1682528120805484929061416b908490615b3e565b925050819055505050508061417f90615c3c565b9050614060565b50846001600160a01b0316866001600160a01b0316826001600160a01b03167f4a39dc06d4c0dbc64b70af90fd698a233a518aa5d07e595d983b8c0526c8f7fb87876040516141d6929190615a84565b60405180910390a4612e6e818787878787614aa0565b6000836141f93387610832565b10156142475760405162461bcd60e51b815260206004820152601460248201527f21696e73756666696369656e742073686172657300000000000000000000000060448201526064016108ac565b600084116142865760405162461bcd60e51b815260206004820152600c60248201526b217a65726f2073686172657360a01b60448201526064016108ac565b60006007868154811061429b5761429b615c83565b600091825260208083206040805160c081018252600290940290910180546001600160a01b0380821686526bffffffffffffffffffffffff600160a01b9283900416948601949094526001909101549283169184019190915261ffff90820416606083015260ff600160b01b8204811615156080840152600160b81b90910416151560a0820152915061432d87611c10565b82604001516001600160a01b031663c70920bc6040518163ffffffff1660e01b815260040160206040518083038186803b15801561436a57600080fd5b505afa15801561437e573d6000803e3d6000fd5b505050506040513d601f19601f820116820180604052508101906143a291906157a8565b6143ac9088615b78565b6143b69190615b56565b90506143c3338888614c55565b81516040516370a0823160e01b81526001600160a01b03868116600483015260009216906370a082319060240160206040518083038186803b15801561440857600080fd5b505afa15801561441c573d6000803e3d6000fd5b505050506040513d601f19601f8201168201806040525081019061444091906157a8565b60408085015190517ff3fef3a30000000000000000000000000000000000000000000000000000000081526001600160a01b0388811660048301526024820186905292935091169063f3fef3a390604401600060405180830381600087803b1580156144ab57600080fd5b505af11580156144bf573d6000803e3d6000fd5b505084516040516370a0823160e01b81526001600160a01b03898116600483015285945090911691506370a082319060240160206040518083038186803b15801561450957600080fd5b505afa15801561451d573d6000803e3d6000fd5b505050506040513d601f19601f8201168201806040525081019061454191906157a8565b61454b9190615b97565b91508582101561459d5760405162461bcd60e51b815260206004820152601160248201527f216d696e206e6f7420726563656976656400000000000000000000000000000060448201526064016108ac565b60408051888152602081018490526001600160a01b0387169133918b917ffe7813e2866053d5c3938554e517b554fce6666a6561bed9eaa7419b29fa9b68910160405180910390a4509695505050505050565b60006007838154811061460557614605615c83565b906000526020600020906002020190508060010160179054906101000a900460ff16156146605760405162461bcd60e51b8152602060048201526009602482015268085c185b9a58dad95960ba1b60448201526064016108ac565b8060010160169054906101000a900460ff16151582151514156146ae5760405162461bcd60e51b81526004016108ac90602080825260049082015263085cd95d60e21b604082015260600190565b600181018054831515600160b01b027fffffffffffffffffff00ffffffffffffffffffffffffffffffffffffffffffff90911617905560405183907fda8e1d197cc6fd7c91a84b75b5773c11d9f6a3f04bce892b468227617e9f28d99061471a90851515815260200190565b60405180910390a2505050565b6001600160a01b03841661478b5760405162461bcd60e51b815260206004820152602560248201527f455243313135353a207472616e7366657220746f20746865207a65726f206164604482015264647265737360d81b60648201526084016108ac565b3361479b818787613df688614916565b6000848152602081815260408083206001600160a01b038a1684529091529020548381101561481f5760405162461bcd60e51b815260206004820152602a60248201527f455243313135353a20696e73756666696369656e742062616c616e636520666f60448201526939103a3930b739b332b960b11b60648201526084016108ac565b6000858152602081815260408083206001600160a01b038b811685529252808320878503905590881682528120805486929061485c908490615b3e565b909155505060408051868152602081018690526001600160a01b03808916928a821692918616917fc3d58168c5ae7397731d063d5bbf3d657854427343f4c083240f7aacaa2d0f62910160405180910390a46148bc828888888888614df7565b50505050505050565b6040516001600160a01b0380851660248301528316604482015260648101829052612f849085907f23b872dd00000000000000000000000000000000000000000000000000000000906084016129e1565b6040805160018082528183019092526060916000919060208083019080368337019050509050828160008151811061495057614950615c83565b602090810291909101015292915050565b336000908152600f602052604090205460ff166149b35760405162461bcd60e51b815260206004820152601060248201526f085b9bdd081dda1a5d195b1a5cdd195960821b60448201526064016108ac565b6001600160a01b0385166000908152600f602052604090205460ff16614a1b5760405162461bcd60e51b815260206004820152601560248201527f2166726f6d206e6f742077686974656c6973746564000000000000000000000060448201526064016108ac565b6001600160a01b0384166000908152600f602052604090205460ff16614a835760405162461bcd60e51b815260206004820152601360248201527f21746f206e6f742077686974656c69737465640000000000000000000000000060448201526064016108ac565b612e6e868686868686614f02565b6060610f9a848460008561500e565b6001600160a01b0384163b15612e6e5760405163bc197c8160e01b81526001600160a01b0385169063bc197c8190614ae490899089908890889088906004016159db565b602060405180830381600087803b158015614afe57600080fd5b505af1925050508015614b2e575060408051601f3d908101601f19168201909252614b2b91810190615665565b60015b614be457614b3a615caf565b806308c379a01415614b745750614b4f615ccb565b80614b5a5750614b76565b8060405162461bcd60e51b81526004016108ac9190615aa9565b505b60405162461bcd60e51b815260206004820152603460248201527f455243313135353a207472616e7366657220746f206e6f6e204552433131353560448201527f526563656976657220696d706c656d656e74657200000000000000000000000060648201526084016108ac565b6001600160e01b0319811663bc197c8160e01b146148bc5760405162461bcd60e51b815260206004820152602860248201527f455243313135353a204552433131353552656365697665722072656a656374656044820152676420746f6b656e7360c01b60648201526084016108ac565b6001600160a01b038316614cd15760405162461bcd60e51b815260206004820152602360248201527f455243313135353a206275726e2066726f6d20746865207a65726f206164647260448201527f657373000000000000000000000000000000000000000000000000000000000060648201526084016108ac565b33614d0081856000614ce287614916565b614ceb87614916565b60405180602001604052806000815250614961565b6000838152602081815260408083206001600160a01b038816845290915290205482811015614d965760405162461bcd60e51b8152602060048201526024808201527f455243313135353a206275726e20616d6f756e7420657863656564732062616c60448201527f616e63650000000000000000000000000000000000000000000000000000000060648201526084016108ac565b6000848152602081815260408083206001600160a01b03898116808652918452828520888703905582518981529384018890529092908616917fc3d58168c5ae7397731d063d5bbf3d657854427343f4c083240f7aacaa2d0f629101613e7f565b6001600160a01b0384163b15612e6e5760405163f23a6e6160e01b81526001600160a01b0385169063f23a6e6190614e3b9089908990889088908890600401615a39565b602060405180830381600087803b158015614e5557600080fd5b505af1925050508015614e85575060408051601f3d908101601f19168201909252614e8291810190615665565b60015b614e9157614b3a615caf565b6001600160e01b0319811663f23a6e6160e01b146148bc5760405162461bcd60e51b815260206004820152602860248201527f455243313135353a204552433131353552656365697665722072656a656374656044820152676420746f6b656e7360c01b60648201526084016108ac565b6001600160a01b038516614f895760005b8351811015614f8757828181518110614f2e57614f2e615c83565b602002602001015160036000868481518110614f4c57614f4c615c83565b602002602001015181526020019081526020016000206000828254614f719190615b3e565b90915550614f80905081615c3c565b9050614f13565b505b6001600160a01b038416612e6e5760005b83518110156148bc57828181518110614fb557614fb5615c83565b602002602001015160036000868481518110614fd357614fd3615c83565b602002602001015181526020019081526020016000206000828254614ff89190615b97565b90915550615007905081615c3c565b9050614f9a565b6060824710156150865760405162461bcd60e51b815260206004820152602660248201527f416464726573733a20696e73756666696369656e742062616c616e636520666f60448201527f722063616c6c000000000000000000000000000000000000000000000000000060648201526084016108ac565b843b6150d45760405162461bcd60e51b815260206004820152601d60248201527f416464726573733a2063616c6c20746f206e6f6e2d636f6e747261637400000060448201526064016108ac565b600080866001600160a01b031685876040516150f091906159bf565b60006040518083038185875af1925050503d806000811461512d576040519150601f19603f3d011682016040523d82523d6000602084013e615132565b606091505b509150915061514282828661514d565b979650505050505050565b6060831561515c575081610f9d565b82511561516c5782518084602001fd5b8160405162461bcd60e51b81526004016108ac9190615aa9565b82805461519290615bda565b90600052602060002090601f0160209004810192826151b457600085556151fa565b82601f106151cd57805160ff19168380011785556151fa565b828001600101855582156151fa579182015b828111156151fa5782518255916020019190600101906151df565b5061520692915061520a565b5090565b5b80821115615206576000815560010161520b565b600082601f83011261523057600080fd5b8135602061523d82615b1a565b60405161524a8282615c0f565b8381528281019150858301600585901b8701840188101561526a57600080fd5b60005b858110156152895781358452928401929084019060010161526d565b5090979650505050505050565b600082601f8301126152a757600080fd5b813567ffffffffffffffff8111156152c1576152c1615c99565b6040516152d8601f8301601f191660200182615c0f565b8181528460208386010111156152ed57600080fd5b816020850160208301376000918101602001919091529392505050565b803561ffff811681146123d457600080fd5b60006020828403121561532e57600080fd5b8135610f9d81615d55565b6000806040838503121561534c57600080fd5b823561535781615d55565b9150602083013561536781615d55565b809150509250929050565b600080600080600060a0868803121561538a57600080fd5b853561539581615d55565b945060208601356153a581615d55565b9350604086013567ffffffffffffffff808211156153c257600080fd5b6153ce89838a0161521f565b945060608801359150808211156153e457600080fd5b6153f089838a0161521f565b9350608088013591508082111561540657600080fd5b5061541388828901615296565b9150509295509295909350565b600080600080600060a0868803121561543857600080fd5b853561544381615d55565b9450602086013561545381615d55565b93506040860135925060608601359150608086013567ffffffffffffffff81111561547d57600080fd5b61541388828901615296565b6000806040838503121561549c57600080fd5b82356154a781615d55565b9150602083013561536781615d6a565b600080604083850312156154ca57600080fd5b82356154d581615d55565b946020939093013593505050565b600080602083850312156154f657600080fd5b823567ffffffffffffffff8082111561550e57600080fd5b818501915085601f83011261552257600080fd5b81358181111561553157600080fd5b8660208260051b850101111561554657600080fd5b60209290920196919550909350505050565b6000806040838503121561556b57600080fd5b823567ffffffffffffffff8082111561558357600080fd5b818501915085601f83011261559757600080fd5b813560206155a482615b1a565b6040516155b18282615c0f565b8381528281019150858301600585901b870184018b10156155d157600080fd5b600096505b848710156155fd5780356155e981615d55565b8352600196909601959183019183016155d6565b509650508601359250508082111561561457600080fd5b506156218582860161521f565b9150509250929050565b60006020828403121561563d57600080fd5b8151610f9d81615d6a565b60006020828403121561565a57600080fd5b8135610f9d81615d78565b60006020828403121561567757600080fd5b8151610f9d81615d78565b60006020828403121561569457600080fd5b8151610f9d81615d55565b600080604083850312156156b257600080fd5b82356156bd81615d55565b91506156cb6020840161530a565b90509250929050565b6000602082840312156156e657600080fd5b813567ffffffffffffffff8111156156fd57600080fd5b61570984828501615296565b949350505050565b60008060006060848603121561572657600080fd5b833567ffffffffffffffff8082111561573e57600080fd5b61574a87838801615296565b9450602086013591508082111561576057600080fd5b5061576d86828701615296565b925050604084013560ff8116811461578457600080fd5b809150509250925092565b6000602082840312156157a157600080fd5b5035919050565b6000602082840312156157ba57600080fd5b5051919050565b600080604083850312156157d457600080fd5b82359150602083013561536781615d55565b600080604083850312156157f957600080fd5b82359150602083013561536781615d6a565b6000806000806080858703121561582157600080fd5b84359350602085013561583381615d55565b9250604085013561584381615d55565b9396929550929360600135925050565b6000806040838503121561586657600080fd5b823591506156cb6020840161530a565b6000806040838503121561588957600080fd5b50508035926020909101359150565b600080604083850312156158ab57600080fd5b505080516020909101519092909150565b600080600080608085870312156158d257600080fd5b8435935060208501359250604085013561584381615d6a565b60008060006060848603121561590057600080fd5b505081359360208301359350604090920135919050565b6000806000806080858703121561592d57600080fd5b843593506020850135925060408501359150606085013561594d81615d55565b939692955090935050565b600081518084526020808501945080840160005b838110156159885781518752958201959082019060010161596c565b509495945050505050565b600081518084526159ab816020860160208601615bae565b601f01601f19169290920160200192915050565b600082516159d1818460208701615bae565b9190910192915050565b60006001600160a01b03808816835280871660208401525060a06040830152615a0760a0830186615958565b8281036060840152615a198186615958565b90508281036080840152615a2d8185615993565b98975050505050505050565b60006001600160a01b03808816835280871660208401525084604083015283606083015260a0608083015261514260a0830184615993565b602081526000610f9d6020830184615958565b604081526000615a976040830185615958565b8281036020840152610c628185615958565b602081526000610f9d6020830184615993565b604081526000615acf6040830185615993565b8281036020840152610c628185615993565b606081526000615af46060830186615993565b8281036020840152615b068186615993565b91505060ff83166040830152949350505050565b600067ffffffffffffffff821115615b3457615b34615c99565b5060051b60200190565b60008219821115615b5157615b51615c6d565b500190565b600082615b7357634e487b7160e01b600052601260045260246000fd5b500490565b6000816000190483118215151615615b9257615b92615c6d565b500290565b600082821015615ba957615ba9615c6d565b500390565b60005b83811015615bc9578181015183820152602001615bb1565b83811115612f845750506000910152565b600181811c90821680615bee57607f821691505b602082108114156119e857634e487b7160e01b600052602260045260246000fd5b601f8201601f1916810167ffffffffffffffff81118282101715615c3557615c35615c99565b6040525050565b6000600019821415615c5057615c50615c6d565b5060010190565b634e487b7160e01b600052600160045260246000fd5b634e487b7160e01b600052601160045260246000fd5b634e487b7160e01b600052603260045260246000fd5b634e487b7160e01b600052604160045260246000fd5b600060033d1115615cc85760046000803e5060005160e01c5b90565b600060443d1015615cd95790565b6040516003193d81016004833e81513d67ffffffffffffffff8160248401118184111715615d0957505050505090565b8285019150815181811115615d215750505050505090565b843d8701016020828501011115615d3b5750505050505090565b615d4a60208286010187615c0f565b509095945050505050565b6001600160a01b03811681146114fa57600080fd5b80151581146114fa57600080fd5b6001600160e01b0319811681146114fa57600080fdfe5265656e7472616e637947756172643a207265656e7472616e742063616c6c004f776e61626c653a2063616c6c6572206973206e6f7420746865206f776e6572a2646970667358221220db95fd1d5b4d669a42d1e05f3f7d5a15a284e87b989644b6fbad4c80da1d2e1c64736f6c6343000806003368747470733a2f2f76696f6c696e2e66696e616e63652f6170692f7661756c74732f7b69647d2e6a736f6e",
  "devdoc": {
    "kind": "dev",
    "methods": {
      "addVault(address,uint16)": {
        "details": "Add accounting for the allocPoints and also locking if the strategy already exists."
      },
      "balanceOf(address,uint256)": {
        "details": "See {IERC1155-balanceOf}. Requirements: - `account` cannot be the zero address."
      },
      "balanceOfBatch(address[],uint256[])": {
        "details": "See {IERC1155-balanceOfBatch}. Requirements: - `accounts` and `ids` must have the same length."
      },
      "depositUnderlying(uint256,uint256,bool,uint256)": {
        "details": "This pull-based methodology is extremely valuable for zapping transfer-tax tokens more economically.`msg.sender` must be a smart contract implementing the `IPullDepositor` interface.",
        "params": {
          "minSharesReceived": "The minimum amount of shares that must be received, or the transaction reverts.",
          "pulled": "Uses a pull-based deposit hook if set to true, otherwise traditional safeTransferFrom. The pull-based mechanism allows the depositor to send tokens using a hook.",
          "underlyingAmount": "The intended amount of tokens to deposit (this might not equal the actual deposited amount due to tx/stake fees or the pull mechanism).",
          "vaultId": "The id of the vault."
        },
        "returns": {
          "sharesReceived": "The number of shares minted to the msg.sender."
        }
      },
      "exists(uint256)": {
        "details": "Indicates whether any token exist with a given id, or not."
      },
      "harvest(uint256)": {
        "details": "nonDecreasingUnderlyingValue(vaultId) omitted since it is implicitly defined."
      },
      "isApprovedForAll(address,address)": {
        "details": "See {IERC1155-isApprovedForAll}."
      },
      "owner()": {
        "details": "Returns the address of the current owner."
      },
      "panicVault(uint256)": {
        "details": "Can only be called by owner.",
        "params": {
          "vaultId": "The id of the vault."
        }
      },
      "pauseVault(uint256,bool)": {
        "details": "Can only be called by owner.",
        "params": {
          "paused": "True to pause, false to unpause.",
          "vaultId": "The id of the vault."
        }
      },
      "poolInfo(uint256)": {
        "details": "allocPoint is either 0 or 1. Zero means paused while one means active._lastRewardBlock and _accTokenPerShare are zero since there is no concept of rewards in the VaultChef."
      },
      "renounceOwnership()": {
        "details": "Leaves the contract without owner. It will not be possible to call `onlyOwner` functions anymore. Can only be called by the current owner. NOTE: Renouncing ownership will leave the contract without an owner, thereby removing any functionality that is only available to the owner."
      },
      "setApprovalForAll(address,bool)": {
        "details": "See {IERC1155-setApprovalForAll}."
      },
      "setPendingOwner(address)": {
        "details": "Sets the pendingOwner, ownership is only transferred when they call transferOwnership. Can only be called by the current owner."
      },
      "setPullDepositor(address,bool)": {
        "details": "Can only be called by owner."
      },
      "setVault(uint256,uint16)": {
        "details": "Can only be called by owner.",
        "params": {
          "performanceFeeBP": "The percentage of the harvest rewards that are given to the governance, denominated by 10,000 and maximum 5%.",
          "vaultId": "The id of the vault."
        }
      },
      "startBlock()": {
        "details": "This function is kept for compatibility with third-party tools."
      },
      "supportsInterface(bytes4)": {
        "details": "See {IERC165-supportsInterface}."
      },
      "totalSupply(uint256)": {
        "details": "Due to multiple inheritance, we require to overwrite the totalSupply method."
      },
      "transferOwnership()": {
        "details": "Transfers ownership of the contract to the pendingOwner. Can only be called by the pendingOwner."
      },
      "uri(uint256)": {
        "details": "See {IERC1155MetadataURI-uri}. This implementation returns the same URI for *all* token types. It relies on the token type ID substitution mechanism https://eips.ethereum.org/EIPS/eip-1155#metadata[defined in the EIP]. Clients calling this function must replace the `\\{id\\}` substring with the actual token type ID."
      },
      "userInfo(uint256,address)": {
        "details": "amount represents the amount of underlying tokens._rewardDebt are zero since there is no concept of rewards in the VaultChef."
      }
    },
    "version": 1
  },
  "userdoc": {
    "kind": "user",
    "methods": {
      "canDoPullDeposits(address)": {
        "notice": "The set of contracts that allow for pull-based deposits. Unnecessary but trims down privileges further."
      },
      "changeMetadata(string,string,uint8)": {
        "notice": "ERC-20 metadata can be updated for potential rebrands, it is included for etherscan compatibility."
      },
      "decimals()": {
        "notice": "The amount of decimals of individual tokens."
      },
      "depositUnderlying(uint256,uint256,bool,uint256)": {
        "notice": "Deposit `underlyingAmount` amount of underlying tokens into the vault and receive `sharesReceived` proportional to the actually staked amount.Deposits mint `sharesReceived` receipt tokens as ERC-1155 tokens to msg.sender with the tokenId equal to the vaultId.The tokens are transferred from `msg.sender` which requires approval if pulled is set to false, otherwise `msg.sender` needs to implement IPullDepositor."
      },
      "inCaseTokensGetStuck(address,address)": {
        "notice": "No staked tokens are ever sent to the VaultChef, only to the strategies."
      },
      "inCaseVaultTokensGetStuck(uint256,address,address,uint256)": {
        "notice": "Although the strategy could contain underlying tokens, this function reverts if governance tries to withdraw these."
      },
      "isValidVault(uint256)": {
        "notice": "Returns whether a vault exists at the provided vault id `vaultId`."
      },
      "name()": {
        "notice": "The name of the token collection."
      },
      "panicVault(uint256)": {
        "notice": "Withdraws funds from the underlying staking contract to the strategy and irreversibly pauses the vault."
      },
      "pauseVault(uint256,bool)": {
        "notice": "Pauses the vault which means deposits and harvests are no longer permitted, reverts if already set to the desired value."
      },
      "poolInfo(uint256)": {
        "notice": "poolInfo returns the vault information in a format compatible with the masterchef poolInfo."
      },
      "poolLength()": {
        "notice": "Returns the number of vaults."
      },
      "safeBatchTransferFrom(address,address,uint256[],uint256[],bytes)": {
        "notice": "override safeBatchTransferFrom with nonReentrant modifier to safeguard system properties."
      },
      "safeTransferFrom(address,address,uint256,uint256,bytes)": {
        "notice": "override safeTransferFrom with nonReentrant modifier to safeguard system properties."
      },
      "setPullDepositor(address,bool)": {
        "notice": "Allows the `pullDepositor` to create pull-based deposits (useful for zapping contract).Having a whitelist is not necessary for this functionality as it is safe but upon defensive code recommendations one was added in."
      },
      "setURI(string)": {
        "notice": "Override the ERC-1155 token api metadata URI, this is needed since we want to change it to include the chain slug."
      },
      "setVault(uint256,uint16)": {
        "notice": "Updates the performanceFee of the vault."
      },
      "startBlock()": {
        "notice": "the startBlock function indicates when rewards start in a masterchef, since there is no notion of rewards, it returns zero."
      },
      "strategyExists(address)": {
        "notice": "mapping that returns true if the strategy is set as a vault."
      },
      "strategyVaultId(address)": {
        "notice": "Utility mapping for UI to figure out the vault id of a strategy."
      },
      "symbol()": {
        "notice": "The shorthand symbol of the token collection."
      },
      "totalAllocPoint()": {
        "notice": "Since there is no concept of allocPoints we return the number of active vaults as allocPoints (each active vault has allocPoint 1) for MasterChef compatibility."
      },
      "totalUnderlying(uint256)": {
        "notice": "Returns the total amount of underlying tokens a vault has under management."
      },
      "userInfo(uint256,address)": {
        "notice": "userInfo returns the user their stake information about a specific vault in a format compatible with the masterchef userInfo."
      },
      "vaultInfo(uint256)": {
        "notice": "Returns information about the vault for the frontend to use."
      }
    },
    "version": 1
  },
  "storageLayout": {
    "storage": [
      {
        "astId": 2856,
        "contract": "contracts/vaultchef/WhitelistedVaultChef.sol:WhitelistedVaultChef",
        "label": "_balances",
        "offset": 0,
        "slot": "0",
        "type": "t_mapping(t_uint256,t_mapping(t_address,t_uint256))"
      },
      {
        "astId": 2862,
        "contract": "contracts/vaultchef/WhitelistedVaultChef.sol:WhitelistedVaultChef",
        "label": "_operatorApprovals",
        "offset": 0,
        "slot": "1",
        "type": "t_mapping(t_address,t_mapping(t_address,t_bool))"
      },
      {
        "astId": 2864,
        "contract": "contracts/vaultchef/WhitelistedVaultChef.sol:WhitelistedVaultChef",
        "label": "_uri",
        "offset": 0,
        "slot": "2",
        "type": "t_string_storage"
      },
      {
        "astId": 3912,
        "contract": "contracts/vaultchef/WhitelistedVaultChef.sol:WhitelistedVaultChef",
        "label": "_totalSupply",
        "offset": 0,
        "slot": "3",
        "type": "t_mapping(t_uint256,t_uint256)"
      },
      {
        "astId": 4043,
        "contract": "contracts/vaultchef/WhitelistedVaultChef.sol:WhitelistedVaultChef",
        "label": "_owner",
        "offset": 0,
        "slot": "4",
        "type": "t_address"
      },
      {
        "astId": 4045,
        "contract": "contracts/vaultchef/WhitelistedVaultChef.sol:WhitelistedVaultChef",
        "label": "pendingOwner",
        "offset": 0,
        "slot": "5",
        "type": "t_address"
      },
      {
        "astId": 542,
        "contract": "contracts/vaultchef/WhitelistedVaultChef.sol:WhitelistedVaultChef",
        "label": "_status",
        "offset": 0,
        "slot": "6",
        "type": "t_uint256"
      },
      {
        "astId": 6870,
        "contract": "contracts/vaultchef/WhitelistedVaultChef.sol:WhitelistedVaultChef",
        "label": "vaults",
        "offset": 0,
        "slot": "7",
        "type": "t_array(t_struct(Vault)4912_storage)dyn_storage"
      },
      {
        "astId": 6879,
        "contract": "contracts/vaultchef/WhitelistedVaultChef.sol:WhitelistedVaultChef",
        "label": "canDoPullDeposits",
        "offset": 0,
        "slot": "8",
        "type": "t_mapping(t_address,t_bool)"
      },
      {
        "astId": 6334,
        "contract": "contracts/vaultchef/WhitelistedVaultChef.sol:WhitelistedVaultChef",
        "label": "_name",
        "offset": 0,
        "slot": "9",
        "type": "t_string_storage"
      },
      {
        "astId": 6337,
        "contract": "contracts/vaultchef/WhitelistedVaultChef.sol:WhitelistedVaultChef",
        "label": "_symbol",
        "offset": 0,
        "slot": "10",
        "type": "t_string_storage"
      },
      {
        "astId": 6340,
        "contract": "contracts/vaultchef/WhitelistedVaultChef.sol:WhitelistedVaultChef",
        "label": "_decimals",
        "offset": 0,
        "slot": "11",
        "type": "t_uint8"
      },
      {
        "astId": 6343,
        "contract": "contracts/vaultchef/WhitelistedVaultChef.sol:WhitelistedVaultChef",
        "label": "activeVaults",
        "offset": 0,
        "slot": "12",
        "type": "t_uint256"
      },
      {
        "astId": 6352,
        "contract": "contracts/vaultchef/WhitelistedVaultChef.sol:WhitelistedVaultChef",
        "label": "strategyExists",
        "offset": 0,
        "slot": "13",
        "type": "t_mapping(t_contract(IStrategy)4873,t_bool)"
      },
      {
        "astId": 6359,
        "contract": "contracts/vaultchef/WhitelistedVaultChef.sol:WhitelistedVaultChef",
        "label": "strategyVaultId",
        "offset": 0,
        "slot": "14",
        "type": "t_mapping(t_contract(IStrategy)4873,t_uint256)"
      },
      {
        "astId": 8017,
        "contract": "contracts/vaultchef/WhitelistedVaultChef.sol:WhitelistedVaultChef",
        "label": "whitelisted",
        "offset": 0,
        "slot": "15",
        "type": "t_mapping(t_address,t_bool)"
      },
      {
        "astId": 8020,
        "contract": "contracts/vaultchef/WhitelistedVaultChef.sol:WhitelistedVaultChef",
        "label": "whitelist",
        "offset": 0,
        "slot": "16",
        "type": "t_array(t_address)dyn_storage"
      }
    ],
    "types": {
      "t_address": {
        "encoding": "inplace",
        "label": "address",
        "numberOfBytes": "20"
      },
      "t_array(t_address)dyn_storage": {
        "base": "t_address",
        "encoding": "dynamic_array",
        "label": "address[]",
        "numberOfBytes": "32"
      },
      "t_array(t_struct(Vault)4912_storage)dyn_storage": {
        "base": "t_struct(Vault)4912_storage",
        "encoding": "dynamic_array",
        "label": "struct IVaultChefCore.Vault[]",
        "numberOfBytes": "32"
      },
      "t_bool": {
        "encoding": "inplace",
        "label": "bool",
        "numberOfBytes": "1"
      },
      "t_contract(IERC20)1373": {
        "encoding": "inplace",
        "label": "contract IERC20",
        "numberOfBytes": "20"
      },
      "t_contract(IStrategy)4873": {
        "encoding": "inplace",
        "label": "contract IStrategy",
        "numberOfBytes": "20"
      },
      "t_mapping(t_address,t_bool)": {
        "encoding": "mapping",
        "key": "t_address",
        "label": "mapping(address => bool)",
        "numberOfBytes": "32",
        "value": "t_bool"
      },
      "t_mapping(t_address,t_mapping(t_address,t_bool))": {
        "encoding": "mapping",
        "key": "t_address",
        "label": "mapping(address => mapping(address => bool))",
        "numberOfBytes": "32",
        "value": "t_mapping(t_address,t_bool)"
      },
      "t_mapping(t_address,t_uint256)": {
        "encoding": "mapping",
        "key": "t_address",
        "label": "mapping(address => uint256)",
        "numberOfBytes": "32",
        "value": "t_uint256"
      },
      "t_mapping(t_contract(IStrategy)4873,t_bool)": {
        "encoding": "mapping",
        "key": "t_contract(IStrategy)4873",
        "label": "mapping(contract IStrategy => bool)",
        "numberOfBytes": "32",
        "value": "t_bool"
      },
      "t_mapping(t_contract(IStrategy)4873,t_uint256)": {
        "encoding": "mapping",
        "key": "t_contract(IStrategy)4873",
        "label": "mapping(contract IStrategy => uint256)",
        "numberOfBytes": "32",
        "value": "t_uint256"
      },
      "t_mapping(t_uint256,t_mapping(t_address,t_uint256))": {
        "encoding": "mapping",
        "key": "t_uint256",
        "label": "mapping(uint256 => mapping(address => uint256))",
        "numberOfBytes": "32",
        "value": "t_mapping(t_address,t_uint256)"
      },
      "t_mapping(t_uint256,t_uint256)": {
        "encoding": "mapping",
        "key": "t_uint256",
        "label": "mapping(uint256 => uint256)",
        "numberOfBytes": "32",
        "value": "t_uint256"
      },
      "t_string_storage": {
        "encoding": "bytes",
        "label": "string",
        "numberOfBytes": "32"
      },
      "t_struct(Vault)4912_storage": {
        "encoding": "inplace",
        "label": "struct IVaultChefCore.Vault",
        "members": [
          {
            "astId": 4895,
            "contract": "contracts/vaultchef/WhitelistedVaultChef.sol:WhitelistedVaultChef",
            "label": "underlyingToken",
            "offset": 0,
            "slot": "0",
            "type": "t_contract(IERC20)1373"
          },
          {
            "astId": 4898,
            "contract": "contracts/vaultchef/WhitelistedVaultChef.sol:WhitelistedVaultChef",
            "label": "lastHarvestTimestamp",
            "offset": 20,
            "slot": "0",
            "type": "t_uint96"
          },
          {
            "astId": 4902,
            "contract": "contracts/vaultchef/WhitelistedVaultChef.sol:WhitelistedVaultChef",
            "label": "strategy",
            "offset": 0,
            "slot": "1",
            "type": "t_contract(IStrategy)4873"
          },
          {
            "astId": 4905,
            "contract": "contracts/vaultchef/WhitelistedVaultChef.sol:WhitelistedVaultChef",
            "label": "performanceFeeBP",
            "offset": 20,
            "slot": "1",
            "type": "t_uint16"
          },
          {
            "astId": 4908,
            "contract": "contracts/vaultchef/WhitelistedVaultChef.sol:WhitelistedVaultChef",
            "label": "paused",
            "offset": 22,
            "slot": "1",
            "type": "t_bool"
          },
          {
            "astId": 4911,
            "contract": "contracts/vaultchef/WhitelistedVaultChef.sol:WhitelistedVaultChef",
            "label": "panicked",
            "offset": 23,
            "slot": "1",
            "type": "t_bool"
          }
        ],
        "numberOfBytes": "64"
      },
      "t_uint16": {
        "encoding": "inplace",
        "label": "uint16",
        "numberOfBytes": "2"
      },
      "t_uint256": {
        "encoding": "inplace",
        "label": "uint256",
        "numberOfBytes": "32"
      },
      "t_uint8": {
        "encoding": "inplace",
        "label": "uint8",
        "numberOfBytes": "1"
      },
      "t_uint96": {
        "encoding": "inplace",
        "label": "uint96",
        "numberOfBytes": "12"
      }
    }
  }
}