{
  "address": "0x18ed63edAA3D2B7aeCC97398530ee2A8cd244579",
  "abi": [
    {
      "inputs": [
        {
          "internalType": "contract IVaultChef",
          "name": "_vaultChef",
          "type": "address"
        },
        {
          "internalType": "address",
          "name": "_owner",
          "type": "address"
        }
      ],
      "stateMutability": "nonpayable",
      "type": "constructor"
    },
    {
      "anonymous": false,
      "inputs": [
        {
          "indexed": true,
          "internalType": "uint256",
          "name": "fromId",
          "type": "uint256"
        },
        {
          "indexed": true,
          "internalType": "uint256",
          "name": "length",
          "type": "uint256"
        },
        {
          "indexed": true,
          "internalType": "address",
          "name": "to",
          "type": "address"
        }
      ],
      "name": "FeesTransferred",
      "type": "event"
    },
    {
      "anonymous": false,
      "inputs": [
        {
          "indexed": true,
          "internalType": "bytes32",
          "name": "role",
          "type": "bytes32"
        },
        {
          "indexed": true,
          "internalType": "bytes32",
          "name": "previousAdminRole",
          "type": "bytes32"
        },
        {
          "indexed": true,
          "internalType": "bytes32",
          "name": "newAdminRole",
          "type": "bytes32"
        }
      ],
      "name": "RoleAdminChanged",
      "type": "event"
    },
    {
      "anonymous": false,
      "inputs": [
        {
          "indexed": true,
          "internalType": "bytes32",
          "name": "role",
          "type": "bytes32"
        },
        {
          "indexed": true,
          "internalType": "address",
          "name": "account",
          "type": "address"
        },
        {
          "indexed": true,
          "internalType": "address",
          "name": "sender",
          "type": "address"
        }
      ],
      "name": "RoleGranted",
      "type": "event"
    },
    {
      "anonymous": false,
      "inputs": [
        {
          "indexed": true,
          "internalType": "bytes32",
          "name": "role",
          "type": "bytes32"
        },
        {
          "indexed": true,
          "internalType": "address",
          "name": "account",
          "type": "address"
        },
        {
          "indexed": true,
          "internalType": "address",
          "name": "sender",
          "type": "address"
        }
      ],
      "name": "RoleRevoked",
      "type": "event"
    },
    {
      "inputs": [],
      "name": "ADD_VAULT_ROLE",
      "outputs": [
        {
          "internalType": "bytes32",
          "name": "",
          "type": "bytes32"
        }
      ],
      "stateMutability": "view",
      "type": "function"
    },
    {
      "inputs": [],
      "name": "DEFAULT_ADMIN_ROLE",
      "outputs": [
        {
          "internalType": "bytes32",
          "name": "",
          "type": "bytes32"
        }
      ],
      "stateMutability": "view",
      "type": "function"
    },
    {
      "inputs": [],
      "name": "FEE_PROCESSOR_ROLE",
      "outputs": [
        {
          "internalType": "bytes32",
          "name": "",
          "type": "bytes32"
        }
      ],
      "stateMutability": "view",
      "type": "function"
    },
    {
      "inputs": [],
      "name": "PAUSE_VAULT_ROLE",
      "outputs": [
        {
          "internalType": "bytes32",
          "name": "",
          "type": "bytes32"
        }
      ],
      "stateMutability": "view",
      "type": "function"
    },
    {
      "inputs": [],
      "name": "SET_VAULT_ROLE",
      "outputs": [
        {
          "internalType": "bytes32",
          "name": "",
          "type": "bytes32"
        }
      ],
      "stateMutability": "view",
      "type": "function"
    },
    {
      "inputs": [
        {
          "internalType": "contract IStrategy",
          "name": "strategy",
          "type": "address"
        },
        {
          "internalType": "uint16",
          "name": "performanceFeeBP",
          "type": "uint16"
        }
      ],
      "name": "addVault",
      "outputs": [],
      "stateMutability": "nonpayable",
      "type": "function"
    },
    {
      "inputs": [
        {
          "internalType": "string",
          "name": "newName",
          "type": "string"
        },
        {
          "internalType": "string",
          "name": "newSymbol",
          "type": "string"
        },
        {
          "internalType": "uint8",
          "name": "newDecimals",
          "type": "uint8"
        }
      ],
      "name": "changeMetadata",
      "outputs": [],
      "stateMutability": "nonpayable",
      "type": "function"
    },
    {
      "inputs": [
        {
          "internalType": "address",
          "name": "target",
          "type": "address"
        },
        {
          "internalType": "uint256",
          "name": "value",
          "type": "uint256"
        },
        {
          "internalType": "bytes",
          "name": "data",
          "type": "bytes"
        }
      ],
      "name": "executeTransaction",
      "outputs": [
        {
          "internalType": "bytes",
          "name": "",
          "type": "bytes"
        }
      ],
      "stateMutability": "payable",
      "type": "function"
    },
    {
      "inputs": [
        {
          "internalType": "bytes32",
          "name": "role",
          "type": "bytes32"
        }
      ],
      "name": "getRoleAdmin",
      "outputs": [
        {
          "internalType": "bytes32",
          "name": "",
          "type": "bytes32"
        }
      ],
      "stateMutability": "view",
      "type": "function"
    },
    {
      "inputs": [
        {
          "internalType": "bytes32",
          "name": "role",
          "type": "bytes32"
        },
        {
          "internalType": "uint256",
          "name": "index",
          "type": "uint256"
        }
      ],
      "name": "getRoleMember",
      "outputs": [
        {
          "internalType": "address",
          "name": "",
          "type": "address"
        }
      ],
      "stateMutability": "view",
      "type": "function"
    },
    {
      "inputs": [
        {
          "internalType": "bytes32",
          "name": "role",
          "type": "bytes32"
        }
      ],
      "name": "getRoleMemberCount",
      "outputs": [
        {
          "internalType": "uint256",
          "name": "",
          "type": "uint256"
        }
      ],
      "stateMutability": "view",
      "type": "function"
    },
    {
      "inputs": [
        {
          "internalType": "address",
          "name": "account",
          "type": "address"
        }
      ],
      "name": "grantAllRoles",
      "outputs": [],
      "stateMutability": "nonpayable",
      "type": "function"
    },
    {
      "inputs": [
        {
          "internalType": "bytes32",
          "name": "role",
          "type": "bytes32"
        },
        {
          "internalType": "address",
          "name": "account",
          "type": "address"
        }
      ],
      "name": "grantRole",
      "outputs": [],
      "stateMutability": "nonpayable",
      "type": "function"
    },
    {
      "inputs": [
        {
          "internalType": "bytes32",
          "name": "role",
          "type": "bytes32"
        },
        {
          "internalType": "address",
          "name": "account",
          "type": "address"
        }
      ],
      "name": "hasRole",
      "outputs": [
        {
          "internalType": "bool",
          "name": "",
          "type": "bool"
        }
      ],
      "stateMutability": "view",
      "type": "function"
    },
    {
      "inputs": [
        {
          "internalType": "contract IERC20",
          "name": "token",
          "type": "address"
        },
        {
          "internalType": "address",
          "name": "to",
          "type": "address"
        }
      ],
      "name": "inCaseTokensGetStuck",
      "outputs": [],
      "stateMutability": "nonpayable",
      "type": "function"
    },
    {
      "inputs": [
        {
          "internalType": "uint256",
          "name": "vaultId",
          "type": "uint256"
        },
        {
          "internalType": "contract IERC20",
          "name": "token",
          "type": "address"
        },
        {
          "internalType": "address",
          "name": "to",
          "type": "address"
        },
        {
          "internalType": "uint256",
          "name": "amount",
          "type": "uint256"
        }
      ],
      "name": "inCaseVaultTokensGetStuck",
      "outputs": [],
      "stateMutability": "nonpayable",
      "type": "function"
    },
    {
      "inputs": [
        {
          "internalType": "address",
          "name": "",
          "type": "address"
        },
        {
          "internalType": "address",
          "name": "",
          "type": "address"
        },
        {
          "internalType": "uint256[]",
          "name": "",
          "type": "uint256[]"
        },
        {
          "internalType": "uint256[]",
          "name": "",
          "type": "uint256[]"
        },
        {
          "internalType": "bytes",
          "name": "",
          "type": "bytes"
        }
      ],
      "name": "onERC1155BatchReceived",
      "outputs": [
        {
          "internalType": "bytes4",
          "name": "",
          "type": "bytes4"
        }
      ],
      "stateMutability": "pure",
      "type": "function"
    },
    {
      "inputs": [
        {
          "internalType": "address",
          "name": "",
          "type": "address"
        },
        {
          "internalType": "address",
          "name": "",
          "type": "address"
        },
        {
          "internalType": "uint256",
          "name": "",
          "type": "uint256"
        },
        {
          "internalType": "uint256",
          "name": "",
          "type": "uint256"
        },
        {
          "internalType": "bytes",
          "name": "",
          "type": "bytes"
        }
      ],
      "name": "onERC1155Received",
      "outputs": [
        {
          "internalType": "bytes4",
          "name": "",
          "type": "bytes4"
        }
      ],
      "stateMutability": "pure",
      "type": "function"
    },
    {
      "inputs": [
        {
          "internalType": "uint256",
          "name": "vaultId",
          "type": "uint256"
        }
      ],
      "name": "panicVault",
      "outputs": [],
      "stateMutability": "nonpayable",
      "type": "function"
    },
    {
      "inputs": [
        {
          "internalType": "uint256",
          "name": "vaultId",
          "type": "uint256"
        },
        {
          "internalType": "bool",
          "name": "paused",
          "type": "bool"
        }
      ],
      "name": "pauseVault",
      "outputs": [],
      "stateMutability": "nonpayable",
      "type": "function"
    },
    {
      "inputs": [
        {
          "internalType": "bytes32",
          "name": "role",
          "type": "bytes32"
        },
        {
          "internalType": "address",
          "name": "account",
          "type": "address"
        }
      ],
      "name": "renounceRole",
      "outputs": [],
      "stateMutability": "nonpayable",
      "type": "function"
    },
    {
      "inputs": [
        {
          "internalType": "address",
          "name": "account",
          "type": "address"
        }
      ],
      "name": "revokeAllRoles",
      "outputs": [],
      "stateMutability": "nonpayable",
      "type": "function"
    },
    {
      "inputs": [
        {
          "internalType": "bytes32",
          "name": "role",
          "type": "bytes32"
        },
        {
          "internalType": "address",
          "name": "account",
          "type": "address"
        }
      ],
      "name": "revokeRole",
      "outputs": [],
      "stateMutability": "nonpayable",
      "type": "function"
    },
    {
      "inputs": [
        {
          "internalType": "address",
          "name": "pullDepositor",
          "type": "address"
        },
        {
          "internalType": "bool",
          "name": "isAllowed",
          "type": "bool"
        }
      ],
      "name": "setPullDepositor",
      "outputs": [],
      "stateMutability": "nonpayable",
      "type": "function"
    },
    {
      "inputs": [
        {
          "internalType": "string",
          "name": "newURI",
          "type": "string"
        }
      ],
      "name": "setURI",
      "outputs": [],
      "stateMutability": "nonpayable",
      "type": "function"
    },
    {
      "inputs": [
        {
          "internalType": "uint256",
          "name": "vaultId",
          "type": "uint256"
        },
        {
          "internalType": "uint16",
          "name": "performanceFeeBP",
          "type": "uint16"
        }
      ],
      "name": "setVault",
      "outputs": [],
      "stateMutability": "nonpayable",
      "type": "function"
    },
    {
      "inputs": [
        {
          "internalType": "bytes4",
          "name": "interfaceId",
          "type": "bytes4"
        }
      ],
      "name": "supportsInterface",
      "outputs": [
        {
          "internalType": "bool",
          "name": "",
          "type": "bool"
        }
      ],
      "stateMutability": "view",
      "type": "function"
    },
    {
      "inputs": [
        {
          "internalType": "address",
          "name": "to",
          "type": "address"
        }
      ],
      "name": "transferAllFees",
      "outputs": [],
      "stateMutability": "nonpayable",
      "type": "function"
    },
    {
      "inputs": [
        {
          "internalType": "uint256",
          "name": "fromId",
          "type": "uint256"
        },
        {
          "internalType": "uint256",
          "name": "length",
          "type": "uint256"
        },
        {
          "internalType": "address",
          "name": "to",
          "type": "address"
        }
      ],
      "name": "transferFeesBatch",
      "outputs": [],
      "stateMutability": "nonpayable",
      "type": "function"
    },
    {
      "inputs": [],
      "name": "transferOwnership",
      "outputs": [],
      "stateMutability": "nonpayable",
      "type": "function"
    },
    {
      "inputs": [],
      "name": "vaultChef",
      "outputs": [
        {
          "internalType": "contract IVaultChef",
          "name": "",
          "type": "address"
        }
      ],
      "stateMutability": "view",
      "type": "function"
    }
  ],
  "transactionHash": "0xf1511eb22a72bf4bd5ad456f7dd295c5390321d8be8fbe2752754c86eb878310",
  "args": [
    "0xA5BCB9FdDE71e393978278999425ac42DA393d3D",
    "0xa66745F0092F7460F107E4c66C224553bF4Cd727"
  ],
  "solcInputHash": "2f5620570b3b65fa68435f7d2a101c49",
  "bytecode": "0x60a06040523480156200001157600080fd5b50604051620026d0380380620026d083398101604081905262000034916200025f565b6001600160601b0319606083901b166080526200005360008262000066565b6200005e8162000076565b5050620002b4565b6200007282826200010a565b5050565b6200008360008262000066565b620000af7f987568db91bb5b32e7a1316f617c771b9145b57e77f5ec97bb13bc68b8c2e61c8262000066565b620000db7ffe9ef65436ff43441033ae0f232d2e2c84e3d8270693efecea236ba234fe69f78262000066565b620001077fa3b1537ad08980d474bea61d858fdf9acd403199b6355f0314ba785bef4005068262000066565b50565b6200012182826200014d60201b620012f31760201c565b60008281526001602090815260409091206200014891839062001391620001ed821b17901c565b505050565b6000828152602081815260408083206001600160a01b038516845290915290205460ff1662000072576000828152602081815260408083206001600160a01b03851684529091529020805460ff19166001179055620001a93390565b6001600160a01b0316816001600160a01b0316837f2f8788117e7eff1d82e926ec794901d17c78024a50270940304540a733656f0d60405160405180910390a45050565b600062000204836001600160a01b0384166200020d565b90505b92915050565b6000818152600183016020526040812054620002565750815460018181018455600084815260208082209093018490558454848252828601909352604090209190915562000207565b50600062000207565b600080604083850312156200027357600080fd5b825162000280816200029e565b602084015190925062000293816200029e565b809150509250929050565b6001600160a01b03811681146200010757600080fd5b60805160601c6123a26200032e60003960008181610607015281816107630152818161081a015281816108b801528181610ab101528181610b6f01528181610dc201528181610e4b01528181610ee401528181610fe1015281816110850152818161110e0152818161125e01526114d101526123a26000f3fe6080604052600436106101d85760003560e01c80639010d07c11610102578063ce192fc911610095578063f0993d4f11610064578063f0993d4f14610629578063f23a6e6114610649578063f44422b71461068f578063f932e255146106af57600080fd5b8063ce192fc914610595578063d23c437f146105b5578063d547741f146105d5578063e4f3fb4b146105f557600080fd5b8063bc197c81116100d1578063bc197c81146104c0578063c3eb262f14610521578063ca15c87314610555578063cde3d5f11461057557600080fd5b80639010d07c1461040f57806391d1485414610447578063a05735361461048b578063a217fddf146104ab57600080fd5b80632f2ff15d1161017a57806341f3b9961161014957806341f3b9961461039a5780634b30b422146103ba57806364ee87de146103da578063880ad0af146103fa57600080fd5b80632f2ff15d1461031a57806330f503d41461033a57806336568abe1461035a5780633f579f421461037a57600080fd5b80631939bbc1116101b65780631939bbc114610276578063215f5c6614610296578063248a9ca3146102b65780632dcd9702146102e657600080fd5b806301ffc9a7146101dd578063026c1ed21461021257806302fe530514610254575b600080fd5b3480156101e957600080fd5b506101fd6101f8366004611e0d565b6106e3565b60405190151581526020015b60405180910390f35b34801561021e57600080fd5b506102467fa3b1537ad08980d474bea61d858fdf9acd403199b6355f0314ba785bef40050681565b604051908152602001610209565b34801561026057600080fd5b5061027461026f366004611e91565b610727565b005b34801561028257600080fd5b50610274610291366004611e37565b6107ce565b3480156102a257600080fd5b506102746102b1366004611ece565b61087c565b3480156102c257600080fd5b506102466102d1366004611da2565b60009081526020819052604090206001015490565b3480156102f257600080fd5b506102467f987568db91bb5b32e7a1316f617c771b9145b57e77f5ec97bb13bc68b8c2e61c81565b34801561032657600080fd5b50610274610335366004611dbb565b610929565b34801561034657600080fd5b50610274610355366004611ff3565b610954565b34801561036657600080fd5b50610274610375366004611dbb565b610c1d565b61038d610388366004611c88565b610cae565b60405161020991906121d6565b3480156103a657600080fd5b506102746103b5366004611c53565b610d76565b3480156103c657600080fd5b506102746103d5366004611da2565b610df1565b3480156103e657600080fd5b506102746103f5366004611f65565b610e82565b34801561040657600080fd5b50610274610f1b565b34801561041b57600080fd5b5061042f61042a366004611deb565b610f32565b6040516001600160a01b039091168152602001610209565b34801561045357600080fd5b506101fd610462366004611dbb565b6000918252602082815260408084206001600160a01b0393909316845291905290205460ff1690565b34801561049757600080fd5b506102746104a6366004611afb565b610f51565b3480156104b757600080fd5b50610246600081565b3480156104cc57600080fd5b506105086104db366004611b18565b7fbc197c810000000000000000000000000000000000000000000000000000000098975050505050505050565b6040516001600160e01b03199091168152602001610209565b34801561052d57600080fd5b506102467f55d91c3b2b4ed72a9ae5315547e6428f5a275a69ed647b795c2060fb4f918d6e81565b34801561056157600080fd5b50610246610570366004611da2565b610f66565b34801561058157600080fd5b50610274610590366004611fd0565b610f7d565b3480156105a157600080fd5b506102746105b0366004611e65565b611018565b3480156105c157600080fd5b506102746105d0366004611f88565b6110b4565b3480156105e157600080fd5b506102746105f0366004611dbb565b611171565b34801561060157600080fd5b5061042f7f000000000000000000000000000000000000000000000000000000000000000081565b34801561063557600080fd5b50610274610644366004611afb565b611197565b34801561065557600080fd5b50610508610664366004611bd7565b7ff23a6e61000000000000000000000000000000000000000000000000000000009695505050505050565b34801561069b57600080fd5b506102746106aa366004611afb565b61122c565b3480156106bb57600080fd5b506102467ffe9ef65436ff43441033ae0f232d2e2c84e3d8270693efecea236ba234fe69f781565b60006001600160e01b031982167f5a05180f0000000000000000000000000000000000000000000000000000000014806107215750610721826113a6565b92915050565b6000610733813361140d565b6040517f02fe53050000000000000000000000000000000000000000000000000000000081526001600160a01b037f000000000000000000000000000000000000000000000000000000000000000016906302fe5305906107989085906004016121d6565b600060405180830381600087803b1580156107b257600080fd5b505af11580156107c6573d6000803e3d6000fd5b505050505050565b60006107da813361140d565b6040517f1939bbc10000000000000000000000000000000000000000000000000000000081526001600160a01b03848116600483015283811660248301527f00000000000000000000000000000000000000000000000000000000000000001690631939bbc1906044015b600060405180830381600087803b15801561085f57600080fd5b505af1158015610873573d6000803e3d6000fd5b50505050505050565b6000610888813361140d565b6040517f215f5c660000000000000000000000000000000000000000000000000000000081526001600160a01b037f0000000000000000000000000000000000000000000000000000000000000000169063215f5c66906108f1908790879087906004016121e9565b600060405180830381600087803b15801561090b57600080fd5b505af115801561091f573d6000803e3d6000fd5b5050505050505050565b600082815260208190526040902060010154610945813361140d565b61094f838361148b565b505050565b7f55d91c3b2b4ed72a9ae5315547e6428f5a275a69ed647b795c2060fb4f918d6e61097f813361140d565b60008367ffffffffffffffff81111561099a5761099a612341565b6040519080825280602002602001820160405280156109c3578160200160208202803683370190505b50905060008467ffffffffffffffff8111156109e1576109e1612341565b604051908082528060200260200182016040528015610a0a578160200160208202803683370190505b50905060005b85811015610a7d57610a228188612253565b838281518110610a3457610a3461232b565b60200260200101818152505030828281518110610a5357610a5361232b565b6001600160a01b039092166020928302919091019091015280610a75816122e4565b915050610a10565b506040517f4e1273f40000000000000000000000000000000000000000000000000000000081526000906001600160a01b037f00000000000000000000000000000000000000000000000000000000000000001690634e1273f490610ae89085908790600401612180565b60006040518083038186803b158015610b0057600080fd5b505afa158015610b14573d6000803e3d6000fd5b505050506040513d6000823e601f3d908101601f19168201604052610b3c9190810190611cf5565b6040517f2eb2c2d60000000000000000000000000000000000000000000000000000000081529091506001600160a01b037f00000000000000000000000000000000000000000000000000000000000000001690632eb2c2d690610baa903090899088908790600401612125565b600060405180830381600087803b158015610bc457600080fd5b505af1158015610bd8573d6000803e3d6000fd5b50505050846001600160a01b031686887f07da79779bf0128977016ec4a2d4101b3b3d0a96daa6497074411685f377c6ed60405160405180910390a450505050505050565b6001600160a01b0381163314610ca05760405162461bcd60e51b815260206004820152602f60248201527f416363657373436f6e74726f6c3a2063616e206f6e6c792072656e6f756e636560448201527f20726f6c657320666f722073656c66000000000000000000000000000000000060648201526084015b60405180910390fd5b610caa82826114ad565b5050565b60606000610cbc813361140d565b600080866001600160a01b03168686604051610cd89190612088565b60006040518083038185875af1925050503d8060008114610d15576040519150601f19603f3d011682016040523d82523d6000602084013e610d1a565b606091505b509150915081610d6c5760405162461bcd60e51b815260206004820152600960248201527f21726576657274656400000000000000000000000000000000000000000000006044820152606401610c97565b9695505050505050565b6000610d82813361140d565b6040517f41f3b9960000000000000000000000000000000000000000000000000000000081526001600160a01b03848116600483015283151560248301527f000000000000000000000000000000000000000000000000000000000000000016906341f3b99690604401610845565b7fa3b1537ad08980d474bea61d858fdf9acd403199b6355f0314ba785bef400506610e1c813361140d565b6040517f4b30b422000000000000000000000000000000000000000000000000000000008152600481018390527f00000000000000000000000000000000000000000000000000000000000000006001600160a01b031690634b30b42290602401610798565b7fa3b1537ad08980d474bea61d858fdf9acd403199b6355f0314ba785bef400506610ead813361140d565b6040517f64ee87de0000000000000000000000000000000000000000000000000000000081526004810184905282151560248201527f00000000000000000000000000000000000000000000000000000000000000006001600160a01b0316906364ee87de90604401610845565b6000610f27813361140d565b610f2f6114cf565b50565b6000828152600160205260408120610f4a9083611544565b9392505050565b6000610f5d813361140d565b610caa82611550565b6000818152600160205260408120610721906115d9565b7ffe9ef65436ff43441033ae0f232d2e2c84e3d8270693efecea236ba234fe69f7610fa8813361140d565b6040517fcde3d5f10000000000000000000000000000000000000000000000000000000081526004810184905261ffff831660248201527f00000000000000000000000000000000000000000000000000000000000000006001600160a01b03169063cde3d5f190604401610845565b7f987568db91bb5b32e7a1316f617c771b9145b57e77f5ec97bb13bc68b8c2e61c611043813361140d565b6040517fce192fc90000000000000000000000000000000000000000000000000000000081526001600160a01b03848116600483015261ffff841660248301527f0000000000000000000000000000000000000000000000000000000000000000169063ce192fc990604401610845565b60006110c0813361140d565b6040517fd23c437f000000000000000000000000000000000000000000000000000000008152600481018690526001600160a01b0385811660248301528481166044830152606482018490527f0000000000000000000000000000000000000000000000000000000000000000169063d23c437f90608401600060405180830381600087803b15801561115257600080fd5b505af1158015611166573d6000803e3d6000fd5b505050505050505050565b60008281526020819052604090206001015461118d813361140d565b61094f83836114ad565b60006111a3813361140d565b6111cd7f987568db91bb5b32e7a1316f617c771b9145b57e77f5ec97bb13bc68b8c2e61c83611171565b6111f77ffe9ef65436ff43441033ae0f232d2e2c84e3d8270693efecea236ba234fe69f783611171565b6112217fa3b1537ad08980d474bea61d858fdf9acd403199b6355f0314ba785bef40050683611171565b610caa600083611171565b7f55d91c3b2b4ed72a9ae5315547e6428f5a275a69ed647b795c2060fb4f918d6e611257813361140d565b610caa60007f00000000000000000000000000000000000000000000000000000000000000006001600160a01b031663081e3eda6040518163ffffffff1660e01b815260040160206040518083038186803b1580156112b557600080fd5b505afa1580156112c9573d6000803e3d6000fd5b505050506040513d601f19601f820116820180604052508101906112ed9190611f4c565b84610954565b6000828152602081815260408083206001600160a01b038516845290915290205460ff16610caa576000828152602081815260408083206001600160a01b03851684529091529020805460ff1916600117905561134d3390565b6001600160a01b0316816001600160a01b0316837f2f8788117e7eff1d82e926ec794901d17c78024a50270940304540a733656f0d60405160405180910390a45050565b6000610f4a836001600160a01b0384166115e3565b60006001600160e01b031982167f7965db0b00000000000000000000000000000000000000000000000000000000148061072157507f01ffc9a7000000000000000000000000000000000000000000000000000000006001600160e01b0319831614610721565b6000828152602081815260408083206001600160a01b038516845290915290205460ff16610caa57611449816001600160a01b03166014611632565b611454836020611632565b6040516020016114659291906120a4565b60408051601f198184030181529082905262461bcd60e51b8252610c97916004016121d6565b61149582826112f3565b600082815260016020526040902061094f9082611391565b6114b78282611813565b600082815260016020526040902061094f9082611892565b7f00000000000000000000000000000000000000000000000000000000000000006001600160a01b031663880ad0af6040518163ffffffff1660e01b8152600401600060405180830381600087803b15801561152a57600080fd5b505af115801561153e573d6000803e3d6000fd5b50505050565b6000610f4a83836118a7565b61155b6000826118d1565b6115857f987568db91bb5b32e7a1316f617c771b9145b57e77f5ec97bb13bc68b8c2e61c826118d1565b6115af7ffe9ef65436ff43441033ae0f232d2e2c84e3d8270693efecea236ba234fe69f7826118d1565b610f2f7fa3b1537ad08980d474bea61d858fdf9acd403199b6355f0314ba785bef400506826118d1565b6000610721825490565b600081815260018301602052604081205461162a57508154600181810184556000848152602080822090930184905584548482528286019093526040902091909155610721565b506000610721565b6060600061164183600261226b565b61164c906002612253565b67ffffffffffffffff81111561166457611664612341565b6040519080825280601f01601f19166020018201604052801561168e576020820181803683370190505b5090507f3000000000000000000000000000000000000000000000000000000000000000816000815181106116c5576116c561232b565b60200101906001600160f81b031916908160001a9053507f7800000000000000000000000000000000000000000000000000000000000000816001815181106117105761171061232b565b60200101906001600160f81b031916908160001a905350600061173484600261226b565b61173f906001612253565b90505b60018111156117c4577f303132333435363738396162636465660000000000000000000000000000000085600f16601081106117805761178061232b565b1a60f81b8282815181106117965761179661232b565b60200101906001600160f81b031916908160001a90535060049490941c936117bd816122cd565b9050611742565b508315610f4a5760405162461bcd60e51b815260206004820181905260248201527f537472696e67733a20686578206c656e67746820696e73756666696369656e746044820152606401610c97565b6000828152602081815260408083206001600160a01b038516845290915290205460ff1615610caa576000828152602081815260408083206001600160a01b0385168085529252808320805460ff1916905551339285917ff6391f5c32d9c69d2a47ea670b442974b53935d1edc7fd64eb21e047a839171b9190a45050565b6000610f4a836001600160a01b0384166118db565b60008260000182815481106118be576118be61232b565b9060005260206000200154905092915050565b610caa828261148b565b600081815260018301602052604081205480156119c45760006118ff60018361228a565b85549091506000906119139060019061228a565b90508181146119785760008660000182815481106119335761193361232b565b90600052602060002001549050808760000184815481106119565761195661232b565b6000918252602080832090910192909255918252600188019052604090208390555b855486908061198957611989612315565b600190038181906000526020600020016000905590558560010160008681526020019081526020016000206000905560019350505050610721565b6000915050610721565b600067ffffffffffffffff8311156119e8576119e8612341565b6119fb601f8401601f1916602001612222565b9050828152838383011115611a0f57600080fd5b828260208301376000602084830101529392505050565b60008083601f840112611a3857600080fd5b50813567ffffffffffffffff811115611a5057600080fd5b6020830191508360208260051b8501011115611a6b57600080fd5b9250929050565b80358015158114611a8257600080fd5b919050565b60008083601f840112611a9957600080fd5b50813567ffffffffffffffff811115611ab157600080fd5b602083019150836020828501011115611a6b57600080fd5b600082601f830112611ada57600080fd5b610f4a838335602085016119ce565b803561ffff81168114611a8257600080fd5b600060208284031215611b0d57600080fd5b8135610f4a81612357565b60008060008060008060008060a0898b031215611b3457600080fd5b8835611b3f81612357565b97506020890135611b4f81612357565b9650604089013567ffffffffffffffff80821115611b6c57600080fd5b611b788c838d01611a26565b909850965060608b0135915080821115611b9157600080fd5b611b9d8c838d01611a26565b909650945060808b0135915080821115611bb657600080fd5b50611bc38b828c01611a87565b999c989b5096995094979396929594505050565b60008060008060008060a08789031215611bf057600080fd5b8635611bfb81612357565b95506020870135611c0b81612357565b94506040870135935060608701359250608087013567ffffffffffffffff811115611c3557600080fd5b611c4189828a01611a87565b979a9699509497509295939492505050565b60008060408385031215611c6657600080fd5b8235611c7181612357565b9150611c7f60208401611a72565b90509250929050565b600080600060608486031215611c9d57600080fd5b8335611ca881612357565b925060208401359150604084013567ffffffffffffffff811115611ccb57600080fd5b8401601f81018613611cdc57600080fd5b611ceb868235602084016119ce565b9150509250925092565b60006020808385031215611d0857600080fd5b825167ffffffffffffffff80821115611d2057600080fd5b818501915085601f830112611d3457600080fd5b815181811115611d4657611d46612341565b8060051b9150611d57848301612222565b8181528481019084860184860187018a1015611d7257600080fd5b600095505b83861015611d95578051835260019590950194918601918601611d77565b5098975050505050505050565b600060208284031215611db457600080fd5b5035919050565b60008060408385031215611dce57600080fd5b823591506020830135611de081612357565b809150509250929050565b60008060408385031215611dfe57600080fd5b50508035926020909101359150565b600060208284031215611e1f57600080fd5b81356001600160e01b031981168114610f4a57600080fd5b60008060408385031215611e4a57600080fd5b8235611e5581612357565b91506020830135611de081612357565b60008060408385031215611e7857600080fd5b8235611e8381612357565b9150611c7f60208401611ae9565b600060208284031215611ea357600080fd5b813567ffffffffffffffff811115611eba57600080fd5b611ec684828501611ac9565b949350505050565b600080600060608486031215611ee357600080fd5b833567ffffffffffffffff80821115611efb57600080fd5b611f0787838801611ac9565b94506020860135915080821115611f1d57600080fd5b50611f2a86828701611ac9565b925050604084013560ff81168114611f4157600080fd5b809150509250925092565b600060208284031215611f5e57600080fd5b5051919050565b60008060408385031215611f7857600080fd5b82359150611c7f60208401611a72565b60008060008060808587031215611f9e57600080fd5b843593506020850135611fb081612357565b92506040850135611fc081612357565b9396929550929360600135925050565b60008060408385031215611fe357600080fd5b82359150611c7f60208401611ae9565b60008060006060848603121561200857600080fd5b83359250602084013591506040840135611f4181612357565b600081518084526020808501945080840160005b8381101561205157815187529582019590820190600101612035565b509495945050505050565b600081518084526120748160208601602086016122a1565b601f01601f19169290920160200192915050565b6000825161209a8184602087016122a1565b9190910192915050565b7f416363657373436f6e74726f6c3a206163636f756e74200000000000000000008152600083516120dc8160178501602088016122a1565b7f206973206d697373696e6720726f6c652000000000000000000000000000000060179184019182015283516121198160288401602088016122a1565b01602801949350505050565b60006001600160a01b03808716835280861660208401525060a0604083015261215160a0830185612021565b82810360608401526121638185612021565b838103608090940193909352505060008152602001949350505050565b604080825283519082018190526000906020906060840190828701845b828110156121c25781516001600160a01b03168452928401929084019060010161219d565b50505083810382850152610d6c8186612021565b602081526000610f4a602083018461205c565b6060815260006121fc606083018661205c565b828103602084015261220e818661205c565b91505060ff83166040830152949350505050565b604051601f8201601f1916810167ffffffffffffffff8111828210171561224b5761224b612341565b604052919050565b60008219821115612266576122666122ff565b500190565b6000816000190483118215151615612285576122856122ff565b500290565b60008282101561229c5761229c6122ff565b500390565b60005b838110156122bc5781810151838201526020016122a4565b8381111561153e5750506000910152565b6000816122dc576122dc6122ff565b506000190190565b60006000198214156122f8576122f86122ff565b5060010190565b634e487b7160e01b600052601160045260246000fd5b634e487b7160e01b600052603160045260246000fd5b634e487b7160e01b600052603260045260246000fd5b634e487b7160e01b600052604160045260246000fd5b6001600160a01b0381168114610f2f57600080fdfea26469706673582212202733a02648e6c82aca0e03dca7ad7adc5ac4609b8a371130d41d5ebdf611bdd564736f6c63430008060033",
  "devdoc": {
    "kind": "dev",
    "methods": {
      "getRoleAdmin(bytes32)": {
        "details": "Returns the admin role that controls `role`. See {grantRole} and {revokeRole}. To change a role's admin, use {_setRoleAdmin}."
      },
      "getRoleMember(bytes32,uint256)": {
        "details": "Returns one of the accounts that have `role`. `index` must be a value between 0 and {getRoleMemberCount}, non-inclusive. Role bearers are not sorted in any particular way, and their ordering may change at any point. WARNING: When using {getRoleMember} and {getRoleMemberCount}, make sure you perform all queries on the same block. See the following https://forum.openzeppelin.com/t/iterating-over-elements-on-enumerableset-in-openzeppelin-contracts/2296[forum post] for more information."
      },
      "getRoleMemberCount(bytes32)": {
        "details": "Returns the number of accounts that have `role`. Can be used together with {getRoleMember} to enumerate all bearers of a role."
      },
      "grantRole(bytes32,address)": {
        "details": "Grants `role` to `account`. If `account` had not been already granted `role`, emits a {RoleGranted} event. Requirements: - the caller must have ``role``'s admin role."
      },
      "hasRole(bytes32,address)": {
        "details": "Returns `true` if `account` has been granted `role`."
      },
      "renounceRole(bytes32,address)": {
        "details": "Revokes `role` from the calling account. Roles are often managed via {grantRole} and {revokeRole}: this function's purpose is to provide a mechanism for accounts to lose their privileges if they are compromised (such as when a trusted device is misplaced). If the calling account had been revoked `role`, emits a {RoleRevoked} event. Requirements: - the caller must be `account`."
      },
      "revokeRole(bytes32,address)": {
        "details": "Revokes `role` from `account`. If `account` had been granted `role`, emits a {RoleRevoked} event. Requirements: - the caller must have ``role``'s admin role."
      },
      "supportsInterface(bytes4)": {
        "details": "See {IERC165-supportsInterface}."
      }
    },
    "stateVariables": {
      "ADD_VAULT_ROLE": {
        "details": "Can add new vaults to the vaultChef."
      },
      "FEE_PROCESSOR_ROLE": {
        "details": "Can process harvest fees."
      },
      "PAUSE_VAULT_ROLE": {
        "details": "Can pause and panic vaults."
      },
      "SET_VAULT_ROLE": {
        "details": "Can update the performance fee of vaults."
      },
      "vaultChef": {
        "details": "The underlying vaultChef to administer."
      }
    },
    "version": 1
  },
  "userdoc": {
    "kind": "user",
    "methods": {
      "executeTransaction(address,uint256,bytes)": {
        "notice": "Generic function proxy, only callable by the DEFAULT_ADMIN."
      },
      "grantAllRoles(address)": {
        "notice": "Grants an account all roles. Must be called from a DEFAULT_ADMIN."
      },
      "revokeAllRoles(address)": {
        "notice": "Revokes all roles from an account. Must be called by a DEFAULT_ADMIN."
      }
    },
    "notice": "The VaultChefGovernor is the first owner of the vaultchef and manages the permissions of variousPrivileged addresses can be inspected by iterating over the different roles (ADD_VAULT_ROLE, SET_VAULT_ROLE, PAUSE_VAULT_ROLE and DEFAULT_ADMIN_ROLE).ADD_VAULT_ROLE can add new vaults to the vaultChefSET_VAULT_ROLE can update the performance fee of vaults on the vaultChefPAUSE_VAULT_ROLE can pause and panic vaults on the vaulChefDEFAULT_ADMIN_ROLE is the administrator to modify roles and can furthermore call the rest of the governance functions. These should be multisigs or long timelocks.DEFAULT_ADMIN_ROLE can also execute arbitrary functions so it can do all the actions of the other roles as well.",
    "version": 1
  },
  "storageLayout": {
    "storage": [
      {
        "astId": 24,
        "contract": "contracts/governance/VaultChefGovernor.sol:VaultChefGovernor",
        "label": "_roles",
        "offset": 0,
        "slot": "0",
        "type": "t_mapping(t_bytes32,t_struct(RoleData)19_storage)"
      },
      {
        "astId": 327,
        "contract": "contracts/governance/VaultChefGovernor.sol:VaultChefGovernor",
        "label": "_roleMembers",
        "offset": 0,
        "slot": "1",
        "type": "t_mapping(t_bytes32,t_struct(AddressSet)2543_storage)"
      }
    ],
    "types": {
      "t_address": {
        "encoding": "inplace",
        "label": "address",
        "numberOfBytes": "20"
      },
      "t_array(t_bytes32)dyn_storage": {
        "base": "t_bytes32",
        "encoding": "dynamic_array",
        "label": "bytes32[]",
        "numberOfBytes": "32"
      },
      "t_bool": {
        "encoding": "inplace",
        "label": "bool",
        "numberOfBytes": "1"
      },
      "t_bytes32": {
        "encoding": "inplace",
        "label": "bytes32",
        "numberOfBytes": "32"
      },
      "t_mapping(t_address,t_bool)": {
        "encoding": "mapping",
        "key": "t_address",
        "label": "mapping(address => bool)",
        "numberOfBytes": "32",
        "value": "t_bool"
      },
      "t_mapping(t_bytes32,t_struct(AddressSet)2543_storage)": {
        "encoding": "mapping",
        "key": "t_bytes32",
        "label": "mapping(bytes32 => struct EnumerableSet.AddressSet)",
        "numberOfBytes": "32",
        "value": "t_struct(AddressSet)2543_storage"
      },
      "t_mapping(t_bytes32,t_struct(RoleData)19_storage)": {
        "encoding": "mapping",
        "key": "t_bytes32",
        "label": "mapping(bytes32 => struct AccessControl.RoleData)",
        "numberOfBytes": "32",
        "value": "t_struct(RoleData)19_storage"
      },
      "t_mapping(t_bytes32,t_uint256)": {
        "encoding": "mapping",
        "key": "t_bytes32",
        "label": "mapping(bytes32 => uint256)",
        "numberOfBytes": "32",
        "value": "t_uint256"
      },
      "t_struct(AddressSet)2543_storage": {
        "encoding": "inplace",
        "label": "struct EnumerableSet.AddressSet",
        "members": [
          {
            "astId": 2542,
            "contract": "contracts/governance/VaultChefGovernor.sol:VaultChefGovernor",
            "label": "_inner",
            "offset": 0,
            "slot": "0",
            "type": "t_struct(Set)2242_storage"
          }
        ],
        "numberOfBytes": "64"
      },
      "t_struct(RoleData)19_storage": {
        "encoding": "inplace",
        "label": "struct AccessControl.RoleData",
        "members": [
          {
            "astId": 16,
            "contract": "contracts/governance/VaultChefGovernor.sol:VaultChefGovernor",
            "label": "members",
            "offset": 0,
            "slot": "0",
            "type": "t_mapping(t_address,t_bool)"
          },
          {
            "astId": 18,
            "contract": "contracts/governance/VaultChefGovernor.sol:VaultChefGovernor",
            "label": "adminRole",
            "offset": 0,
            "slot": "1",
            "type": "t_bytes32"
          }
        ],
        "numberOfBytes": "64"
      },
      "t_struct(Set)2242_storage": {
        "encoding": "inplace",
        "label": "struct EnumerableSet.Set",
        "members": [
          {
            "astId": 2237,
            "contract": "contracts/governance/VaultChefGovernor.sol:VaultChefGovernor",
            "label": "_values",
            "offset": 0,
            "slot": "0",
            "type": "t_array(t_bytes32)dyn_storage"
          },
          {
            "astId": 2241,
            "contract": "contracts/governance/VaultChefGovernor.sol:VaultChefGovernor",
            "label": "_indexes",
            "offset": 0,
            "slot": "1",
            "type": "t_mapping(t_bytes32,t_uint256)"
          }
        ],
        "numberOfBytes": "64"
      },
      "t_uint256": {
        "encoding": "inplace",
        "label": "uint256",
        "numberOfBytes": "32"
      }
    }
  }
}